:020000040800F2
:10000000700800200501000851360008B52E0008D0
:100010004D360008B90300086140000800000000E8
:10002000000000000000000000000000A9370008E8
:100030001D040008000000009D3600089D380008DF
:100040001F010008953600081F0100081F01000865
:100050000B070008113700081F0100081F010008E6
:100060001F0100081F0100081F010008D10300083C
:100070001F010008E10300081F0100081F0100081C
:100080001F0100081F010008C90100081F01000826
:100090001F0100081F0100081F0100081F040008BD
:1000A0001F0100081F0100081F0100081F010008B0
:1000B000853900081F010008953900081F01000854
:1000C0001F0100081F0100081F0100081F01000890
:1000D0001F0100081F0100081F0100081F01000880
:1000E0001F0100081F0100081F010008DFF810D0E1
:1000F00000F02CF8004800478D420008AFF3008064
:10010000700800200648804706480047FEE7FEE7E3
:10011000FEE7FEE7FEE7FEE7FEE7FEE7FEE7FEE7B7
:100120002D390008ED000008D2B201E000F8012BE3
:10013000491EFBD270470022F6E710B513460A4667
:1001400004461946FFF7F0FF204610BD064C074D48
:1001500006E0E06840F0010394E807009847103497
:10016000AC42F6D3FFF7C6FF4C4400086C440008CD
:1001700070B58C1810F8015B15F0070301D110F869
:10018000013B2A1106D110F8012B03E010F8016B96
:1001900001F8016B5B1EF9D12B0705D40023521E19
:1001A0000DD401F8013BFAE710F8013BCB1A921C81
:1001B00003E013F8015B01F8015B521EF9D5A1427F
:1001C000D8D3002070BD000010B5024800F0F3FC49
:1001D00010BD0000B401002070B504460025206861
:1001E000806800F0010018B32068806820F00100EA
:1001F0002168886001F0FEFA054613E001F0FAFA82
:10020000401B02280ED92068806800F0010048B128
:10021000A06A40F01000A062E06A40F00100E062D5
:10022000012070BD2068806800F001000028E5D141
:100230000020F6E770B505466C6AA06A00F0500031
:10024000E0B9A06A40F40070A0622068806800F401
:100250006020B0F5602F0DD1207B58B9A06A20F442
:100260008070A062A06A00F4805018B9A06A40F0C3
:100270000100A062204600F09BFC03E0206A016BB5
:100280002846884770BD70B505466C6AA06A40F084
:100290004000A062E06A40F00400E062204600F006
:1002A00089FC70BD70B50446656A284600F081FC83
:1002B00070BD000038B5044600250020009020687D
:1002C000806800F0010078BB2068806840F0010081
:1002D00021688860194800681949B0FBF1F0009066
:1002E00002E00098401E009000980028F9D101F02B
:1002F00081FA054619E001F07DFA401B022814D965
:100300002068806800F0010078B9A06A40F0100011
:10031000A062E06A40F00100E06200BF002084F8C3
:10032000240000BF012038BD05E02068806800F08F
:1003300001000028DFD00020F5E70000B001002018
:1003400040420F001048C0880F498988401A00B207
:100350000D4948810846B0F90A00962802DD0020C0
:1003600048700CE00848B0F90A0010F1960F03DA63
:1003700001200549487002E0022003494870024804
:10038000C0880149888070473801002010B5094AAB
:100390009189D089502200F039FA0649C88108466F
:1003A000C089C0F1B400052190FBF1F0193001497A
:1003B000087410BD2604002000BFFEE70248808AB2
:1003C00002490968886370473400002070020020E9
:1003D00010B5024800F044FE10BD0000E40100200A
:1003E00010B5024800F03CFE10BD0000FC020020E9
:1003F00030B590F840500124AC40C56B6C60046887
:1004000063604468102C04D10468A2600468E16051
:1004100003E00468A1600468E26030BD704710B575
:100420004FF4007001F030F810BD000010B57E48A8
:10043000007808287BD2DFE800F0042D3C467B9D45
:10044000BFDE03F083F928B9012003F0CDF90120C4
:10045000764908704FF4FA6275497448007803F0E1
:1004600037FDB0B1002071490870012003F0A2F9F6
:1004700040F2E93002F0C8FD5A2003F02EF904469C
:100480006C4B224600216C4803F0BAFF01206649FC
:100490000870C6E00021684803F099FE40B10020D2
:1004A0006149C880012003F0C3F902205E49087049
:1004B000B7E05D48007A28B1012060490870032048
:1004C00059490870ADE05848C08840F24C41884214
:1004D00015DD01205A49087040F6B832594958488C
:1004E000007803F0F5FC08B3002055490870554921
:1004F000086003F09DF905204B49087016E04A4852
:100500004078012807D04FF4FA624F494B480078F1
:1005100003F0DEFC50B10020484908704A490860E9
:1005200001204A49087004203F49087079E077E0CB
:100530003D48C088B0F5967F07DB40F2DC52444965
:100540004248007803F0C4FC98B100203F4908708D
:100550003F490860344890F84C00401C324981F80B
:100560004C000020C880012003F062F902202E49CF
:10057000087056E02C48C088B0F5E16F03DD062016
:10058000294908700BE02848C08840F24C41884255
:1005900005DC04202449087001202C4908702248F9
:1005A000007A40B900202049C880012003F040F9BA
:1005B00002201D49087034E01B48C08842F6EC4117
:1005C000884203DD07201849087007E01648C088F4
:1005D000B0F5E16F02DC0520134908701248007A7B
:1005E00040B900201049C880012003F021F9022001
:1005F0000D49087015E00C48C088B0F52F5F02DC8B
:100600000620094908700848007A40B900200649C8
:10061000C880012003F00CF902200349087000E0B3
:1006200000BF00BF10BD0000380100200000002006
:1006300008000020533F000858030020020000205B
:1006400003000020140000201000002004000020FF
:100650001800002010B503F0BFF821484169806DF3
:1006600001EB00401E494861084640691D49884227
:1006700033D81B48406941F2744188422DD3184851
:1006800040691949B1FBF0F01549C8800846C08897
:1006900088800846C0888988401A00B2104948817D
:1006A00008468088C988B0EB410F08DA0C4880887A
:1006B0000B49C988C0EB41000949888102E000204C
:1006C00007498881064880890549C88008468169AC
:1006D000C06D01EB00400249886103F07DF810BD58
:1006E000380100202FFC0B002F82AE040548808CBF
:1006F0009621484340F6FF7190FBF1F0014981F8E3
:100700002800704726040020704710B500F0FAFD5D
:1007100010BD00000021074AD1610749096941F075
:100720000201054A116111464861096941F0400121
:100730001161704750040020002002400022054B48
:10074000DA61054A126942F00102034B1A61018025
:1007500070470000500400200020024000201E4985
:10076000C96801F0100139B11C49C96941F00201A1
:100770001A4AD16140F010001749C96801F004011C
:1007800039B11649C96941F00101144AD16140F0FB
:1007900004001149C96901F0010169B10F49C96932
:1007A00041F004010D4AD16100BF0B49C96921F034
:1007B0000101094AD16100BF00BF40F20111884226
:1007C00006D10549C96921F00101034AD16101E05F
:1007D0000149C86000BF704700200240500400205B
:1007E00010B50421074802F0B1FA074988610846AC
:1007F000806CC8650846006E022802D3012081F88B
:10080000270010BD280200203801002030B5034623
:100810005C1A02FB04F0FF2590FBF5F04418A0B22F
:1008200030BD000010B587480078022806D10020AE
:1008300002F0EAFB00208349C86301E181480078A7
:10084000032865D18048807D462806DD002002F01F
:10085000DBFB00207B49C863F2E07B4991F828006C
:1008600003F0F2FC7849097F01EB81014900754AE8
:1008700092F832205143734A92F831205143484351
:10088000714991F8221001F2111101EB4102C2EB02
:10089000411190FBF1F06B49C8620846C06AC988F3
:1008A000484340F6B831B0FBF1F06649C8620846EB
:1008B00090F8330091F8291048436249C96A42F21E
:1008C00010725143B1FBF0F05E4948640846406C39
:1008D00088630846806B40F27711B0FBF1F059490C
:1008E00008640846006C4FF4487148434FF47A712D
:1008F000B0FBF1F05349C863C86B4FF4487102F084
:1009000054FF5049C863C96B88B202F07DFB97E081
:100910004C480078032890DD03F0C2FB03F024FA72
:1009200002F0A0FE474AD188474A107F03F089FCB5
:10093000444981F830000A46D188434A107F03F0C9
:100940007DFC404981F828003F4A917A3D4A92F85F
:10095000280002F05FFB3C48007F4FF47A71484367
:10096000384991F832104843364991F830104843DD
:10097000354991F8221001F2111101EB4102C2EB4D
:10098000411190FBF1F02F49C8620846C06AC9883E
:10099000484340F6B831B0FBF1F02A49C862084636
:1009A00090F8330091F8281048432649C96A42F26A
:1009B00010725143B1FBF0F022494864084690F8A8
:1009C000660091F8651048431E4991F86910484344
:1009D0001C4991F8641048431A4991F8671048433C
:1009E0004FF47A7190FBF1F01649A1F86A000846BD
:1009F000406CB1F86A1048434FF47A71B0FBF1F0E3
:100A0000104988630846806B40F27711B0FBF1F023
:100A10000C4908640846006C4FF4487148434FF491
:100A20007A71B0FBF1F00749C863C86B4FF44871A5
:100A300002F0BBFE0349C863C96B88B202F0E4FA56
:100A400010BD00003801002026040020704700007F
:100A500038B5024600230020009000BF92F8240021
:100A6000012801D1022038BD012082F8240000BFF6
:100A70004868072812D21068406B0C79641E04EB9A
:100A800084051F24AC40A0430D796D1E05EB850540
:100A90000C68AC4020431468606327E048680D2868
:100AA00012D21068006B0C79E41F04EB84051F243C
:100AB000AC40A0430D79ED1F05EB85050C68AC40FB
:100AC00020431468206311E01068C06A0C790D3C63
:100AD00004EB84051F24AC40A0430D790D3D05EBCC
:100AE00085050C68AC4020431468E06208680A2859
:100AF00012D31068C0680C780A3C04EB4405072444
:100B0000AC40A0430D780A3D05EB45058C68AC4030
:100B100020431468E0600FE0106800690C7804EB73
:100B200044050724AC40A0430D7805EB45058C68CF
:100B3000AC402043146820610868102802D008687F
:100B4000112827D1174C1068A0421ED11068806868
:100B500000F40000F0B91068806840F400001468E8
:100B6000A0600868102815D10F4800680F4CB0FB32
:100B7000F4F000EB80004000009002E00098401E7E
:100B8000009000980028F9D104E0906A40F020001D
:100B90009062012300BF002082F8240000BF1846A5
:100BA00061E7000000240140B001002040420F0036
:100BB00070477047704710B504462068406800F0E1
:100BC000200020282FD12068006800F002000228B1
:100BD00029D1A06A00F0100018B9A06A40F4007092
:100BE000A0622068806800F46020B0F5602F13D107
:100BF000207B88B92068406820F020002168486088
:100C0000A06A20F48070A062A06A00F4805018B935
:100C1000A06A40F00100A0622046FFF7C9FF6FF014
:100C20001200216808602068406800F08000802879
:100C30003BD12068006800F00400042835D1A06A88
:100C400000F0100018B9A06A40F40050A0622068BB
:100C5000806800F4E040B0F5E04F0DD020684068B7
:100C600000F48060D0B92068806800F46020B0F59E
:100C7000602F13D1207B88B92068406820F0800065
:100C800021684860A06A20F48050A062A06A00F445
:100C9000807018B9A06A40F00100A0622046FFF7FA
:100CA000D5FE6FF00C00216808602068406800F0F5
:100CB000400040280FD12068006800F0010050B1CA
:100CC000A06A40F48030A062204600F0A7F86FF0E0
:100CD00001002168086010BD2DE9F041044600279D
:100CE00000250026A84614B90120BDE8F081A068BF
:100CF00010B1207D00B100BFA06A30B90020E062D1
:100D000084F82400204600F08BF82046FFF764FAB0
:100D10000746A06A00F01000002873D1002F71D19F
:100D2000A06A20F4885040F00200A062E169606887
:100D30000843217B40EA41000643A068B0F5807F6C
:100D400002D0A068012802D14FF4807000E000209A
:100D50000543207D012811D1207B38B9A069401EB0
:100D60004FF4006141EA4030054307E0A06A40F0DB
:100D70002000A062E06A40F00100E0622068406864
:100D800020F4694028432168486020688068214930
:100D90000840304321688860A068B0F5807F02D0A9
:100DA000A068012802D14FF4807000E00020B0F567
:100DB000807F03D1208A401E4FEA00582068C06A15
:100DC00020F4700040EA08002168C862206880684A
:100DD00011490840B04208D10020E062A06A20F02A
:100DE000020040F00100A06211E0A06A20F00200C1
:100DF00040F01000A062E06A40F00100E0620127CC
:100E000005E0FFE7A06A40F01000A0620127384625
:100E10006BE70000FDF7E1FFFE0E1FFF70470000CB
:100E200010B586B00446002002900390049005900F
:100E300026492068884246D100BF2548806940F491
:100E40000070234988610846806900F400700190B1
:100E500000BF00BF00BF0846806940F00400886101
:100E60000846806900F00400019000BF00BF3F20E9
:100E700002900320039002A9164800F013FB1648C5
:100E800016490860002048600021144881608021D4
:100E9000C160490001618900416120218161002117
:100EA000C16100F0ABF908B1FFF72EFC00BF0B48A1
:100EB0002062446200BF00221146122000F03CFD77
:100EC000122000F029FD06B010BD000000240140F2
:100ED000001002400008014008000240E401002028
:100EE0002DE9F04104460D46164600275749206873
:100EF000884203D056492068884205D15348001DD6
:100F0000006800F4702000E0002000287ED100BFBF
:100F100094F82400012802D10220BDE8F0810120CC
:100F200084F8240000BF2046FFF7C4F90746002FCD
:100F30006DD1A06A40F60161884340F48070A062E0
:100F400043492068884209D14048001D006800F4E8
:100F5000702008B9012002E0002000E0012078B1F3
:100F6000A06A20F48010A0622068406800F48060CD
:100F700000B3A06A20F4005040F48050A06219E051
:100F8000A06A40F48010A06230492068884203D0F3
:100F90002F492068884205D12C48001D006800F4C4
:100FA000806000E0002028B1A06A20F4005040F4E6
:100FB0008050A062A06A00F4805020B1E06A20F066
:100FC0000600E06201E00020E06200BF002084F83B
:100FD000240000BF1F48216A88621F48216AC86236
:100FE0001E48216A08636FF00200216808602068CB
:100FF000806840F4807021688860226802F14C01AA
:1010000033462A46206A00F02DF901E01AE014E088
:101010002068806800F46020B0F5602F06D1206859
:10102000806840F4A000216888600CE02068806837
:1010300040F480102168886005E000BF002084F83B
:10104000240000E00127384667E700000024014043
:101050000028014035020008A502000887020008A8
:1010600070B50446E06B05682068066894F8401087
:10107000042088402840002846D006F004000028BC
:1010800042D02068006800F0200028B9206800687D
:1010900020F004002168086057492068884201D187
:1010A000042027E0544914312068884201D14020AF
:1010B00020E0514928312068884201D1001519E00B
:1010C0004D493C312068884202D14FF4804011E004
:1010D000494950312068884202D14FF4802009E00C
:1010E000454964312068884202D14FF4800001E014
:1010F0004FF08060404908394860E06A00287AD0A3
:101100002046E16A884776E094F840100220884043
:101110002840A0B306F0020088B32068006800F001
:10112000200040B92068006820F00A0021680860AB
:10113000012084F8210030492068884201D1022032
:1011400028E02D4914312068884201D1202021E077
:10115000294928312068884201D140151AE02649E2
:101160003C312068884202D14FF4005012E02249FD
:1011700050312068884203D14FF400300AE017E074
:101180001D4964312068884202D14FF4001001E00B
:101190004FF0007018490839486000BF002084F8FB
:1011A000200000BFA06A30B32046A16A884722E031
:1011B00094F84010082088402840E0B106F008006C
:1011C000C8B12068006820F00E002168086094F81B
:1011D000401001208840E16B48600120A06384F842
:1011E000210000BF002084F8200000BF206B10B158
:1011F0002046216B884770BD08000240014600224E
:1012000009B901207047164B0868C01A1423B0FBB7
:10121000F3F08000086412480838C863022081F89F
:1012200021000868026843F6F0708243D1E90103A7
:101230001843CB6818430B6918434B6918438B69F3
:101240001843CB6918430243086802600020886392
:10125000012081F82100002081F8200000BFD1E7A3
:10126000080002402DE9F04104460D4616461F468F
:101270004FF0000800BF94F82000012802D102209E
:10128000BDE8F081012084F8200000BF94F821001F
:1012900001282CD1022084F821000020A0632068BE
:1012A000006820F00100216808603B46324629466C
:1012B0002046FFF79DF8E06A30B12068006840F0F2
:1012C0000E00216808600BE02068006820F0040030
:1012D000216808602068006840F00A002168086002
:1012E0002068006840F001002168086006E000BF47
:1012F000002084F8200000BF4FF002084046BFE7FE
:101300007047000010B500245C48C06800F0100071
:1013100020B95A48C06800F0040068B15848846891
:101320004FF0FF3056498860FFF718FA204600F06A
:10133000A9F80020524908705048C06800F0200009
:10134000002828D000BF20204C49C86000BF4C486E
:10135000007800287ED04A480078012827D14848E4
:101360004068401E4649486008464068A0B10846AB
:1013700084682046FFF7C4FF4148806800F5806418
:101380003F4884603D48006920F002003B49086105
:101390002046FFF7BFF95DE04FF0FF3004463849C3
:1013A0008860002008702046FFF7AAFF52E034480A
:1013B000007802280CD13148006920F004002F4940
:1013C00008610020FFF79CFF00202D49087041E0D4
:1013D0002B484068401E2A49486008464068D8B1FA
:1013E00008468068801C88600846846808694969E6
:1013F000000C40EA0140090C214A106151611F486C
:10140000006920F001001D4908611069526981B22C
:101410002046FFF793F91DE019480078032804D10E
:1014200017498868FFF76CFF0EE01548007804281C
:1014300005D113498968881EFFF762FF04E010494F
:101440008968881FFFF75CFF4FF0FF300C49886008
:10145000002008700A48007878B90848006920F030
:101460000700064908610846006920F4A050086199
:1014700000BF00200249087600BF10BD00200240D6
:10148000500400207047704710B5044604480068B7
:10149000204020B1024804602046FFF7F4FF10BD51
:1014A000140401402DE9F8470346002294466EE1FA
:1014B0004FF0010808FA02F4D1F8008008EA0400AD
:1014C000A0427DD1DFF8DCA2D1F80480A8EB0A09A4
:1014D000D0453AD014DCB8F1030F50D009DCB8F194
:1014E000000F31D0B8F1010F1CD0B8F1020F49D173
:1014F00020E0B8F1110F18D0B8F1120F42D11EE060
:10150000B9F5881F25D006DCB9F5803F20D0B9F5A4
:10151000801F37D11AE0B9F5001F18D0B9F5041FA4
:1015200030D117E0D1F80CC02DE0D1F80C8008F1D3
:10153000040C28E0D1F80C8008F1080C23E0D1F865
:101540000C8008F10C0C1EE000BF00BF00BF00BF04
:1015500000BF00BFD1F80880B8F1000F02D14FF0F2
:10156000040C0BE0D1F80880B8F1010F03D14FF063
:10157000080C1C6102E04FF0080C5C6103E04FF0C6
:10158000000C00E000BF00BFFF2801D8984601E032
:1015900003F104084646FF2802D84FEA820803E018
:1015A000A2F108084FEA88084746D6F800804FF0B5
:1015B0000F0909FA07F928EA09080CFA07F900E007
:1015C00088E048EA0908C6F80080D1F8048008F0ED
:1015D0008058B8F1805F7DD100BFDFF8CC81D8F8AA
:1015E000188048F00108DFF8C091C9F81880C84693
:1015F000D8F8188008F00108CDF8008000BF00BFBF
:101600004FEAB9384FEA920958F829504FEA8278E0
:101610004FEA18794FF00F0808FA09F825EA08058B
:10162000DFF88881434502D14FF0000816E0DFF86B
:101630008081434502D14FF001080FE0DFF874814B
:10164000434502D14FF0020808E0DFF86C814345C2
:1016500002D14FF0030801E04FF004084FEA82790D
:101660004FEA197908FA09F848EA0505DFF84C81CC
:101670004FEA920948F82950D1F8048008F48038DC
:10168000B8F5803F0AD1DFF83881D8F8008048EA01
:101690000008DFF82C91C9F8008009E0DFF820810C
:1016A000D8F8008028EA0008DFF81491C9F8008013
:1016B000D1F8048008F40038B8F5003F10D1DFF805
:1016C000008108F10408D8F8008048EA0008DFF833
:1016D000F09000E05AE009F10409C9F800800DE03B
:1016E000DFF8DC8008F10408D8F8008028EA000858
:1016F000DFF8CC9009F10409C9F80080D1F8048022
:1017000008F48018B8F5801F0ED1DFF8B48008F116
:101710000808D8F8008048EA0008DFF8A49009F12A
:101720000809C9F800800DE0DFF8948008F1080886
:10173000D8F8008028EA0008DFF8849009F1080949
:10174000C9F80080D1F8048008F40018B8F5001F2B
:101750000ED1DFF86C8008F10C08D8F8008048EA58
:101760000008DFF85C9009F10C09C9F800800DE071
:10177000DFF84C8008F10C08D8F8008028EA00084F
:10178000DFF83C9009F10C09C9F80080521CD1F82F
:10179000008028FA02F8B8F1000F7FF489AEBDE8A6
:1017A000F8870000000011100010024000080140FE
:1017B000000C0140001001400014014008000140ED
:1017C00000040140024693680B400BB1012000E089
:1017D0000020704710B5C26821EA020302EA010442
:1017E00043EA0443036110BD0AB1016101E00B0447
:1017F000036170470148006870470000A4010020A1
:1018000003480068034909780844014908607047A3
:10181000A4010020AC01002010B50848006840F089
:10182000100006490860032000F0C4F8022000F010
:1018300007F800F02BF8002010BD00000020024047
:1018400070B504460E4800784FF47A71B1FBF0F0A1
:101850000C490968B1FBF0F5284600F0D1FC08B14D
:10186000012070BD102C07D200222146501E00F02E
:1018700063F80548046001E00120F2E70020F0E78A
:10188000AC010020B0010020A801002008B500BF75
:101890001F48806940F001001D4988610846806941
:1018A00000F00100009000BF00BF00BF0846C06903
:1018B00040F08050C8610846C06900F08050009038
:1018C00000BF00BF042000F075F80022114601207F
:1018D00000F032F8012000F01FF800221146042029
:1018E00000F02AF8042000F017F800221146052025
:1018F00000F022F8052000F00FF800BF0549486805
:1019000020F0E06040F00070486000BF08BD0000BB
:10191000001002400000014001460846002809DB93
:1019200000F01F0301229A4043099B0003F1E023CA
:10193000C3F8002100BF70472DE9F05F80460D46D7
:101940001646002702F0C8FB074639462A463346AA
:1019500001F00700C0F1070ABAF1040F02D94FF0F5
:10196000040A01E0C0F1070AD14600F1040ABAF105
:10197000070F02D24FF0000A01E0A0F1030AD4469B
:101980004FF0010A0AFA09FAAAF1010A0AEA020A60
:101990000AFA0CFA4FF0010B0BFA0CFBABF1010B3E
:1019A0000BEA030B4AEA0B042146404602F09CFB7B
:1019B000BDE8F09F00BF00F00702064B19684FF624
:1019C000FF031940044B0B4343EA0221014B19600A
:1019D00000BF70470CED00E00000FA057047000002
:1019E00010B50648006800F4803028B1FFF7F6FF14
:1019F0004FF480300149086010BD0000140401401C
:101A0000F8B5044600260025207800F001000028E3
:101A10006BD000274348C06900F0805070B900BF08
:101A20004048C06940F080503E49C8610846C069DE
:101A300000F08050009000BF00BF01273A480068C6
:101A400000F48070B0B93848006840F480703649BE
:101A50000860FFF7CFFE064606E0FFF7CBFE801BCF
:101A6000642801D90320F8BD2F48006800F4807075
:101A70000028F2D02B48006A00F440752DB3A088EE
:101A800000F44070A84220D02648006A20F4407537
:101A9000012026490860002008602248056205F000
:101AA000010090B1FFF7A6FE064608E0FFF7A2FE90
:101AB000801B41F28831884201D90320D3E71948BD
:101AC000006A00F002000028F0D01648006A20F4F6
:101AD00040706168084313490862012F04D1084629
:101AE000C06920F08050C86100BF207800F002007B
:101AF000022807D10B48406820F44040A168084301
:101B000008494860207800F01000102807D10548E7
:101B1000406820F48000E1680843024948600020E2
:101B2000A1E7000000100240007000404004424263
:101B300070B504460D460CB9012070BD5A480068C6
:101B400000F00700A8420ED25748006820F00700B6
:101B50002843554908600846006800F00700A8427D
:101B600001D00120E9E7207800F0020002281DD111
:101B7000207800F00400042805D14C48406840F467
:101B8000E0604A494860207800F00800082805D144
:101B90004648406840F460504449486043484068C3
:101BA00020F0F000A168084340494860207800F028
:101BB000010078B36068012806D13C48006800F451
:101BC000003090B90120B8E76068022806D1374894
:101BD000006800F0007040B90120AEE733480068AB
:101BE00000F0020008B90120A7E73048406820F063
:101BF0000300616808432D494860FFF7FBFD064676
:101C000009E0FFF7F7FD801B41F28831884202D9D5
:101C1000032092E707E02548406800F00C00616867
:101C2000B0EB810FEDD12048006800F00700A8421A
:101C30000ED91D48006820F0070028431A490860A3
:101C40000846006800F00700A84201D0012074E7B0
:101C5000207800F00400042807D11448406820F4DC
:101C6000E060E168084311494860207800F008000E
:101C7000082808D10D48406820F46050216940EAE6
:101C8000C1000A49486000F03FF808494968C1F3BB
:101C90000311074A515CC8400649086006480068BD
:101CA000FFF7CEFD002048E7002002400010024070
:101CB00034440008B0010020A80100200148006859
:101CC00070470000B001002000B5FFF7F7FF04499E
:101CD0004968C1F30221034A515CC84000BD0000BD
:101CE000001002404444000800B5FFF7E7FF044934
:101CF0004968C1F3C221034A515CC84000BD0000DD
:101D00000010024044440008F0B585B00FF26C0C9E
:101D10009CE8E01001A8A0E8E0101CA52D68009543
:101D200000210022002300240020194D696801F0E1
:101D30000C05F5B1042D02D0082D19D101E015488C
:101D400019E001ADC1F38346AC5D01F4803555B1B6
:101D50000F4D6D68C5F340451DF805200D4D6543D9
:101D6000B5FBF2F302E00C4D04FB05F3184602E06C
:101D700000BF084800BF00BF05B0F0BD0203040566
:101D8000060708090A0B0C0D0E0F101001020000C7
:101D90000010024000127A0000093D00F8B5044628
:101DA0000CB90120F8BD207800F00100002878D09F
:101DB000F848406800F00C0004280CD0F548406852
:101DC00000F00C00082811D1F248406800F480307F
:101DD000B0F5803F0AD1EF48006800F400300028D9
:101DE0005FD0606800285CD10120DBE700BF60683D
:101DF000B0F5803F06D1E748006840F48030E549FF
:101E0000086028E0606858B9E248006820F4803033
:101E1000E04908600846006820F4802008601AE065
:101E20006068B0F5A02F0BD1DA48006840F480203C
:101E3000D84908600846006840F4803008600AE02D
:101E4000D448006820F48030D24908600846006811
:101E500020F48020086000BF606888B1FFF7CAFCEA
:101E6000054606E0FFF7C6FC401B642801D90320A5
:101E700098E7C848006800F400300028F2D010E06D
:101E8000FFF7B8FC054606E0FFF7B4FC401B6428EA
:101E900001D9032086E7BF48006800F4003000281D
:101EA000F2D1207800F00200022857D1B9484068EA
:101EB00000F00C0050B1B748406800F00C00082852
:101EC00018D1B448406800F4803098B9B14800682F
:101ED00000F0020020B12069012801D0012061E753
:101EE000AC48006820F0F800616940EAC100A949E7
:101EF000086033E02069E8B10120A7490860FFF7D6
:101F000079FC054606E0FFF775FC401B022801D965
:101F1000032047E79F48006800F002000028F2D045
:101F20009C48006820F0F800616940EAC1009949C6
:101F3000086013E0002098490860FFF75BFC054645
:101F400006E0FFF757FC401B022801D9032029E7D0
:101F50009048006800F002000028F2D1207800F0DC
:101F6000080008282DD1A069B8B101208B4908606C
:101F7000FFF740FC054606E0FFF73CFC401B02284B
:101F800001D903200EE78348406A00F002000028D0
:101F9000F2D0012001F0A8FB13E000207F49086087
:101FA000FFF728FC054606E0FFF724FC401B02284B
:101FB00001D90320F6E67748406A00F002000028C5
:101FC000F2D1207800F00400042873D10027714872
:101FD000C06900F0805070B900BF6E48C06940F021
:101FE00080506C49C8610846C06900F0805000907C
:101FF00000BF00BF01276A48006800F48070B0B9D4
:102000006748006840F4807065490860FFF7F2FB9C
:10201000054606E0FFF7EEFB401B642801D90320CC
:10202000C0E65F48006800F480700028F2D000BF6E
:10203000E068012806D15748006A40F00100554980
:10204000086227E0E06858B95248006A20F00100B1
:10205000504908620846006A20F00400086219E04E
:10206000E06805280BD14B48006A40F0040049495C
:1020700008620846006A40F0010008620AE045482C
:10208000006A20F00100434908620846006A20F017
:102090000400086200BFE068A0B1FFF7ABFB054693
:1020A00009E0FFF7A7FB401B41F28831884202D9C3
:1020B000032077E622E03748006A00F0020000289B
:1020C000EFD012E0FFF796FB054608E0FFF792FB22
:1020D000401B41F28831884201D9032062E62D4835
:1020E000006A00F002000028F0D1012F05D1294834
:1020F000C06920F080502749C86100BFE069C8B3BB
:102100002448406800F00C00082860D0E0690228EC
:1021100048D1002020490866FFF76CFB054606E021
:10212000FFF768FB401B022801D903203AE6194853
:10213000006800F000700028F2D1206AB0F5803FFE
:1021400007D11448406820F40030A16808431149C1
:102150004860D4E9080108430E49496821F4741124
:1021600008430C49486001200B490866FFF742FB11
:10217000054607E03DE0FFF73DFB401B022801D983
:1021800003200FE60348006800F000700028F2D03A
:102190002FE0000000100240000042428004424252
:1021A00000700040002014490866FFF723FB054635
:1021B00006E0FFF71FFB401B022801D90320F1E5D1
:1021C0000E48006800F000700028F2D111E0E069CC
:1021D000012800D1E6E50948466806F48031206A06
:1021E000814204D106F47011606A814201D001205D
:1021F000D8E50020D6E50000000042420010024071
:1022000070B504462546681EB0F1807F01D30120D9
:102210000FE0681E4FF0E02148610F214FF0FF30C2
:1022200001F062FF00204FF0E02188610720086183
:10223000002070BD7047704730B502460B4600BFA6
:1022400092F83C00012801D1022030BD012082F823
:102250003C0000BF022082F83D001068446810680E
:10226000816824F070041868044310684460104DBD
:102270001068A8420BD01068B0F1804F07D00D4D08
:102280001068A84203D00C4D1068A84205D121F077
:1022900080015868014310688160012082F83D0088
:1022A00000BF002082F83C0000BF00BFCDE7000067
:1022B000002C0140000400400008004010B5044616
:1022C0000CB9012010BD94F83D0028B9002084F815
:1022D0003C00204600F026F8022084F83D00211D35
:1022E000206801F05FFB012084F8460000BF84F8FD
:1022F0003E0001213F20015540200155412001555C
:1023000000BF00BF012084F8420043200155442053
:1023100001554520015500BF012084F83D000020F3
:10232000D0E7000010B586B004460020029003906C
:10233000049005902068B0F1804F39D100BF2A4841
:10234000C06940F001002849C8610846C06900F032
:102350000100019000BF00BF00BF0846806940F047
:10236000040088610846806900F00400019000BF05
:1023700000BF4FF400400290002003900120049021
:1023800002A91A48FFF78EF800BF1949486820F4DF
:10239000407040F0E06040F48070486000BF002270
:1023A00011461C20FFF7C8FA1C20FFF7B5FA19E008
:1023B00010492068884215D100BF0B48C06940F021
:1023C00004000949C8610846C06900F00400019092
:1023D00000BF00BF002201211E20FFF7ADFA1E2022
:1023E000FFF79AFA06B010BD001002400008014045
:1023F0000000014000080040014691F83D0001281E
:1024000001D001207047022081F83D000868C068B3
:1024100040F001000B68D860124B086898420BD05E
:102420000868B0F1804F07D00F4B0868984203D07E
:102430000E4B086898420CD10868806800F00702CB
:10244000062A0CD00868006840F001000B6818608C
:1024500005E00868006840F001000B681860002083
:10246000D0E70000002C01400004004000080040BC
:102470002DE9F04104460D4600BF94F83C000128C8
:1024800002D10220BDE8F081012084F83C0000BFA9
:10249000022084F83D002068866826F0770626F43E
:1024A0007F46206886602868502833D00CDC2028BE
:1024B00050D004DC00284BD0102851D149E03028FE
:1024C00049D040284CD139E060282DD0702807D061
:1024D000B0F5805F03D0B0F5005F41D10DE040E082
:1024E000D5E902136A68206801F0A7FA20688668B7
:1024F00046F077062068866033E0D5E902136A6803
:10250000206801F09AFA2068806840F480402168D1
:10251000886026E0EA686968206801F05FFB502166
:10252000206801F095FA1CE0EA686968206801F00B
:102530009DFB6021206801F08BFA12E0EA6869686F
:10254000206801F04BFB4021206801F081FA08E08F
:1025500000BF00BF00BF2968206801F079FA00E0E1
:1025600000BF00BF012084F83D0000BF002084F8B8
:102570003C0000BF00BF85E710B504462068B0F1FD
:10258000804F04D1207F012801D101F0EDF82068AF
:10259000B0F1804F04D1207F022801D1FEF720F94D
:1025A00010BD2DE9F04104460D46164600BF94F8D3
:1025B0003C00012802D10220BDE8F081012084F80E
:1025C0003C0000BF96B9EB68D5E90012206801F025
:1025D00019FB2068806920F00C0021688861206860
:1025E0008069A9680843216888613DE0042E13D101
:1025F000EB68D5E90012206801F04CFB2068806987
:1026000020F440602168886120688069A96840EAF8
:1026100001202168886127E0082E12D1EB68D5E9F6
:102620000012206801F053FB2068C06920F00C0004
:102630002168C8612068C069A96808432168C86129
:1026400012E0EB68D5E90012206801F05CFB20681D
:10265000C06920F440602168C8612068C069A96829
:1026600040EA01202168C86100BF002084F83C00D6
:1026700000BF00BFA0E710B504460CB9012010BD93
:1026800094F83D0028B9002084F83C00204600F072
:1026900025F8022084F83D00211D206801F082F910
:1026A000012084F8460000BF84F83E0001213F204D
:1026B0000155402001554120015500BF00BF0120B8
:1026C00084F842004320015544200155452001551E
:1026D00000BF012084F83D000020D0E770470000D3
:1026E0002DE9F04104460D4615B994F83E000BE083
:1026F000042D02D13F20005D06E0082D02D14020CC
:10270000005D01E04120005D074615B994F84200E4
:102710000BE0042D02D14320005D06E0082D02D11C
:102720004420005D01E04520005D8046012F02D17C
:10273000B8F1010F02D00120BDE8F0811DB90220DF
:1027400084F83E000EE0042D03D102213F20015504
:1027500008E0082D03D102214020015502E00221AA
:10276000412001551DB9022084F842000EE0042DDD
:1027700003D102214320015508E0082D03D1022195
:102780004420015502E002214520015535B1042DB8
:102790000BD0082D10D00C2D1CD114E02068C0687F
:1027A00040F002002168C86015E02068C06840F071
:1027B00004002168C8600EE02068C06840F008008E
:1027C0002168C86007E02068C06840F010002168F8
:1027D000C86000E000BF00BF01222946206801F068
:1027E0001BF91249206888420BD02068B0F1804F55
:1027F00007D00F492068884203D00E4920688842DC
:102800000CD12068806800F00706062E0CD02068E6
:10281000006840F001002168086005E02068006859
:1028200040F0010021680860002085E7002C01408D
:10283000000400400008004010B50446206800690C
:10284000C0F34000D8B12068C068C0F34000B0B108
:102850006FF00200216808610120207720688069FC
:1028600000F0030018B12046FFF786FE05E0204681
:1028700000F00EF9204600F0F2F9002020772068E1
:102880000069C0F38000D8B12068C068C0F3800040
:10289000B0B16FF004002168086102202077206841
:1028A000806900F4407018B12046FFF765FE05E02E
:1028B000204600F0EDF8204600F0D1F90020207706
:1028C00020680069C0F3C000D8B12068C068C0F3B8
:1028D000C000B0B16FF008002168086104202077C3
:1028E0002068C06900F0030018B12046FFF744FEDD
:1028F00005E0204600F0CCF8204600F0B0F90020BA
:10290000207720680069C0F30010D8B12068C06843
:10291000C0F30010B0B16FF010002168086108200A
:1029200020772068C06900F4407018B12046FFF796
:1029300023FE05E0204600F0ABF8204600F08FF9BA
:10294000002020772068006900F0010058B120685D
:10295000C06800F0010030B16FF00100216808612B
:10296000204600F0E7F920680069C0F3C01058B1B4
:102970002068C068C0F3C01030B16FF080002168DB
:1029800008612046FFF756FC20680069C0F38010FC
:1029900058B12068C068C0F3801030B16FF04000BB
:1029A00021680861204600F0EAF920680069C0F358
:1029B000401058B12068C068C0F3401030B16FF0CB
:1029C0002000216808612046FFF735FC10BD00009B
:1029D00010B586B004460020029003900490059044
:1029E0000E492068884216D100BF0D48806940F02A
:1029F00008000B4988610846806900F008000190D2
:102A000000BF00BFC020029002200390059002A9E1
:102A10000448FEF747FD06B010BD00000008004066
:102A200000100240000C014070B504460E461546E9
:102A300000BF94F83C00012801D1022070BD0120A4
:102A400084F83C0000BF35B1042D09D0082D0CD00E
:102A50000C2D14D10EE03146206801F003F80FE090
:102A60003146206801F02EF80AE03146206801F076
:102A70005DF805E03146206801F08CF800E000BF09
:102A800000BF00BF002084F83C0000BF00BFD5E7B6
:102A9000704710B504460CB9012010BD94F83D00F4
:102AA00028B9002084F83C00204600F025F80220D8
:102AB00084F83D00211D206800F074FF012084F897
:102AC000460000BF84F83E0001213F200155402010
:102AD00001554120015500BF00BF012084F842008C
:102AE00043200155442001554520015500BF0120D8
:102AF00084F83D000020D0E7704770B504460D46CD
:102B0000164600BF94F83C00012801D1022070BD98
:102B1000012084F83C0000BF36B1042E1BD0082EE3
:102B200031D00C2E5ED145E02946206800F09AFF96
:102B30002068806940F00800216888612068806909
:102B400020F00400216888612068806929690843B1
:102B50002168886147E02946206800F0B3FF2068BB
:102B6000806940F40060216888612068806920F4F1
:102B700080602168886120688069296940EA0120B5
:102B8000216888612FE02946206800F0CFFF206887
:102B9000C06940F008002168C8612068C06920F061
:102BA00004002168C8612068C06929690843216858
:102BB000C86118E02946206800F0ECFF2068C06971
:102BC00040F400602168C8612068C06920F480601A
:102BD0002168C8612068C069296940EA012021682C
:102BE000C86100E000BF00BF00BF002084F83C00C7
:102BF00000BF00BF8BE710B504460CB9012010BD23
:102C000094F83D0028B9002084F83C00204600F0EC
:102C100025F8022084F83D00211D206800F0C2FE46
:102C2000012084F8460000BF84F83E0001213F20C7
:102C30000155402001554120015500BF00BF012032
:102C400084F8420043200155442001554520015598
:102C500000BF012084F83D000020D0E77047704796
:102C600070B504460D4615B994F83E000BE0042DEE
:102C700002D13F20005D06E0082D02D14020005D1A
:102C800001E04120005D012801D0012070BD1DB987
:102C9000022084F83E000EE0042D03D102213F20E3
:102CA000015508E0082D03D102214020015502E022
:102CB00002214120015501222946206800F0ACFE86
:102CC00019492068884201D1012000E0002028B184
:102CD0002068406C40F40040216848641249206834
:102CE00088420BD02068B0F1804F07D00F49206890
:102CF000884203D00E49206888420CD12068806841
:102D000000F00706062E0CD02068006840F0010095
:102D10002168086005E02068006840F00100216833
:102D200008600020B2E70000002C014000040040D1
:102D3000000800400168B1F1804F04D10249896C5C
:102D4000491C014A91647047380100200246002066
:102D500031B1042907D0082908D00C290CD108E08A
:102D60001368586B09E01368986B06E01368D86B1A
:102D700003E01368186C00E000BF00BF70477047A5
:102D800010B504460CB9012010BDA06900B100E0E7
:102D900000BF94F83D0028B9002084F83C0020468C
:102DA00000F028F8242084F83D002068C06820F452
:102DB00000502168C860204601F0D4F820680069FE
:102DC00020F49040216808612068406920F02A00C2
:102DD000216848612068C06840F400502168C860DC
:102DE00000202064202084F83D0084F83E0000206C
:102DF000CAE7000010B586B0044600200290039098
:102E00000490059026492068884247D100BF254894
:102E1000C06940F480202349C8610846C06900F4B5
:102E20008020019000BF00BF00BF0846806940F0CD
:102E3000080088610846806900F00800019000BF22
:102E400000BF08150290022003900320059002A9FC
:102E50001548FEF727FB4FF4006002900020039016
:102E6000049002A91048FEF71DFB104810490860A5
:102E70000020486000210E4881608021C16000214F
:102E8000016141618161C161FEF7B8F908B1FDF7E7
:102E90003BFC00BF0648A063446200BF06B010BD03
:102EA0000048004000100240000C01403000024089
:102EB000FC02002000BFFEE710B5002000F0B8FCC7
:102EC000002000F0C7FC002000F0A0FC002000F073
:102ED000D3FC002000F088FC002000F06BFC0020F8
:102EE00000F092F810BD000000B50023224991F8CF
:102EF000280001F099F92149C988431A20488361C3
:102F00000069002809DB1E480069B0F52F6F04D85E
:102F10001B48406818441A494860194800891849F4
:102F2000C9894843584316498989154A52895143EA
:102F3000134A526801FB020111484089104AD289A4
:102F4000504391FBF0F00E490861084600690028E3
:102F500008DB08460069B0F52F6F03D80846006902
:102F6000888202E00020064988820548808A054957
:102F70000968886300BD0000260400203801002095
:102F8000340000207002002000B51748807D1E2804
:102F900029DA16480078082823D2DFE800F0040573
:102FA00008090A101B1C00BF00F0DEF800BF00BFBC
:102FB00000BFFDF703FA01200D49087012E00C482C
:102FC000007820B100200A49087001F00FFAFFF7DD
:102FD0008BFF07E000BF00F03DFB012004490870B3
:102FE00000E000BF00BF00BD260400203801002023
:102FF000500000200248B0F842000249888670471D
:1030000054000020380100200149096848637047D6
:1030100070020020444A92782AB1444A127812B9C8
:10302000434A127802B17047424A927A462A04DD36
:1030300000223D4B83F826200CE03E4A927A1E2A5D
:1030400004DA0122384B83F8262003E00222364BB3
:1030500083F82620642804D1334A92F82620022AD5
:1030600004D16422304B83F86920DCE72E4A92F8C1
:103070002620314B1B789A4203D064222A4B83F8D6
:103080006920294A92F8262012B1012A42D120E073
:10309000254A92F869205A2A13DC234A92F85520CF
:1030A0003AB90A22204B83F85520642283F869201C
:1030B0000EE01D4A92F85520521E1B4B83F85520F6
:1030C00006E0194A92F86920521E174B83F86920CE
:1030D00021E0154A92F869206E2A13DB124A92F811
:1030E00054203AB90A22104B83F85420642283F802
:1030F00069200EE00C4A92F85420521E0A4B83F8C5
:10310000542006E0084A92F86920521C064B83F8C6
:10311000692000E000BF00BF034A92F82620064B5A
:103120001A7000BF7FE70000380100200500002072
:103130000600002026040020510000200948C08815
:1031400064214843552190FBF1F0064988720846F6
:10315000C0886421484340F6FF7190FBF1F00149BB
:10316000887270472604002000200249096888639D
:1031700070470000700200200548008B642148431E
:1031800040F6FF7190FBF1F00149087770470000AD
:10319000260400200EB500200090019002903448D3
:1031A0003449086081153348816001210173002191
:1031B00001754FF46021C16100202E49486007214C
:1031C0002C480161FDF788FD08B1FDF79DFA00204C
:1031D0000090012001900720029069462548FDF7E4
:1031E00037FC08B1FDF790FA012000900220019011
:1031F00069462048FDF72CFC08B1FDF785FA02204E
:1032000000900320019069461A48FDF721FC08B19F
:10321000FDF77AFA032000900420019069461548D2
:10322000FDF716FC08B1FDF76FFA042000900520A9
:10323000019069460F48FDF70BFC08B1FDF764FAF1
:10324000052000900620019069460A48FDF700FC21
:1032500008B1FDF759FA1020009007200190694647
:103260000448FDF7F5FB08B1FDF74EFA0EBD00006E
:1032700000240140B401002008B500BF0E48406999
:1032800040F001000C4948610846406900F0010027
:10329000009000BF00BF002211460B20FEF74CFB40
:1032A0000B20FEF739FB002211460D20FEF744FBF0
:1032B0000D20FEF731FB08BD0010024000B585B0BF
:1032C0000020019002900390049000BF664880693E
:1032D00040F01000644988610846806900F01000E1
:1032E000009000BF00BF00BF0846806940F020008A
:1032F00088610846806900F02000009000BF00BF90
:1033000000BF0846806940F0040088610846806973
:1033100000F00400009000BF00BF00BF08468069B5
:1033200040F0080088610846806900F008000090BD
:1033300000BF00BF00224FF400514C48FEF754FA82
:103340000022C0214A48FEF74FFA00224FF23F11F7
:103350004848FEF749FA4FF40050019001200290CE
:10336000002003900320049001A94048FEF79AF83A
:103370004FF44040019000200290039001A93B4887
:10338000FEF790F840200190012002900020039069
:103390000320049001A93648FEF784F880200190AC
:1033A00011200290002003900220049001A93048CF
:1033B000FEF778F80320019001200290002003908E
:1033C0000320049001A92B48FEF76CF84FF23C0053
:1033D000019001200290002003900220049001A996
:1033E0002448FEF75FF84FF48070019002200290AD
:1033F000049001A91E48FEF755F84FF49050019033
:10340000022002900320049001A91948FEF74AF80F
:103410004FF44060019000200290039001A91448ED
:10342000FEF740F84FF480700190112002900020C8
:1034300003900220049001A90E48FEF733F84FF4E0
:10344000007001900C4802900020039001A90948E7
:10345000FEF728F8002211461720FEF76DFA172014
:10346000FEF75AFA05B000BD0010024000100140FE
:1034700000080140000C01400000111000B58BB0A5
:1034800000200790089009900A90059006900190FE
:103490000290039004904FF0804023490860372049
:1034A00048600021204881604FF6FF71C160002113
:1034B00001618161FEF702FF08B1FDF725F94FF4C4
:1034C0008050079007A91848FEF7D2FF08B1FDF712
:1034D0001BF91548FFF7CFF808B1FDF715F90020E3
:1034E0000590069005A91048FEF7A6FE08B1FDF765
:1034F0000BF900200190012002900020039004901D
:10350000002201A90848FFF74CF808B1FDF7FCF8C4
:1035100002200290042201A90348FFF742F808B1F3
:10352000FDF7F2F80BB000BD2802002000B58DB009
:10353000002009900A900B900C90079008901C2195
:103540006846FCF7F8FD314831490860B42048600E
:1035500000212F4881604FF47A71C1600021016120
:103560008161FEF7ABFE08B1FDF7CEF84FF4805055
:10357000099009A92648FEF77BFF08B1FDF7C4F8BA
:103580002348FFF738FB08B1FDF7BEF82048FFF7E6
:1035900080FA08B1FDF7B8F800200790089007A955
:1035A0001B48FEF749FE08B1FDF7AEF86020009019
:1035B0000020019002900490002269461448FFF711
:1035C0009CFA08B1FDF7A0F8022002900422694697
:1035D0000F48FFF792FA08B1FDF796F80020009027
:1035E0000290082269460A48FFF71EFA08B1FDF763
:1035F0008BF80C2269460648FFF716FA08B1FDF76A
:1036000083F80348FFF7E4F90DB000BD000800405F
:103610007002002010B50B480B4908604FF4E130F0
:103620004860002108488160C16001610C2141614E
:1036300000218161C161FFF7A3FB08B1FDF764F8C8
:1036400010BD000000480040B802002000BFFEE7A7
:103650007047000040F6150001490968886370470B
:103660007002002010B50A480078072804D0012015
:10367000074981F8670009E00020054981F86700E3
:10368000FFF7C2FC00200249C86310BD00BFFCE781
:103690003801002010B5FEF7A3F910BD7047F8B54A
:1036A00006460F4614461D46FEF7A4F8009014F88F
:1036B000350038B90098304404EBC501486001205A
:1036C00004F8350004EBC50040680099884203D82F
:1036D000002004F83500B847F8BD0146502901DD47
:1036E000962000E00A20704708B508490968C90813
:1036F0004FF47A72B1FBF2F14143009100BF00BF79
:1037000000994A1E00920029F9D108BDB00100209D
:10371000704700000B4800880B49488209484088E0
:10372000C8830848808808830648C088888405487C
:103730000089088003484089C880024880898881C0
:1037400070470000180400202604002010B54FF434
:1037500080410448FEF736F808B9012010BD00206A
:10376000FCE70000000C014010B500210C48FFF7F9
:10377000EDFA0C4948610846806C886500200849CC
:1037800009684862074988640846006E401C08665C
:103790000846006E022802D3012081F8270010BDE0
:1037A00028020020380100207047884200D90846CE
:1037B0007047000010B50446012C05D100224103DA
:1037C0000448FEF711F804E0012251030148FEF716
:1037D0000BF810BD000C014010B540210148FDF769
:1037E000F9FF10BD0008014010B50446012C05D1B9
:1037F000002281030448FDF7F7FF04E00122910352
:103800000148FDF7F1FF10BD000C014010B5044662
:10381000012C05D1002241030448FDF7E5FF04E037
:10382000012251030148FDF7DFFF10BD000C0140EC
:1038300010B50446012C05D1002241030448FDF7D0
:10384000D3FF04E0012251030148FDF7CDFF10BD75
:103850000010014010B50446012C05D100220103DF
:103860000448FDF7C1FF04E0012211030148FDF700
:10387000BBFF10BD000C014010B50446012C05D162
:10388000002281030448FDF7AFFF04E00122910309
:103890000148FDF7A9FF10BD000C014010B5FDF770
:1038A000AFFF10BD00B593B0282109A8FCF743FC79
:1038B000142104A8FCF73FFC002000900190029026
:1038C00003900120099000040A9000200B90012031
:1038D0000D9002201090C10311914FF4E01112914C
:1038E00009A8FEF75BFA08B1FCF70EFF0F20049061
:1038F00002200590002006904FF4E0600790002021
:103900000890022104A8FEF713F908B1FCF7FCFEA9
:10391000022000904FF4404002906846FEF770F895
:1039200008B1FCF7F1FE13B000BD000011480068BB
:1039300040F001000F490860084640680E49084001
:103940000C494860084600680C490840094908606D
:103950000846006820F4802008600846406820F48B
:10396000FE0048604FF41F008860C80304490860E7
:1039700070470000001002400000FFF8FFFFF6FE55
:1039800008ED00E010B50248FEF756FF10BD00003C
:103990002802002010B50248FEF74EFF10BD0000BF
:1039A0007002002010B50268184B984208D0B0F1A0
:1039B000804F05D0164B984202D0164B984203D147
:1039C00022F070024B681A43104B984208D0B0F1B5
:1039D000804F05D00E4B984202D00E4B984203D137
:1039E00022F44072CB681A4322F080034C6943EA08
:1039F000040202608B68C3620B688362034B9842C7
:103A000001D10B6903630123436110BD002C014008
:103A1000000400400008004030B501F01F050124FB
:103A200004FA05F3046A9C430462046A01F01F056A
:103A300002FA05F52C43046230BD30B50C468168AE
:103A400021F47F4142EA032525432943816030BDAB
:103A50000A46816821F0700142F007031943816032
:103A60007047000030B5056A25F001050562026A5D
:103A70004368846924F0700424F003040D682C4327
:103A800022F002028D682A430D4DA84206D100BFE4
:103A900022F00802CD682A4322F00402084DA84211
:103AA00007D123F4807323F400734D692B438D6990
:103AB0002B43436084614D684563026230BD000062
:103AC000002C014030B5056A25F010050562026A38
:103AD0004368846924F4E04424F440740D6844EAA3
:103AE000052422F020028D6842EA05120E4DA842FC
:103AF00007D100BF22F08002CD6842EA051222F011
:103B00004002094DA84209D123F4806323F40063E5
:103B10004D6943EA85038D6943EA85034360846107
:103B20004D688563026230BD002C014030B5056AE6
:103B300025F480750562026A4368C46924F0700444
:103B400024F003040D682C4322F400728D6842EACD
:103B500005220F4DA84207D100BF22F40062CD68B4
:103B600042EA052222F48062094DA84209D123F4D9
:103B7000805323F400534D6943EA05138D6943EAEA
:103B800005134360C4614D68C563026230BD000027
:103B9000002C014030B5056A25F480550562036AA2
:103BA0004468C26922F4E04222F440720D6842EA9D
:103BB000052223F400538D6843EA0533064DA842DD
:103BC00004D124F480444D6944EA85144460C26100
:103BD0004D680564036230BD002C014030B50B46D2
:103BE0001446026A056A25F001050562816921F023
:103BF000F00141EA041122F00A021A4381610262D3
:103C000030BD000070B50C461546066A26F0010668
:103C100006628169026A124EB04208D0B0F1804F4C
:103C200005D0104EB04202D00F4EB04201D1012655
:103C300000E000261EB121F00301294301E041F01C
:103C4000010121F0F001F02606EA0316314322F0CB
:103C50000A0204F00A0632438161026270BD00006C
:103C6000002C0140000400400008004030B50B4625
:103C70001446056A25F0100505628169026A21F47F
:103C8000704141EA043122F0A00242EA031281614C
:103C9000026230BD70B50C461546066A26F0100665
:103CA00006628169026A21F4407141EA052121F42A
:103CB00070414FF4704606EA0336314322F0A00209
:103CC000A02606EA041632438161026270BD70B517
:103CD0000C461546066A26F480760662C169026AB9
:103CE00021F00301294321F0F001F02606EA031632
:103CF000314322F400724FF4007606EA0426324380
:103D0000C161026270BD70B50C461546066A26F4A4
:103D100080560662C169026A21F4407141EA0521B8
:103D200021F470414FF4704606EA0336314322F421
:103D300000524FF4005606EA04363243C161026273
:103D400070BD00000748408A064988820846808A7C
:103D50006421484340F6FF7190FBF1F001498875FA
:103D6000704700002604002010B53B48807D3B4989
:103D700091F82510401A40B2384981F824000846CD
:103D800090F924001E280EDD0120FFF73FFD334986
:103D900091F8240000F069FA304981F865000120AB
:103DA0002F49087013E02D4890F9240010F11E0FE0
:103DB0000DDA0120FFF74EFD284991F9240000F0AB
:103DC00051FA264981F865000120264908704FF410
:103DD0007A7225492248007800F07AF848B100202C
:103DE0001F490870FFF712FD64201C4981F8650027
:103DF00010E04FF47A721D491A48007800F068F814
:103E000040B1002017490870FFF724FD64201349D2
:103E100081F865001049897D052901DA012100E05A
:103E2000002108464FF47A72114900F051F848B168
:103E30000A48C088B0F5E16F04DD0020074981F829
:103E4000640003E00120054981F864000248807D98
:103E5000024981F8250010BD260400203801002009
:103E600005000020060000201C000020200000208B
:103E7000240000200548C08B9621484340F6FF717E
:103E800090FBF1F0014981F82200704726040020E0
:103E900010B5FFF73FFCFFF755FFFFF76DF9FFF790
:103EA0004DF9FCF723FCFFF7E5FFFCF74BFAFFF7B2
:103EB000A1F8FCF7BBFAFCF7B5FC10BD10B5FFF795
:103EC00063F810BD10B5FCF761FA00F0CBF810BD37
:103ED0002DE9F04105460C4616460027012D0CD170
:103EE000206818B9FDF786FC30442060FDF782FC9D
:103EF0002168884203D3012701E000202060384672
:103F0000BDE8F08170B5054600241FE004EB4400D5
:103F100055F82000C0B1FDF76DFC04EB440155F8E5
:103F20002110884210D3002004EB440145F8210001
:103F3000012004EB440105EB8101087104EB44010D
:103F400005EB810188688047601CC4B2102CDDDB62
:103F500070BD10B50020FFF72DFC0020FFF754F8CE
:103F600010BD000070B504462168096921F4405174
:103F7000E2681143226811612269A16811436269F4
:103F800041EA02052168C96841F20C629143294364
:103F90002268D1602168496921F44071A269114306
:103FA000226851612D4A2168914202D1FDF79CFEA1
:103FB00001E0FDF789FE00EBC00101EB0011626832
:103FC0009200B1FBF2F100EBC00202EB0012636859
:103FD0009B00B2FBF3F26423B2FBF3F202EBC203E9
:103FE00003EB0212A1EB8201322202EB01116422E7
:103FF000B1FBF2F101F0F00100EBC00202EB0012A4
:1040000063689B00B2FBF3F26423B2FBF3F201EBB3
:10401000021200EBC00101EB001163689B00B1FBD1
:10402000F3F100EBC00303EB00136668B600B3FBCB
:10403000F6F36426B3FBF6F303EBC30606EB0313B8
:10404000A1EB8301322303EB01116423B1FBF3F1F4
:1040500001F00F0111442268916070BD00380140E9
:1040600000BFFEE710B50C4A118850886422FCF7A7
:10407000CDFB094948800846408840F25B1148431F
:1040800000EB8010C0EBC000044990FBF1F0001D74
:104090000149087110BD000026040020187C3E0074
:1040A00010B50B4991F8280000F0ACF80949096DEA
:1040B000884208D9064991F8280000F0D9F8054946
:1040C00081F8660003E06420024981F8660010BDB3
:1040D000260400203801002002480068C0F30220B6
:1040E000704700000CED00E010B5002804DB0A0763
:1040F000130E054A135406E00A07140E034A00F093
:104100000F031B1FD45410BD00E400E018ED00E0C5
:1041100002E008C8121F08C1002AFAD17047704790
:10412000002001E001C1121F002AFBD170472DE9D8
:10413000F04107460C4616463B4607220021204622
:1041400000F025F80546681CA8B136F8100036F8CE
:104150001510401A615D791A4843691C615C625D03
:10416000891A90FBF1F036F8151008441FFA80F810
:104170004046BDE8F0812078B84201DD3088F8E79C
:10418000E079B84201DAF089F3E7FF20F1E770B592
:1041900004460D4616E0501B00EBD07605EB660694
:1041A000F1B2605C984205DC481C205C984201DB5F
:1041B00048B270BD605C984202DA481CC5B201E0AA
:1041C000481EC2B29542E6DD4FF0FF30F1E710B570
:1041D0000246002001EB410302EB83031B79012B14
:1041E0000FD1002301EB410402EB8404237101EBA6
:1041F000410442F8243001EB410402EB8404A36043
:10420000012010BD10B50446054AA2F12001204648
:10421000FFF78DFF034908800846008810BD0000A5
:104220008600002052000020014640F21450024A4D
:104230001080104600887047340000200246642039
:10424000704702466420704770B50446044AA2F1E4
:10425000C801204600F09CF80546284670BD0000C5
:104260002E010020014650207047014678207047FB
:1042700070B50446044AA2F14001204600F088F8D7
:104280000546284670BD0000A6000020FDF7C4FAD0
:10429000FFF708FBFFF712F8FEF7EEFFFFF7EEF867
:1042A000FFF744F9FEF776FFFFF7B4F900211E4847
:1042B000FEF716FA04211C48FEF712FA1A48FEF718
:1042C0009BF8FEF7F9FD072218491948FCF708FE8C
:1042D00000211848FEF7C4FC04211648FEF7C0FC74
:1042E00020E0154890F82700012805D1FCF7B2F925
:1042F0000020114981F827000023104A104914209A
:10430000FFF7CDF901230D4A0E496420FFF7C7F9E5
:1043100002230A4A0C494FF47A70FFF7C0F90B48A0
:10432000FFF7F0FDDDE70000280200201804002060
:10433000B40100207002002038010020400300205A
:10434000913E0008BD3E0008C53E0008580300200D
:1043500070B504460D4616E0501B00EBD07605EB19
:104360006606F1B2605C984205DC481C205C98420D
:1043700001DB48B270BD605C984202DA481CC5B2ED
:1043800001E0481EC2B29542E6DD4FF0FF30F1E792
:104390002DE9F04107460C4616463B460722002110
:1043A0002046FFF7D5FF0546681C98B1305C715D6B
:1043B000401A615D791A4843691C615C625D891A23
:1043C00090FBF1F0715D08441FFA80F808F0FF00DF
:1043D000BDE8F0812078B84201DD3078F8E7E07977
:1043E000B84201DAF079F3E7FF20F1E70020034952
:1043F00048600861888288617047000034000020AE
:104400002DE9F04104460D4616461F46FDF7F2F928
:10441000304405EB450144F8210005EB450004EB71
:1044200080008760002005EB450104EB81010871E5
:10443000BDE8F0810000000000000000010203045C
:104440000607080900000000010203046C4400088C
:1044500000000020B40100007001000814450008AD
:10446000B4010020BC0600002041000801346314A0
:1044700005165802E803140310E803D81C401FB0C7
:1044800004D007B80BAC0D941188137017581B0A91
:104490001E2D37506478964001101AC8AAA0968C39
:1044A000786932F401E803DC05C409A00F983AA842
:1044B0006160EA32123C1246125A1264129612FAE3
:1044C000480D2C0191877D736E645F5A3264015AE6
:1044D0002D085A28085A1E085A19085A14085A0F43
:1044E000085A05085A5A01590F092F0130090A14B0
:1044F0001E28323C46500324020164016464061FF6
:104500006428878432FB0A0A3D2901512A10104190
:044510001324F4007C
:04000005080000ED02
:00000001FF
