:020000040800F2
:10000000C8070020050100085D350008DD2E000846
:1000100059350008C1030008393F000800000000FE
:100020000000000000000000000000008136000811
:10003000110400080000000067350008753700084B
:100040001F0100085F3500081F0100081F0100089C
:10005000FB060008DD3500081F0100081F0100082D
:100060001F0100081F0100081F010008C503000848
:100070001F010008D50300081F0100081F01000828
:100080001F0100081F010008C90100081F01000826
:100090001F0100081F0100081F01000813040008C9
:1000A0001F0100081F0100081F0100081F010008B0
:1000B0005D3800081F0100086D3800081F010008A6
:1000C0001F0100081F0100081F0100081F01000890
:1000D0001F0100081F0100081F0100081F01000880
:1000E0001F0100081F0100081F010008DFF810D0E1
:1000F00000F02CF80048004755400008AFF300809E
:10010000C80700200648804706480047FEE7FEE78C
:10011000FEE7FEE7FEE7FEE7FEE7FEE7FEE7FEE7B7
:1001200005380008ED000008D2B201E000F8012B0C
:10013000491EFBD270470022F6E710B513460A4667
:1001400004461946FFF7F0FF204610BD064C074D48
:1001500006E0E06840F0010394E807009847103497
:10016000AC42F6D3FFF7C6FF6041000880410008AB
:1001700070B58C1810F8015B15F0070301D110F869
:10018000013B2A1106D110F8012B03E010F8016B96
:1001900001F8016B5B1EF9D12B0705D40023521E19
:1001A0000DD401F8013BFAE710F8013BCB1A921C81
:1001B00003E013F8015B01F8015B521EF9D5A1427F
:1001C000D8D3002070BD000010B5024800F007FD34
:1001D00010BD00003001002070B5044600252068E5
:1001E000806800F0010018B32068806820F00100EA
:1001F0002168886001F012FB054613E001F00EFB58
:10020000401B02280ED92068806800F0010048B128
:10021000A06A40F01000A062E06A40F00100E062D5
:10022000012070BD2068806800F001000028E5D141
:100230000020F6E770B505466C6AA06A00F0500031
:10024000E0B9A06A40F40070A0622068806800F401
:100250006020B0F5602F0DD1207B58B9A06A20F442
:100260008070A062A06A00F4805018B9A06A40F0C3
:100270000100A062204600F0AFFC03E0206A016BA1
:100280002846884770BD70B505466C6AA06A40F084
:100290004000A062E06A40F00400E062204600F006
:1002A0009DFC70BD70B50446656A284600F095FC5B
:1002B00070BD000038B5044600250020009020687D
:1002C000806800F0010078BB2068806840F0010081
:1002D00021688860194800681949B0FBF1F0009066
:1002E00002E00098401E009000980028F9D101F02B
:1002F00095FA054619E001F091FA401B022814D93D
:100300002068806800F0010078B9A06A40F0100011
:10031000A062E06A40F00100E06200BF002084F8C3
:10032000240000BF012038BD05E02068806800F08F
:1003300001000028DFD00020F5E700002C0100209C
:1003400040420F001048C0880F498988401A00B207
:100350000D4948810846B0F90A00962802DD0020C0
:1003600088700CE00848B0F90A0010F1960F03DA23
:1003700001200549887002E0022003498870024884
:10038000C0880149888070473400002000B50B49BF
:10039000B1F87400B42103F037FE084981F8760003
:1003A000084690F87600C0F1B400052190FBF1F00A
:1003B0001930024981F8770000BD000034000020A8
:1003C00000BFFEE710B5024800F05EFE10BD000061
:1003D0006001002010B5024800F056FE10BD00007C
:1003E0007802002030B590F840500124AC40C56B35
:1003F0006C60046863604468102C04D10468A260D7
:100400000468E16003E00468A1600468E26030BD54
:10041000704710B54FF4007001F04AF810BD0000AD
:1004200010B57D484078082879D2DFE800F0042C28
:100430003A44799BBDDC03F0F5F828B9012003F0BC
:100440003FF90120754908704FF4FA627449734806
:10045000007803F0AAFCA8B10020704908700120C0
:1004600003F014F940F2E93002F05CFD5A2003F089
:1004700099F804466B4A2146002003F049FE01200A
:1004800065494870C6E0002003F09EFD40B10020A1
:100490006149C880012003F037F902205E494870A5
:1004A000B8E05D48007A28B101205F490870032058
:1004B00059494870AEE05848C08840F24C418842E3
:1004C00015DD01205949087040F6B832584957489F
:1004D000007803F06AFC08B30020544908705449BE
:1004E000086003F011F905204B49487016E04A48AE
:1004F0008078012807D04FF4FA624E494A480078C4
:1005000003F053FC50B10020474908704949086086
:1005100001204949087004203F4948707AE078E09A
:100520003D48C088B0F5967F07DB40F2DC52434976
:100530004148007803F039FC98B100203E4908702A
:100540003E490860344890F84C00401C324981F81C
:100550004C000020C880012003F0D6F802202E496C
:10056000487057E02C48C088B0F5E16F03DD0620E5
:10057000294948700BE02848C08840F24C41884225
:1005800005DC04202449487001202B4908702248CA
:10059000007A40B900202049C880012003F0B4F857
:1005A00002201D49487035E01B48C08841F658318B
:1005B000884203DD07201849487007E01648C088C4
:1005C000B0F5E16F02DC0520134948701248007A4B
:1005D00040B900201049C880012003F095F802209E
:1005E0000D49487016E00C48C08841F62C2188421D
:1005F00002DC0620084948700748007A40B900200C
:100600000549C880012003F07FF8022002494870A4
:1006100000E000BF00BF10BD34000020000000203B
:10062000080000202D3E00080200002003000020EA
:1006300014000020100000200400002018000020FA
:1006400010B503F035F821484169806D01EB004099
:100650001E494861084640691D49884233D81B48F5
:10066000406941F2744188422DD3184840691949C4
:10067000B1FBF0F01549C8800846C088888008465C
:10068000C0888988401A00B210494881084680888D
:10069000C988B0EB410F08DA0C4880880B49C9883B
:1006A000C0EB41000949888102E0002007498881A8
:1006B000064880890549C88008468169C06D01EBFC
:1006C00000400249886102F0F3FF10BD34000020B1
:1006D0002FFC0B002F82AE040648B0F88400C0EB5C
:1006E000002040F6FF7190FBF1F0024981F887008D
:1006F0007047000034000020704710B500F016FE6F
:1007000010BD00000021074AD1610749096941F085
:100710000201054A116111464861096941F0400131
:1007200011617047A8030020002002400022054B01
:10073000DA61054A126942F00102034B1A61018035
:1007400070470000A80300200020024000201E493E
:10075000C96801F0100139B11C49C96941F00201B1
:100760001A4AD16140F010001749C96801F004012C
:1007700039B11649C96941F00101144AD16140F00B
:1007800004001149C96901F0010169B10F49C96942
:1007900041F004010D4AD16100BF0B49C96921F044
:1007A0000101094AD16100BF00BF40F20111884236
:1007B00006D10549C96921F00101034AD16101E06F
:1007C0000149C86000BF704700200240A803002014
:1007D00010B50421074802F0CDFA074988610846A0
:1007E000806CC8650846006E022802D3012081F89B
:1007F000270010BDA40100203400002010B59C4843
:100800004078022807D100209949C863C96B88B293
:1008100002F088FB2AE196484078032868D1944882
:1008200090F87B00462807DD00209149C863C96B1A
:1008300088B202F077FB19E18D4991F8870003F047
:10084000FCFB8B4991F87F1001EB81014900884A3C
:1008500092F832205143864A92F83120514348435E
:10086000834991F8831001F2111101EB4102C2EBAF
:10087000411190FBF1F07E49C8620846C06AC98800
:10088000484340F6B831B0FBF1F07949C8620846F8
:1008900090F8330091F8291048437549C96A42F22B
:1008A00010725143B1FBF0F0714948640846406C46
:1008B00088630846806B40F27711B0FBF1F06C4919
:1008C00008640846006C4FF4487148434FF47A714D
:1008D000B0FBF1F06649C863C86B4FF4487102F091
:1008E000D0FE6349C863C96B88B202F01BFBBDE050
:1008F0005F48407803288DDD5D4991F8870003F05B
:1009000093FB5B49096D884208D9594991F88700E2
:1009100003F09CFB564981F8660003E064205449CB
:1009200081F8660003F08AF951484078072804D01E
:1009300001204F4981F8670009E000204C4981F807
:100940006700C863C96B88B202F0ECFA10BD484A70
:10095000D18892F87F0003F06DFB454981F83000A3
:100960000A46D18892F87F0003F061FB404981F884
:1009700028000A4692F8731092F8280002F0D8FA7C
:100980003B4890F87F004FF47A714843384991F81A
:1009900032104843364991F830104843344991F8B1
:1009A000831001F2111101EB4102C2EB411190FBE6
:1009B000F1F02F49C8620846C06AC988484340F62A
:1009C000B831B0FBF1F02A49C862084690F833000C
:1009D00091F8281048432649C96A42F210725143DF
:1009E000B1FBF0F022494864084690F8660091F89F
:1009F000651048431E4991F8691048431C4991F815
:100A0000641048431A4991F8671048434FF47A71CB
:100A100090FBF1F01649A1F86A000846406CB1F865
:100A20006A1048434FF47A71B0FBF1F010498863C3
:100A30000846806B40F27711B0FBF1F00C49086476
:100A40000846006C4FF4487148434FF47A71B0FB8C
:100A5000F1F00749C863C86B4FF4487102F011FE0A
:100A60000349C863C96B88B202F05CFA00BF6DE746
:100A7000340000207047000038B5024600230020F3
:100A8000009000BF92F82400012801D1022038BD57
:100A9000012082F8240000BF4868072812D210689D
:100AA000406B0C79641E04EB84051F24AC40A0430A
:100AB0000D796D1E05EB85050C68AC40204314686C
:100AC000606327E048680D2812D21068006B0C792B
:100AD000E41F04EB84051F24AC40A0430D79ED1FF7
:100AE00005EB85050C68AC4020431468206311E0D9
:100AF0001068C06A0C790D3C04EB84051F24AC40DF
:100B0000A0430D790D3D05EB85050C68AC402043F5
:100B10001468E06208680A2812D31068C0680C786C
:100B20000A3C04EB44050724AC40A0430D780A3D81
:100B300005EB45058C68AC4020431468E0600FE08D
:100B4000106800690C7804EB44050724AC40A0430E
:100B50000D7805EB45058C68AC4020431468206196
:100B60000868102802D00868112827D1174C10688F
:100B7000A0421ED11068806800F40000F0B910682F
:100B8000806840F400001468A0600868102815D13F
:100B90000F4800680F4CB0FBF4F000EB8000400001
:100BA000009002E00098401E009000980028F9D1C3
:100BB00004E0906A40F020009062012300BF002012
:100BC00082F8240000BF184661E7000000240140BD
:100BD0002C01002040420F0070477047704710B54D
:100BE00004462068406800F0200020282FD12068AB
:100BF000006800F00200022829D1A06A00F010006D
:100C000018B9A06A40F40070A0622068806800F4FF
:100C10006020B0F5602F13D1207B88B92068406830
:100C200020F0200021684860A06A20F48070A06253
:100C3000A06A00F4805018B9A06A40F00100A062D8
:100C40002046FFF7C9FF6FF0120021680860206896
:100C5000406800F0800080283BD12068006800F0E8
:100C60000400042835D1A06A00F0100018B9A06A69
:100C700040F40050A0622068806800F4E040B0F5C5
:100C8000E04F0DD02068406800F48060D0B9206843
:100C9000806800F46020B0F5602F13D1207B88B904
:100CA0002068406820F0800021684860A06A20F435
:100CB0008050A062A06A00F4807018B9A06A40F069
:100CC0000100A0622046FFF7D5FE6FF00C002168FE
:100CD00008602068406800F0400040280FD120687C
:100CE000006800F0010050B1A06A40F48030A062BA
:100CF000204600F0A7F86FF001002168086010BDE1
:100D00002DE9F0410446002700250026A84614B925
:100D10000120BDE8F081A06810B1207D00B100BFC6
:100D2000A06A30B90020E06284F82400204600F078
:100D30008BF82046FFF750FA0746A06A00F0100033
:100D4000002873D1002F71D1A06A20F4885040F0A0
:100D50000200A062E16960680843217B40EA41002B
:100D60000643A068B0F5807F02D0A068012802D1B8
:100D70004FF4807000E000200543207D012811D150
:100D8000207B38B9A069401E4FF4006141EA403031
:100D9000054307E0A06A40F02000A062E06A40F04E
:100DA0000100E0622068406820F46940284321681F
:100DB0004860206880682149084030432168886085
:100DC000A068B0F5807F02D0A068012802D14FF45E
:100DD000807000E00020B0F5807F03D1208A401EA3
:100DE0004FEA00582068C06A20F4700040EA08000A
:100DF0002168C8622068806811490840B04208D163
:100E00000020E062A06A20F0020040F00100A06231
:100E100011E0A06A20F0020040F01000A062E06A39
:100E200040F00100E062012705E0FFE7A06A40F022
:100E30001000A062012738466BE70000FDF7E1FFD4
:100E4000FE0E1FFF7047000010B586B0044600205C
:100E5000029003900490059026492068884246D16C
:100E600000BF2548806940F4007023498861084626
:100E7000806900F40070019000BF00BF00BF084609
:100E8000806940F0040088610846806900F0040031
:100E9000019000BF00BF3F2002900320039002A9F1
:100EA000164800F013FB16481649086000204860F9
:100EB0000021144881608021C160490001618900DE
:100EC0004161202181610021C16100F0ABF908B1CD
:100ED000FFF712FC00BF0B482062446200BF0022F3
:100EE0001146122000F03CFD122000F029FD06B052
:100EF00010BD000000240140001002400008014025
:100F000008000240600100202DE9F04104460D4632
:100F10001646002757492068884203D05649206862
:100F2000884205D15348001D006800F4702000E09D
:100F3000002000287ED100BF94F82400012802D1AF
:100F40000220BDE8F081012084F8240000BF204683
:100F5000FFF7B0F90746002F6DD1A06A40F6016196
:100F6000884340F48070A06243492068884209D1D8
:100F70004048001D006800F4702008B9012002E01C
:100F8000002000E0012078B1A06A20F48010A06267
:100F90002068406800F4806000B3A06A20F400502C
:100FA00040F48050A06219E0A06A40F48010A06272
:100FB00030492068884203D02F492068884205D1F3
:100FC0002C48001D006800F4806000E0002028B17B
:100FD000A06A20F4005040F48050A062A06A00F49F
:100FE000805020B1E06A20F00600E06201E00020BD
:100FF000E06200BF002084F8240000BF1F48216A7F
:1010000088621F48216AC8621E48216A08636FF01F
:101010000200216808602068806840F480702168C0
:101020008860226802F14C0133462A46206A00F0AB
:101030002DF901E01AE014E02068806800F46020D7
:10104000B0F5602F06D12068806840F4A0002168C8
:1010500088600CE02068806840F480102168886017
:1010600005E000BF002084F8240000E00127384696
:1010700067E7000000240140002801403502000815
:10108000A50200088702000870B50446E06B0568F9
:101090002068066894F84010042088402840002802
:1010A00046D006F00400002842D02068006800F016
:1010B000200028B92068006820F00400216808603A
:1010C00057492068884201D1042027E0544914314F
:1010D0002068884201D1402020E051492831206811
:1010E000884201D1001519E04D493C312068884201
:1010F00002D14FF4804011E04949503120688842C4
:1011000002D14FF4802009E04549643120688842CB
:1011100002D14FF4800001E04FF08060404908396F
:101120004860E06A00287AD02046E16A884776E085
:1011300094F84010022088402840A0B306F0020036
:1011400088B32068006800F0200040B9206800687B
:1011500020F00A0021680860012084F8210030494D
:101160002068884201D1022028E02D4914312068EE
:10117000884201D1202021E0294928312068884275
:1011800001D140151AE026493C312068884202D13D
:101190004FF4005012E0224950312068884203D1B8
:1011A0004FF400300AE017E01D496431206888429E
:1011B00002D14FF4001001E04FF0007018490839D7
:1011C000486000BF002084F8200000BFA06A30B350
:1011D0002046A16A884722E094F840100820884001
:1011E0002840E0B106F00800C8B12068006820F08F
:1011F0000E002168086094F8401001208840E16BDF
:1012000048600120A06384F8210000BF002084F81A
:10121000200000BF206B10B12046216B884770BDB5
:10122000080002400146002209B901207047164B10
:101230000868C01A1423B0FBF3F080000864124859
:101240000838C863022081F821000868026843F664
:10125000F0708243D1E901031843CB6818430B694E
:1012600018434B6918438B691843CB6918430243F1
:101270000868026000208863012081F821000020B6
:1012800081F8200000BFD1E7080002402DE9F041BD
:1012900004460D4616461F464FF0000800BF94F85E
:1012A0002000012802D10220BDE8F081012084F84D
:1012B000200000BF94F8210001282CD1022084F8DE
:1012C00021000020A0632068006820F00100216850
:1012D00008603B46324629462046FFF783F8E06A1D
:1012E00030B12068006840F00E00216808600BE013
:1012F0002068006820F00400216808602068006809
:1013000040F00A00216808602068006840F0010091
:101310002168086006E000BF002084F8200000BFBC
:101320004FF002084046BFE77047000010B50024A8
:101330005C48C06800F0100020B95A48C06800F04E
:10134000040068B1584884684FF0FF3056498860FF
:10135000FFF7FCF9204600F0A9F800205249087078
:101360005048C06800F02000002828D000BF20208E
:101370004C49C86000BF4C48007800287ED04A48DD
:101380000078012827D148484068401E46494860F7
:1013900008464068A0B1084684682046FFF7C4FFAD
:1013A0004148806800F580643F4884603D4800699A
:1013B00020F002003B4908612046FFF7A3F95DE0F9
:1013C0004FF0FF30044638498860002008702046FE
:1013D000FFF7AAFF52E03448007802280CD13148C8
:1013E000006920F004002F4908610020FFF79CFFEE
:1013F00000202D49087041E02B484068401E2A49D2
:10140000486008464068D8B108468068801C8860FB
:101410000846846808694969000C40EA0140090CE3
:10142000214A106151611F48006920F001001D49E7
:1014300008611069526981B22046FFF777F91DE013
:1014400019480078032804D117498868FFF76CFF12
:101450000EE015480078042805D113498968881ED4
:10146000FFF762FF04E010498968881FFFF75CFFFF
:101470004FF0FF300C498860002008700A4800785F
:1014800078B90848006920F0070006490861084655
:10149000006920F4A050086100BF002002490876CE
:1014A00000BF10BD00200240A80300207047704715
:1014B00010B5044604480068204020B1024804608A
:1014C0002046FFF7F4FF10BD140401402DE9F84752
:1014D0000346002294466EE14FF0010808FA02F438
:1014E000D1F8008008EA0400A0427DD1DFF8DCA238
:1014F000D1F80480A8EB0A09D0453AD014DCB8F141
:10150000030F50D009DCB8F1000F31D0B8F1010F52
:101510001CD0B8F1020F49D120E0B8F1110F18D05A
:10152000B8F1120F42D11EE0B9F5881F25D006DCB4
:10153000B9F5803F20D0B9F5801F37D11AE0B9F551
:10154000001F18D0B9F5041F30D117E0D1F80CC036
:101550002DE0D1F80C8008F1040C28E0D1F80C80C3
:1015600008F1080C23E0D1F80C8008F10C0C1EE007
:1015700000BF00BF00BF00BF00BF00BFD1F80880A0
:10158000B8F1000F02D14FF0040C0BE0D1F8088045
:10159000B8F1010F03D14FF0080C1C6102E04FF0CD
:1015A000080C5C6103E04FF0000C00E000BF00BFDE
:1015B000FF2801D8984601E003F104084646FF28B9
:1015C00002D84FEA820803E0A2F108084FEA88082F
:1015D0004746D6F800804FF00F0909FA07F928EAC4
:1015E00009080CFA07F900E088E048EA0908C6F89B
:1015F0000080D1F8048008F08058B8F1805F7DD178
:1016000000BFDFF8CC81D8F8188048F00108DFF877
:10161000C091C9F81880C846D8F8188008F00108A9
:10162000CDF8008000BF00BF4FEAB9384FEA9209F9
:1016300058F829504FEA82784FEA18794FF00F088E
:1016400008FA09F825EA0805DFF88881434502D140
:101650004FF0000816E0DFF88081434502D14FF0DB
:1016600001080FE0DFF87481434502D14FF0020812
:1016700008E0DFF86C81434502D14FF0030801E038
:101680004FF004084FEA82794FEA197908FA09F80D
:1016900048EA0505DFF84C814FEA920948F82950DD
:1016A000D1F8048008F48038B8F5803F0AD1DFF81B
:1016B0003881D8F8008048EA0008DFF82C91C9F892
:1016C000008009E0DFF82081D8F8008028EA0008CF
:1016D000DFF81491C9F80080D1F8048008F40038CC
:1016E000B8F5003F10D1DFF8008108F10408D8F800
:1016F000008048EA0008DFF8F09000E05AE009F1C5
:101700000409C9F800800DE0DFF8DC8008F1040866
:10171000D8F8008028EA0008DFF8CC9009F1040925
:10172000C9F80080D1F8048008F48018B8F5801F4B
:101730000ED1DFF8B48008F10808D8F8008048EA34
:101740000008DFF8A49009F10809C9F800800DE04D
:10175000DFF8948008F10808D8F8008028EA00082B
:10176000DFF8849009F10809C9F80080D1F80480F5
:1017700008F40018B8F5001F0ED1DFF86C8008F1EE
:101780000C08D8F8008048EA0008DFF85C9009F1FE
:101790000C09C9F800800DE0DFF84C8008F10C0856
:1017A000D8F8008028EA0008DFF83C9009F10C091D
:1017B000C9F80080521CD1F8008028FA02F8B8F16C
:1017C000000F7FF489AEBDE8F8870000000011101B
:1017D0000010024000080140000C014000100140D0
:1017E00000140140080001400004014002469368D3
:1017F0000B400BB1012000E00020704710B5C2681B
:1018000021EA020302EA010443EA0443036110BD32
:101810000AB1016101E00B040361704701480068EF
:101820007047000020010020034800680349097840
:101830000844014908607047200100202801002069
:1018400010B50848006840F0100006490860032001
:1018500000F0C4F8022000F007F800F02BF8002098
:1018600010BD00000020024070B504460E4800780C
:101870004FF47A71B1FBF0F00C490968B1FBF0F557
:10188000284600F0D1FC08B1012070BD102C07D211
:1018900000222146501E00F063F80548046001E074
:1018A0000120F2E70020F0E7280100202C010020B1
:1018B0002401002008B500BF1F48806940F00100E6
:1018C0001D4988610846806900F00100009000BF52
:1018D00000BF00BF0846C06940F08050C86108469C
:1018E000C06900F08050009000BF00BF042000F0ED
:1018F00075F800221146012000F032F8012000F0B6
:101900001FF800221146042000F02AF8042000F0FD
:1019100017F800221146052000F022F8052000F0FB
:101920000FF800BF0549486820F0E06040F0007003
:10193000486000BF08BD00000010024000000140E8
:1019400001460846002809DB00F01F0301229A40E7
:1019500043099B0003F1E023C3F8002100BF704757
:101960002DE9F05F80460D461646002702F000FB89
:10197000074639462A46334601F00700C0F1070AF8
:10198000BAF1040F02D94FF0040A01E0C0F1070ACE
:10199000D14600F1040ABAF1070F02D24FF0000A53
:1019A00001E0A0F1030AD4464FF0010A0AFA09FA4D
:1019B000AAF1010A0AEA020A0AFA0CFA4FF0010B2C
:1019C0000BFA0CFBABF1010B0BEA030B4AEA0B041D
:1019D0002146404602F0D4FABDE8F09F00BF00F077
:1019E0000702064B19684FF6FF031940044B0B43DF
:1019F00043EA0221014B196000BF70470CED00E083
:101A00000000FA057047000010B50648006800F4B1
:101A1000803028B1FFF7F6FF4FF4803001490860AD
:101A200010BD000014040140F8B50446002600254E
:101A3000207800F0010000286BD000274348C069DF
:101A400000F0805070B900BF4048C06940F080503D
:101A50003E49C8610846C06900F08050009000BF50
:101A600000BF01273A48006800F48070B0B93848D8
:101A7000006840F4807036490860FFF7CFFE0646E4
:101A800006E0FFF7CBFE801B642801D90320F8BDD8
:101A90002F48006800F480700028F2D02B48006ABC
:101AA00000F440752DB3A08800F44070A84220D007
:101AB0002648006A20F4407501202649086000206D
:101AC00008602248056205F0010090B1FFF7A6FE0C
:101AD000064608E0FFF7A2FE801B41F288318842EB
:101AE00001D90320D3E71948006A00F0020000285A
:101AF000F0D01648006A20F440706168084313492A
:101B00000862012F04D10846C06920F08050C861E6
:101B100000BF207800F00200022807D10B4840687F
:101B200020F44040A168084308494860207800F04C
:101B30001000102807D10548406820F48000E168B3
:101B40000843024948600020A1E70000001002405D
:101B5000007000404004424270B504460D460CB986
:101B6000012070BD5A48006800F00700A8420ED25C
:101B70005748006820F00700284355490860084688
:101B8000006800F00700A84201D00120E9E72078B2
:101B900000F0020002281DD1207800F00400042883
:101BA00005D14C48406840F4E0604A4948602078DC
:101BB00000F00800082805D14648406840F460500D
:101BC000444948604348406820F0F000A168084359
:101BD00040494860207800F0010078B3606801282F
:101BE00006D13C48006800F4003090B90120B8E705
:101BF0006068022806D13748006800F0007040B9DC
:101C00000120AEE73348006800F0020008B9012067
:101C1000A7E73048406820F00300616808432D4979
:101C20004860FFF7FBFD064609E0FFF7F7FD801B64
:101C300041F28831884202D9032092E707E0254823
:101C4000406800F00C006168B0EB810FEDD12048D6
:101C5000006800F00700A8420ED91D48006820F077
:101C6000070028431A4908600846006800F007008A
:101C7000A84201D0012074E7207800F00400042875
:101C800007D11448406820F4E060E1680843114936
:101C90004860207800F00800082808D10D48406806
:101CA00020F46050216940EAC1000A49486000F010
:101CB0003FF808494968C1F30311074A515CC8401D
:101CC0000649086006480068FFF7CEFD002048E797
:101CD0000020024000100240484100082C01002072
:101CE0002401002001480068704700002C010020FA
:101CF00000B5FFF7F7FF04494968C1F30221034A21
:101D0000515CC84000BD000000100240584100086E
:101D100000B5FFF7E7FF04494968C1F3C221034A50
:101D2000515CC84000BD000000100240584100084E
:101D3000F0B585B00FF26C0C9CE8E01001A8A0E8AB
:101D4000E0101CA52D68009500210022002300242E
:101D50000020194D696801F00C05F5B1042D02D081
:101D6000082D19D101E0154819E001ADC1F38346F2
:101D7000AC5D01F4803555B10F4D6D68C5F340453C
:101D80001DF805200D4D6543B5FBF2F302E00C4D47
:101D900004FB05F3184602E000BF084800BF00BF7F
:101DA00005B0F0BD02030405060708090A0B0C0D77
:101DB0000E0F1010010200000010024000127A0005
:101DC00000093D00F8B504460CB90120F8BD2078A3
:101DD00000F00100002878D0F848406800F00C00BE
:101DE00004280CD0F548406800F00C00082811D1F8
:101DF000F248406800F48030B0F5803F0AD1EF48E7
:101E0000006800F4003000285FD0606800285CD1D2
:101E10000120DBE700BF6068B0F5803F06D1E748EE
:101E2000006840F48030E549086028E0606858B9EF
:101E3000E248006820F48030E04908600846006805
:101E400020F4802008601AE06068B0F5A02F0BD164
:101E5000DA48006840F48020D849086008460068E5
:101E600040F4803008600AE0D448006820F48030F4
:101E7000D24908600846006820F48020086000BF4E
:101E8000606888B1FFF7CAFC054606E0FFF7C6FCAC
:101E9000401B642801D9032098E7C848006800F473
:101EA00000300028F2D010E0FFF7B8FC054606E04D
:101EB000FFF7B4FC401B642801D9032086E7BF4824
:101EC000006800F400300028F2D1207800F0020011
:101ED000022857D1B948406800F00C0050B1B7480B
:101EE000406800F00C00082818D1B448406800F49D
:101EF000803098B9B148006800F0020020B1206934
:101F0000012801D0012061E7AC48006820F0F8000A
:101F1000616940EAC100A949086033E02069E8B17D
:101F20000120A7490860FFF779FC054606E0FFF7A6
:101F300075FC401B022801D9032047E79F48006831
:101F400000F002000028F2D09C48006820F0F80061
:101F5000616940EAC1009949086013E0002098498E
:101F60000860FFF75BFC054606E0FFF757FC401BE7
:101F7000022801D9032029E79048006800F00200F8
:101F80000028F2D1207800F0080008282DD1A0699F
:101F9000B8B101208B490860FFF740FC054606E018
:101FA000FFF73CFC401B022801D903200EE78348C1
:101FB000406A00F002000028F2D0012001F0FAFA95
:101FC00013E000207F490860FFF728FC054606E083
:101FD000FFF724FC401B022801D90320F6E67748CE
:101FE000406A00F002000028F2D1207800F00400DE
:101FF000042873D100277148C06900F0805070B97F
:1020000000BF6E48C06940F080506C49C861084606
:10201000C06900F08050009000BF00BF01276A48EF
:10202000006800F48070B0B96748006840F48070C0
:1020300065490860FFF7F2FB054606E0FFF7EEFB97
:10204000401B642801D90320C0E65F48006800F403
:1020500080700028F2D000BFE068012806D1574800
:10206000006A40F001005549086227E0E06858B96D
:102070005248006A20F00100504908620846006A90
:1020800020F00400086219E0E06805280BD14B48F5
:10209000006A40F00400494908620846006A40F0BE
:1020A000010008620AE04548006A20F00100434947
:1020B00008620846006A20F00400086200BFE06879
:1020C000A0B1FFF7ABFB054609E0FFF7A7FB401BFC
:1020D00041F28831884202D9032077E622E037486E
:1020E000006A00F002000028EFD012E0FFF796FB34
:1020F000054608E0FFF792FB401B41F28831884219
:1021000001D9032062E62D48006A00F00200002891
:10211000F0D1012F05D12948C06920F0805027490E
:10212000C86100BFE069C8B32448406800F00C00F3
:10213000082860D0E069022848D1002020490866BC
:10214000FFF76CFB054606E0FFF768FB401B022823
:1021500001D903203AE61948006800F00070002811
:10216000F2D1206AB0F5803F07D11448406820F4CE
:102170000030A168084311494860D4E908010843C8
:102180000E49496821F4741108430C494860012044
:102190000B490866FFF742FB054607E03DE0FFF705
:1021A0003DFB401B022801D903200FE603480068CD
:1021B00000F000700028F2D02FE000000010024074
:1021C0000000424280044242007000400020144956
:1021D0000866FFF723FB054606E0FFF71FFB401BE1
:1021E000022801D90320F1E50E48006800F00070D4
:1021F0000028F2D111E0E069012800D1E6E50948A4
:10220000466806F48031206A814204D106F47011D8
:10221000606A814201D00120D8E50020D6E50000A7
:10222000000042420010024070B504462546681E78
:10223000B0F1807F01D301200FE0681E4FF0E02154
:1022400048610F214FF0FF3001F09AFE00204FF05F
:10225000E021886107200861002070BD7047704749
:1022600030B502460B4600BF92F83C00012801D170
:10227000022030BD012082F83C0000BF022082F81D
:102280003D00106844681068816824F07004186884
:10229000044310684460104D1068A8420BD01068C9
:1022A000B0F1804F07D00D4D1068A84203D00C4DFF
:1022B0001068A84205D121F08001586801431068D8
:1022C0008160012082F83D0000BF002082F83C00C0
:1022D00000BF00BFCDE70000002C0140000400401B
:1022E0000008004010B504460CB9012010BD94F858
:1022F0003D0028B9002084F83C00204600F026F874
:10230000022084F83D00211D206801F0B7FA012069
:1023100084F8460000BF84F83E0001213F200155AB
:10232000402001554120015500BF00BF012084F825
:10233000420043200155442001554520015500BF6E
:10234000012084F83D000020D0E7000010B586B0E1
:102350000446002002900390049005902068B0F19C
:10236000804F39D100BF2A48C06940F00100284998
:10237000C8610846C06900F00100019000BF00BFBD
:1023800000BF0846806940F0040088610846806903
:1023900000F00400019000BF00BF4FF40040029025
:1023A000002003900120049002A91A48FFF78EF83C
:1023B00000BF1949486820F4407040F0E06040F4E4
:1023C0008070486000BF002211461C20FFF7C8FA49
:1023D0001C20FFF7B5FA19E010492068884215D192
:1023E00000BF0B48C06940F004000949C8610846B5
:1023F000C06900F00400019000BF00BF002201216D
:102400001E20FFF7ADFA1E20FFF79AFA06B010BDA6
:102410000010024000080140000001400008004098
:10242000014691F83D00012801D0012070470220AB
:1024300081F83D000868C06840F001000B68D86072
:10244000124B086898420BD00868B0F1804F07D053
:102450000F4B0868984203D00E4B086898420CD185
:102460000868806800F00702062A0CD00868006837
:1024700040F001000B68186005E00868006840F053
:1024800001000B6818600020D0E70000002C01401C
:1024900000040040000800402DE9F04104460D46CC
:1024A00000BF94F83C00012802D10220BDE8F08171
:1024B000012084F83C0000BF022084F83D00206821
:1024C000866826F0770626F47F46206886602868AE
:1024D000502833D00CDC202850D004DC00284BD00E
:1024E000102851D149E0302849D040284CD139E05A
:1024F00060282DD0702807D0B0F5805F03D0B0F5EC
:10250000005F41D10DE040E0D5E902136A68206820
:1025100001F0FFF92068866846F07706206886603B
:1025200033E0D5E902136A68206801F0F2F9206807
:10253000806840F480402168886026E0EA68696825
:10254000206801F0B7FA5021206801F0EDF91CE095
:10255000EA686968206801F0F5FA6021206801F0F6
:10256000E3F912E0EA686968206801F0A3FA402103
:10257000206801F0D9F908E000BF00BF00BF29685A
:10258000206801F0D1F900E000BF00BF012084F80D
:102590003D0000BF002084F83C0000BF00BF85E77D
:1025A00010B504462068B0F1804F04D1207F012887
:1025B00001D101F045F82068B0F1804F04D1207FAF
:1025C000022801D1FEF704F910BD2DE9F0410446BF
:1025D0000D46164600BF94F83C00012802D10220A7
:1025E000BDE8F081012084F83C0000BF96B9EB689B
:1025F000D5E90012206801F071FA2068806920F0A6
:102600000C002168886120688069A96808432168F6
:1026100088613DE0042E13D1EB68D5E900122068F3
:1026200001F0A4FA2068806920F440602168886184
:1026300020688069A96840EA01202168886127E054
:10264000082E12D1EB68D5E90012206801F0ABFA30
:102650002068C06920F00C002168C8612068C0694A
:10266000A96808432168C86112E0EB68D5E9001247
:10267000206801F0B4FA2068C06920F44060216845
:10268000C8612068C069A96840EA01202168C86162
:1026900000BF002084F83C0000BF00BFA0E710B5D9
:1026A00004460CB9012010BD94F83D0028B9002063
:1026B00084F83C00204600F025F8022084F83D0014
:1026C000211D206801F0DAF8012084F8460000BFDF
:1026D00084F83E0001213F20015540200155412052
:1026E000015500BF00BF012084F84200432001557E
:1026F000442001554520015500BF012084F83D00CC
:102700000020D0E7704700002DE9F04104460D4657
:1027100015B994F83E000BE0042D02D13F20005D76
:1027200006E0082D02D14020005D01E04120005D5F
:10273000074615B994F842000BE0042D02D143205E
:10274000005D06E0082D02D14420005D01E0452037
:10275000005D8046012F02D1B8F1010F02D00120A7
:10276000BDE8F0811DB9022084F83E000EE0042D82
:1027700003D102213F20015508E0082D03D1022199
:102780004020015502E00221412001551DB90220DF
:1027900084F842000EE0042D03D1022143200155AC
:1027A00008E0082D03D102214420015502E0022156
:1027B0004520015535B1042D0BD0082D10D00C2D1E
:1027C0001CD114E02068C06840F002002168C86095
:1027D00015E02068C06840F004002168C8600EE081
:1027E0002068C06840F008002168C86007E02068E1
:1027F000C06840F010002168C86000E000BF00BF62
:1028000001222946206801F073F8124920688842A5
:102810000BD02068B0F1804F07D00F492068884264
:1028200003D00E49206888420CD12068806800F0EF
:102830000706062E0CD02068006840F001002168D1
:10284000086005E02068006840F001002168086029
:10285000002085E7002C01400004004000080040F3
:1028600010B5044620680069C0F34000D8B1206864
:10287000C068C0F34000B0B16FF002002168086189
:10288000012020772068806900F0030018B12046FD
:10289000FFF786FE05E0204600F00EF9204600F026
:1028A000F2F90020207720680069C0F38000D8B1D9
:1028B0002068C068C0F38000B0B16FF004002168E8
:1028C0000861022020772068806900F4407018B108
:1028D0002046FFF765FE05E0204600F0EDF82046B3
:1028E00000F0D1F90020207720680069C0F3C00013
:1028F000D8B12068C068C0F3C000B0B16FF0080064
:1029000021680861042020772068C06900F0030076
:1029100018B12046FFF744FE05E0204600F0CCF851
:10292000204600F0B0F90020207720680069C0F34D
:102930000010D8B12068C068C0F30010B0B16FF0CB
:10294000100021680861082020772068C06900F421
:10295000407018B12046FFF723FE05E0204600F046
:10296000ABF8204600F08FF900202077206800693E
:1029700000F0010058B12068C06800F0010030B1DB
:102980006FF0010021680861204600F0E7F9206837
:102990000069C0F3C01058B12068C068C0F3C0100F
:1029A00030B16FF08000216808612046FFF756FCC7
:1029B00020680069C0F3801058B12068C068C0F377
:1029C000801030B16FF0400021680861204600F0AF
:1029D000EAF920680069C0F3401058B12068C06867
:1029E000C0F3401030B16FF020002168086120462C
:1029F000FFF735FC10BD000010B586B0044600207E
:102A000002900390049005900E492068884216D1E8
:102A100000BF0D48806940F008000B4988610846F6
:102A2000806900F00800019000BF00BF40200290C4
:102A300002200390059002A90448FEF747FD06B066
:102A400010BD00000008004000100240000C0140D2
:102A500070B504460E46154600BF94F83C000128A8
:102A600001D1022070BD012084F83C0000BF35B1C7
:102A7000042D09D0082D0CD00C2D14D10EE03146B8
:102A8000206800F05BFF0FE03146206800F086FF11
:102A90000AE03146206800F0B5FF05E031462068C5
:102AA00000F0E4FF00E000BF00BF00BF002084F89A
:102AB0003C0000BF00BFD5E7704710B504460CB915
:102AC000012010BD94F83D0028B9002084F83C0096
:102AD000204600F025F8022084F83D00211D2068E2
:102AE00000F0CCFE012084F8460000BF84F83E00D0
:102AF00001213F200155402001554120015500BFD3
:102B000000BF012084F842004320015544200155B4
:102B10004520015500BF012084F83D000020D0E78A
:102B2000704770B504460D46164600BF94F83C0049
:102B3000012801D1022070BD012084F83C0000BFB3
:102B400036B1042E1BD0082E31D00C2E5ED145E0BC
:102B50002946206800F0F2FE2068806940F00800F5
:102B6000216888612068806920F0040021688861FC
:102B700020688069296908432168886147E02946FF
:102B8000206800F00BFF2068806940F40060216835
:102B900088612068806920F48060216888612068ED
:102BA0008069296940EA0120216888612FE029466F
:102BB000206800F027FF2068C06940F00800216805
:102BC000C8612068C06920F004002168C8612068DD
:102BD000C069296908432168C86118E0294620684E
:102BE00000F044FF2068C06940F400602168C861BB
:102BF0002068C06920F480602168C8612068C069CD
:102C0000296940EA01202168C86100E000BF00BFD7
:102C100000BF002084F83C0000BF00BF8BE710B568
:102C200004460CB9012010BD94F83D0028B90020DD
:102C300084F83C00204600F025F8022084F83D008E
:102C4000211D206800F01AFE012084F8460000BF14
:102C500084F83E0001213F200155402001554120CC
:102C6000015500BF00BF012084F8420043200155F8
:102C7000442001554520015500BF012084F83D0046
:102C80000020D0E77047704770B504460D4615B96F
:102C900094F83E000BE0042D02D13F20005D06E0D9
:102CA000082D02D14020005D01E04120005D012897
:102CB00001D0012070BD1DB9022084F83E000EE055
:102CC000042D03D102213F20015508E0082D03D136
:102CD00002214020015502E002214120015501223C
:102CE0002946206800F004FE19492068884201D175
:102CF000012000E0002028B12068406C40F4004032
:102D0000216848641249206888420BD02068B0F1DD
:102D1000804F07D00F492068884203D00E492068B1
:102D200088420CD12068806800F00706062E0CD07F
:102D30002068006840F001002168086005E0206814
:102D4000006840F00100216808600020B2E7000040
:102D5000002C014000040040000800400168B1F16F
:102D6000804F04D10249896C491C014A9164704723
:102D7000340000200246002031B1042907D0082980
:102D800008D00C290CD108E01368586B09E01368CF
:102D9000986B06E01368D86B03E01368186C00E0CA
:102DA00000BF00BF7047704710B504460CB9012042
:102DB00010BDA06900B100E000BF94F83D0028B943
:102DC000002084F83C00204600F028F8242084F8F5
:102DD0003D002068C06820F400502168C86020468B
:102DE00001F02CF82068006920F490402168086107
:102DF0002068406920F02A00216848612068C06886
:102E000040F400502168C86000202064202084F82D
:102E10003D0084F83E000020CAE7000010B586B0EF
:102E200004460020029003900490059026492068F3
:102E3000884247D100BF2548C06940F4802023491B
:102E4000C8610846C06900F48020019000BF00BF3F
:102E500000BF0846806940F0080088610846806924
:102E600000F00800019000BF00BF0815029002208A
:102E700003900320059002A91548FEF727FB4FF4A5
:102E80000060029000200390049002A91048FEF711
:102E90001DFB1048104908600020486000210E48C2
:102EA00081608021C1600021016141618161C16156
:102EB000FEF7B8F908B1FDF71FFC00BF0648A06394
:102EC000446200BF06B010BD004800400010024040
:102ED000000C0140300002407802002000BFFEE7F5
:102EE00010B5002000F010FC002000F01FFC0020B6
:102EF00000F0F8FB002000F02BFC002000F0E0FBCD
:102F0000002000F0C3FB002000F00CF810BD000012
:102F1000024800880249888670470000D8000020D7
:102F2000340000200149096848637047EC01002023
:102F3000454A12782AB1454A127812B9444A1278A1
:102F400002B17047404A92F87320462A04DD0022FD
:102F50003D4B83F826200DE03B4A92F873201E2A51
:102F600004DA0122384B83F8262003E00222364B94
:102F700083F82620642804D1334A92F82620022AB6
:102F800004D16422304B83F86920DAE72E4A92F8A4
:102F90002620304B1B789A4203D064222A4B83F8B8
:102FA0006920294A92F8262012B1012A42D120E054
:102FB000254A92F869205A2A13DC234A92F85520B0
:102FC0003AB90A22204B83F85520642283F86920FD
:102FD0000EE01D4A92F85520521E1B4B83F85520D7
:102FE00006E0194A92F86920521E174B83F86920AF
:102FF00021E0154A92F869206E2A13DB124A92F8F2
:1030000054203AB90A22104B83F85420642283F8E2
:1030100069200EE00C4A92F85420521E0A4B83F8A5
:10302000542006E0084A92F86920521C064B83F8A7
:10303000692000E000BF00BF034A92F82620054B3C
:103040001A7000BF7DE7000034000020050000205A
:1030500006000020140100200648B0F87C0064211E
:10306000484340F6FF7190FBF1F0024981F873008C
:1030700070470000340000200748B0F87C0064214D
:10308000484340F6FF7190FBF1F0034981F87F005F
:10309000652081F87F007047340000200EB50020C5
:1030A00000900190029034483449086081153348FB
:1030B000816001210173002101754FF46021C1611C
:1030C00000202E49486007212C480161FDF718FEB9
:1030D00008B1FDF711FB00200090012001900720AE
:1030E000029069462548FDF7C7FC08B1FDF704FBCF
:1030F000012000900220019069462048FDF7BCFCA9
:1031000008B1FDF7F9FA022000900320019069460A
:103110001A48FDF7B1FC08B1FDF7EEFA0320009064
:103120000420019069461548FDF7A6FC08B1FDF79B
:10313000E3FA042000900520019069460F48FDF74E
:103140009BFC08B1FDF7D8FA0520009006200190FD
:1031500069460A48FDF790FC08B1FDF7CDFA10204A
:1031600000900720019069460448FDF785FC08B1EE
:10317000FDF7C2FA0EBD000000240140300100201E
:1031800008B500BF0E48406940F001000C49486195
:103190000846406900F00100009000BF00BF002217
:1031A00011460B20FEF7DCFB0B20FEF7C9FB0022CB
:1031B00011460D20FEF7D4FB0D20FEF7C1FB08BD24
:1031C0000010024000B585B00020019002900390ED
:1031D000049000BF6648806940F01000644988612F
:1031E0000846806900F01000009000BF00BF00BFDB
:1031F0000846806940F0200088610846806900F038
:103200002000009000BF00BF00BF0846806940F06A
:10321000040088610846806900F00400009000BF47
:1032200000BF00BF0846806940F00800886108467A
:10323000806900F00800009000BF00BF00224FF43A
:1032400000514C48FEF7E4FA0022C0214A48FEF73C
:10325000DFFA00224FF2BF114848FEF7D9FA4FF4C7
:103260000050019001200290002003900320049060
:1032700001A94048FEF72AF94FF440400190002090
:103280000290039001A93B48FEF720F940200190ED
:1032900001200290002003900320049001A93648E9
:1032A000FEF714F980200190112002900020039075
:1032B0000220049001A93048FEF708F9032001908C
:1032C00001200290002003900320049001A92B48C4
:1032D000FEF7FCF84FF2BC000190012002900020A4
:1032E00003900220049001A92448FEF7EFF84FF460
:1032F0008070019002200290049001A91E48FEF700
:10330000E5F84FF4905001900220029003200490C1
:1033100001A91948FEF7DAF84FF440600190002047
:103320000290039001A91448FEF7D0F84FF4807082
:10333000019011200290002003900220049001A926
:103340000E48FEF7C3F84FF4007001900C4802904D
:103350000020039001A90948FEF7B8F800221146A1
:103360001720FEF7FDFA1720FEF7EAFA05B000BDB8
:10337000001002400010014000080140000C014014
:103380000000111000B58BB0002007900890099044
:103390000A900590069001900290039004904FF0DF
:1033A0008040234908603720486000212048816020
:1033B0004FF6FF71C160002101618161FEF792FF4C
:1033C00008B1FDF799F94FF48050079007A9184804
:1033D000FFF762F808B1FDF78FF91548FFF75FF9BD
:1033E00008B1FDF789F900200590069005A910485D
:1033F000FEF736FF08B1FDF77FF9002001900120AC
:103400000290002003900490002201A90848FFF7D1
:10341000DCF808B1FDF770F902200290042201A93E
:103420000348FFF7D2F808B1FDF766F90BB000BD0D
:10343000A401002000B58DB0002009900A900B90E7
:103440000C90079008901C216846FCF774FE3248E7
:1034500032490860B42048600021304881604FF450
:103460007A71C160002101618161FEF73BFF08B103
:10347000FDF742F94FF48050099009A92748FFF75A
:103480000BF808B1FDF738F92448FFF7C8FB08B17D
:10349000FDF732F92148FFF710FB08B1FDF72CF9D1
:1034A00000200790089007A91C48FEF7D9FE08B134
:1034B000FDF722F960200090002001900290049016
:1034C000002269461548FFF72CFB08B1FDF714F9F7
:1034D0001020009002200290042269460F48FFF756
:1034E000B7FA08B1FDF708F9002000900290082211
:1034F00069460A48FFF7ACFA08B1FDF7FDF80C225F
:1035000069460648FFF7A4FA08B1FDF7F5F8034845
:10351000FFF772FA0DB000BD00080040EC0100207A
:1035200010B50B480B4908604FF4E13048600021AA
:1035300008488160C16001610C2141610021816105
:10354000C161FFF731FC08B1FDF7D6F810BD0000EE
:10355000004800403402002000BFFEE7704710B56D
:10356000FEF752FA10BD7047F8B506460F461446EE
:103570001D46FEF753F9009014F8350038B900984D
:10358000304404EBC5014860012004F8350004EB29
:10359000C50040680099884203D8002004F835002F
:1035A000B847F8BD0146502901DD962000E00A2009
:1035B0007047000008B508490968C9084FF47A72D5
:1035C000B1FBF2F14143009100BF00BF00994A1ED8
:1035D00000920029F9D108BD2C010020704700009D
:1035E0000E4800880E49A1F878000C484088A1F8E0
:1035F00080000A488088A1F87C000848C088A1F8AB
:10360000840006480089A1F86C0004484089A1F8AC
:10361000700002488089A1F874007047940300206C
:103620003400002010B54FF480410448FEF7DEF866
:1036300008B9012010BD0020FCE70000000C01408B
:1036400010B500210C48FFF795FB0C49486108466E
:10365000806C8865002008490968486207498864C9
:103660000846006E401C08660846006E022802D319
:10367000012081F8270010BDA401002034000020A3
:103680007047884200D908467047000010B50446CC
:10369000012C05D1002241030448FEF7B9F804E0EB
:1036A000012251030148FEF7B3F810BD000C0140A0
:1036B00010B540210148FEF7A1F810BD00080140F7
:1036C00010B50446012C05D1002281030448FEF701
:1036D0009FF804E0012291030148FEF799F810BD1C
:1036E000000C014010B50446012C05D10022410315
:1036F0000448FEF78DF804E0012251030148FEF76B
:1037000087F810BD000C014010B50446012C05D10E
:10371000002241030448FEF77BF804E00122510334
:103720000148FEF775F810BD0010014010B50446C1
:10373000012C05D1002201030448FEF769F804E0DA
:10374000012211030148FEF763F810BD000C01408F
:1037500010B50446012C05D1002281030448FEF770
:1037600057F804E0012291030148FEF751F810BD1B
:10377000000C014010B5FEF757F810BD00B593B02E
:10378000282109A8FCF7D7FC142104A8FCF7D3FCD6
:103790000020009001900290039001200990000405
:1037A0000A9000200B9001200D9002201090C10380
:1037B00011914FF4E011129109A8FEF703FB08B133
:1037C000FCF79AFF0F20049002200590002006903D
:1037D0004FF4E060079000200890022104A8FEF753
:1037E000BBF908B1FCF788FF022000904FF440407D
:1037F00002906846FEF718F908B1FCF77DFF13B098
:1038000000BD00001148006840F001000F49086049
:10381000084640680E4908400C4948600846006860
:103820000C490840094908600846006820F48020D7
:1038300008600846406820F4FE0048604FF41F000E
:103840008860C80304490860704700000010024007
:103850000000FFF8FFFFF6FE08ED00E010B502489B
:10386000FEF7FEFF10BD0000A401002010B50248C5
:10387000FEF7F6FF10BD0000EC01002010B5026855
:10388000184B984208D0B0F1804F05D0164B9842A3
:1038900002D0164B984203D122F070024B681A43B3
:1038A000104B984208D0B0F1804F05D00E4B984293
:1038B00002D00E4B984203D122F44072CB681A43D7
:1038C00022F080034C6943EA040202608B68C36201
:1038D0000B688362034B984201D10B690363012398
:1038E000436110BD002C014000040040000800406E
:1038F00030B501F01F05012404FA05F3046A9C4366
:103900000462046A01F01F0502FA05F52C43046203
:1039100030BD30B50C46816821F47F4142EA032571
:1039200025432943816030BD0A46816821F070013A
:1039300042F00703194381607047000030B5056A03
:1039400025F001050562026A4368846924F0700469
:1039500024F003040D682C4322F002028D682A43F0
:103960000D4DA84206D100BF22F00802CD682A43BF
:1039700022F00402084DA84207D123F4807323F4F7
:1039800000734D692B438D692B43436084614D68FF
:103990004563026230BD0000002C014030B5056A6D
:1039A00025F010050562026A4368846924F4E04446
:1039B00024F440740D6844EA052422F020028D6846
:1039C00042EA05120E4DA84207D100BF22F0800244
:1039D000CD6842EA051222F04002094DA84209D101
:1039E00023F4806323F400634D6943EA85038D6902
:1039F00043EA8503436084614D688563026230BD9C
:103A0000002C014030B5056A25F480750562026A14
:103A10004368C46924F0700424F003040D682C4347
:103A200022F400728D6842EA05220F4DA84207D1A8
:103A300000BF22F40062CD6842EA052222F48062CF
:103A4000094DA84209D123F4805323F400534D6952
:103A500043EA05138D6943EA05134360C4614D6869
:103A6000C563026230BD0000002C014030B5056A1C
:103A700025F480550562036A4468C26922F4E04275
:103A800022F440720D6842EA052223F400538D6847
:103A900043EA0533064DA84204D124F480444D691D
:103AA00044EA85144460C2614D680564036230BD18
:103AB000002C014030B50B461446026A056A25F019
:103AC00001050562816921F0F00141EA041122F04B
:103AD0000A021A438161026230BD000070B50C46D3
:103AE0001546066A26F0010606628169026A124ED0
:103AF000B04208D0B0F1804F05D0104EB04202D095
:103B00000F4EB04201D1012600E000261EB121F087
:103B10000301294301E041F0010121F0F001F02609
:103B200006EA0316314322F00A0204F00A06324381
:103B30008161026270BD0000002C01400004004061
:103B40000008004030B50B461446056A25F0100504
:103B500005628169026A21F4704141EA043122F070
:103B6000A00242EA03128161026230BD70B50C46C8
:103B70001546066A26F0100606628169026A21F47B
:103B8000407141EA052121F470414FF4704606EA84
:103B90000336314322F0A002A02606EA041632437F
:103BA0008161026270BD70B50C461546066A26F446
:103BB00080760662C169026A21F00301294321F07F
:103BC000F001F02606EA0316314322F400724FF4A6
:103BD000007606EA04263243C161026270BD70B508
:103BE0000C461546066A26F480560662C169026ACA
:103BF00021F4407141EA052121F470414FF47046EF
:103C000006EA0336314322F400524FF4005606EA26
:103C100004363243C161026270BD00000648B0F84C
:103C200078006421484340F6FF7190FBF1F00249AF
:103C300081F87B00704700003400002010B53D483B
:103C400090F87B003B4991F82510401A40B2394961
:103C500081F82400084690F924001E280EDD01207A
:103C6000FFF740FD334991F8240000F0ECF93149A9
:103C700081F8650001203049087013E02D4890F963
:103C8000240010F11E0F0DDA0120FFF74FFD294926
:103C900091F9240000F0D4F9264981F8650001204B
:103CA000264908704FF47A7225492348007800F0BD
:103CB0007CF848B1002020490870FFF713FD64200C
:103CC0001C4981F865000FE0C8221E491B48007896
:103CD00000F06BF840B1002018490870FFF726FD8E
:103CE0006420144981F86500124991F87B102D2950
:103CF00001DA012100E0002108464FF47A721249EE
:103D000000F053F850B10B48C08840F6C411884207
:103D100004DD0020074981F8640003E00120054923
:103D200081F86400034890F87B00024981F825007F
:103D300010BD000034000020050000200600002017
:103D40001C00002020000020240000200748B0F8BC
:103D500080009621484340F6FF7190FBF1F0034943
:103D600081F883002D2081F8830070473400002003
:103D700010B5FFF735FCFFF751FFFFF77DF9FFF7AF
:103D80006BF9FCF7A9FCFFF7E1FFFCF7DBFAFFF7A3
:103D9000BFF8FCF745FBFCF731FD10BD704700B5DF
:103DA000FCF7F4FA00F0CAF800BD2DE9F041054631
:103DB0000C4616460027012D0CD1206818B9FDF7D6
:103DC0002DFD30442060FDF729FD2168884203D392
:103DD000012701E0002020603846BDE8F08170B581
:103DE000054600241FE004EB440055F82000C0B154
:103DF000FDF714FD04EB440155F82110884210D35F
:103E0000002004EB440145F82100012004EB4401AB
:103E100005EB8101087104EB440105EB8101886821
:103E20008047601CC4B2102CDDDB70BD10B50020D3
:103E3000FFF72CFC0020FFF775F810BD70B50446A5
:103E40002168096921F44051E26811432268116137
:103E50002269A1681143626941EA02052168C968C3
:103E600041F20C62914329432268D160216849697B
:103E700021F44071A2691143226851612D4A2168E1
:103E8000914202D1FDF744FF01E0FDF731FF00EB65
:103E9000C00101EB001162689200B1FBF2F100EB8E
:103EA000C00202EB001263689B00B2FBF3F26423D2
:103EB000B2FBF3F202EBC20303EB0212A1EB8201AD
:103EC000322202EB01116422B1FBF2F101F0F001A8
:103ED00000EBC00202EB001263689B00B2FBF3F23E
:103EE0006423B2FBF3F201EB021200EBC00101EB21
:103EF000001163689B00B1FBF3F100EBC00303EB1F
:103F000000136668B600B3FBF6F36426B3FBF6F362
:103F100003EBC30606EB0313A1EB8301322303EB90
:103F200001116423B1FBF3F101F00F011144226888
:103F3000916070BD0038014000BFFEE700B50B493D
:103F4000B1F86C00B42100F05FF8084981F86E0008
:103F5000084690F86E009621484340F6FF7190FBAA
:103F6000F1F0024981F86F0000BD0000340000202C
:103F700002480068C0F30220704700000CED00E02A
:103F800010B5002804DB0A07130E054A135406E097
:103F90000A07140E034A00F00F031B1FD45410BD70
:103FA00000E400E018ED00E002E008C8121F08C1BC
:103FB000002AFAD170477047002001E001C1121FAA
:103FC000002AFBD17047000010B50146002001EB2C
:103FD00041020C4B03EB82021279012A10D100221C
:103FE00001EB4103074C04EB83031A7101EB41031E
:103FF00044F8232001EB410304EB83039A60012082
:1040000010BD0000D402002010B50246054B1B88ED
:104010009B1A4B43FF24B3FBF4F3134498B2014BB8
:104020001A8010BD0A010020014664207047024634
:104030006420704702466420704701466420704740
:104040000146502070470146782070470146822083
:1040500070470000FDF7F4FBFFF790FBFFF7B2F8A5
:10406000FFF78EF8FFF78EF9FFF7E4F9FFF716F880
:10407000FFF756FA00211C48FEF746FB04211A48B8
:10408000FEF742FB1848FEF7CBF9FEF729FF07229F
:1040900016491748FCF738FF00211648FEF7F4FDD3
:1040A00020E0154890F82700012805D1FCF7C8FA50
:1040B0000020114981F827000023104A10491420DC
:1040C000FFF752FA01230D4A0E496420FFF74CFA1C
:1040D00002230A4A0C494FF47A70FFF745FA0B485D
:1040E000FFF77DFEDDE70000A4010020940300201F
:1040F00030010020EC01002034000020BC02002030
:10410000713D00089D3D00089F3D0008D40200203D
:1041100070B504460D461646FDF780FB284404EBB7
:104120004401084A42F8210004EB4400114601EB27
:1041300080008660002004EB440102EB81010871DD
:1041400070BD0000D402002000000000000000004C
:10415000010203040607080900000000010203042D
:1041600080410008000000203001000070010008BC
:10417000C04100083001002098060000B83F000848
:10418000013412010A230227636464061F6428872E
:104190008432FB0A0A3D2901011D631405165802E9
:1041A000E80314C3E8031232123C1246125A126496
:1041B000129612FA033C2C013A10F4311324F40045
:04000005080000ED02
:00000001FF
