:020000040800F2
:1000000010070020050100081927000875220008C4
:10001000152700082502000825310008000000000F
:10002000000000000000000000000000ED270008B4
:100030003902000800000000232700087929000881
:100040001F0100081B2700081F0100081F010008EE
:100050001F040008992700081F0100081F0100085D
:100060001F0100081F0100081F0100081F010008F0
:100070001F010008290200081F0100081F010008D5
:100080001F0100081F010008710100081F0100087E
:100090001F0100081F0100081F0100083B020008A3
:1000A0001F0100081F0100081F0100081F010008B0
:1000B0005D2A00081F0100086D2A00081F010008C2
:1000C0001F0100081F0100081F0100081F01000890
:1000D0001F0100081F0100081F0100081F01000880
:1000E0001F0100081F0100081F010008DFF810D0E1
:1000F00000F02CF800480047CD310008AFF3008035
:10010000100700200648804706480047FEE7FEE744
:10011000FEE7FEE7FEE7FEE7FEE7FEE7FEE7FEE7B7
:10012000052A0008ED000008D2B201E000F8012B1A
:10013000491EFBD270470022F6E710B513460A4667
:1001400004461946FFF7F0FF204610BD064C074D48
:1001500006E0E06840F0010394E807009847103497
:10016000AC42F6D3FFF7C6FFA4320008C432000841
:1001700010B5034800F087FA024800F084FA10BD79
:10018000B0000020E000002070B504460025206883
:10019000806800F00100F0B12068806820F0010064
:1001A0002168886000F090FF05460EE000F08CFFAB
:1001B000401B022809D9A06A40F01000A062E06A42
:1001C00040F00100E062012070BD2068806800F00E
:1001D00001000028EAD10020F6E7000010488088DE
:1001E0000F494988401A00B20D49C8800846B0F945
:1001F0000600962802DD002048700CE00848B0F99F
:10020000060010F1960F03DA01200549487002E05C
:10021000022003494870024880880149488070479D
:100220003800002000BFFEE710B5024800F0D2FB06
:1002300010BD0000D0010020704710B54FF40070D1
:1002400000F08EFD10BD000010B569480078082848
:1002500077D2DFE800F0042836407797ADC002F08F
:100260009DFA28B9012002F0DDFA012061490870E9
:100270004FF4FA6260495F48007802F03DFE88B1B1
:1002800000205C490870012002F0B2FA5A2002F006
:1002900067FA0446594A2146002002F0DBFF01209C
:1002A00053490870A2E0002002F06AFF40B100202C
:1002B0004F498880012002F0D9FA02204C49087089
:1002C00094E04F48007828B101204E49087003207F
:1002D000474908708AE04648808840F24C4188428D
:1002E00013DD01204849087040F6B83247494648B6
:1002F000007802F001FE18B300204349087002F0B4
:10030000B5FA05203A4908701AE0394840780128C2
:1003100005D13748808840F24C41884207DD4FF4D0
:10032000FA623B493748007802F0E6FD40B1002010
:100330003449087001203749087004202C4908709E
:1003400054E052E02A488088B0F5967F07DB40F2FF
:10035000DC5231492F48007802F0CEFD88B10020F0
:100360002C490870224890F82C00401C204981F844
:100370002C0000208880012002F078FA02201C491D
:10038000087033E01A488088B0F5E16F03DD06207D
:10039000174908700BE01648808840F24C418842AB
:1003A00005DC04201249087001201A4908701DE07C
:1003B0000F48808841F65831884203DD07200C49F8
:1003C000087007E00A488088B0F5E16F02DC05207C
:1003D000074908700AE00648808841F62C218842C7
:1003E00002DC06200249087000E000BF00BF10BD1B
:1003F0003800002000000020080000207B2F0008AB
:10040000340000200200002003000020140000201F
:10041000100000200400002018000020704710B5D4
:1004200000F0DCFB10BD00000021074AD161074944
:10043000096941F00201054A1161114648610969E3
:1004400041F0400111617047F0020020002002409D
:100450000022054BDA61054A126942F00102034BA2
:100460001A61018070470000F00200200020024065
:1004700000201E49C96801F0100139B11C49C96941
:1004800041F002011A4AD16140F010001749C968D1
:1004900001F0040139B11649C96941F00101144A5A
:1004A000D16140F004001149C96901F0010169B14D
:1004B0000F49C96941F004010D4AD16100BF0B49E0
:1004C000C96921F00101094AD16100BF00BF40F2B2
:1004D0000111884206D10549C96921F00101034A89
:1004E000D16101E00149C86000BF704700200240AF
:1004F000F002002010B50421074801F007FE07496B
:1005000088610846806A48650846806D022802D3E3
:10051000012081F84F0010BD10010020380000209C
:100520007047000038B5024600230020009000BF4D
:1005300092F82400012801D1022038BD012082F860
:10054000240000BF4868072812D21068406B0C795D
:10055000641E04EB84051F24AC40A0430D796D1E7E
:1005600005EB85050C68AC4020431468606327E008
:1005700048680D2812D21068006B0C79E41F04EB58
:1005800084051F24AC40A0430D79ED1F05EB8505C4
:100590000C68AC4020431468206311E01068C06A06
:1005A0000C790D3C04EB84051F24AC40A0430D796D
:1005B0000D3D05EB85050C68AC4020431468E062F6
:1005C00008680A2812D31068C0680C780A3C04EB4B
:1005D00044050724AC40A0430D780A3D05EB4505D2
:1005E0008C68AC4020431468E0600FE0106800693C
:1005F0000C7804EB44050724AC40A0430D7805EBD0
:1006000045058C68AC4020431468206108681028B8
:1006100002D00868112827D1174C1068A0421ED1BB
:100620001068806800F40000F0B91068806840F439
:1006300000001468A0600868102815D10F480068F1
:100640000F4CB0FBF4F000EB80004000009002E0A3
:100650000098401E009000980028F9D104E0906AAC
:1006600040F020009062012300BF002082F82400A7
:1006700000BF184661E7000000240140AC000020E4
:1006800040420F00704710B504462068406800F0F3
:10069000200020282FD12068006800F002000228E6
:1006A00029D1A06A00F0100018B9A06A40F40070C7
:1006B000A0622068806800F46020B0F5602F13D13C
:1006C000207B88B92068406820F0200021684860BD
:1006D000A06A20F48070A062A06A00F4805018B96B
:1006E000A06A40F00100A0622046FFF7CBFF6FF048
:1006F0001200216808602068406800F080008028AF
:100700003BD12068006800F00400042835D1A06ABD
:1007100000F0100018B9A06A40F40050A0622068F0
:10072000806800F4E040B0F5E04F0DD020684068EC
:1007300000F48060D0B92068806800F46020B0F5D3
:10074000602F13D1207B88B92068406820F080009A
:1007500021684860A06A20F48050A062A06A00F47A
:10076000807018B9A06A40F00100A0622046FFF72F
:10077000D7FE6FF00C00216808602068406800F028
:10078000400040280FD12068006800F0010050B1FF
:10079000A06A40F48030A062204600F0A7F86FF015
:1007A00001002168086010BD2DE9F04104460027D2
:1007B00000250026A84614B90120BDE8F081A068F4
:1007C00010B1207D00B100BFA06A30B90020E06206
:1007D00084F82400204600F08BF82046FFF7D4FC74
:1007E0000746A06A00F01000002873D1002F71D1D5
:1007F000A06A20F4885040F00200A062E1696068BD
:100800000843217B40EA41000643A068B0F5807FA1
:1008100002D0A068012802D14FF4807000E00020CF
:100820000543207D012811D1207B38B9A069401EE5
:100830004FF4006141EA4030054307E0A06A40F010
:100840002000A062E06A40F00100E0622068406899
:1008500020F4694028432168486020688068214965
:100860000840304321688860A068B0F5807F02D0DE
:10087000A068012802D14FF4807000E00020B0F59C
:10088000807F03D1208A401E4FEA00582068C06A4A
:1008900020F4700040EA08002168C862206880687F
:1008A00011490840B04208D10020E062A06A20F05F
:1008B000020040F00100A06211E0A06A20F00200F6
:1008C00040F01000A062E06A40F00100E062012701
:1008D00005E0FFE7A06A40F01000A062012738465B
:1008E0006BE70000FDF7E1FFFE0E1FFF7047000001
:1008F00010B586B004460020029003900490059045
:100900003049206888422BD100BF2F48806940F4CD
:1009100000702D4988610846806900F400700190DC
:1009200000BF00BF00BF0846806940F00400886136
:100930000846806900F00400019000BF00BF382025
:1009400002900320039002A9204800F017FA002229
:100950001146122000F05AFC122000F047FC2EE055
:100960001B49206888422AD100BF1748806940F49B
:100970008060154988610846806900F480600190B4
:1009800000BF00BF00BF0846806940F004008861D6
:100990000846806900F00400019000BF00BF3820C5
:1009A00002900320039002A9084800F0E7F9002212
:1009B0001146122000F02AFC122000F017FC06B0AD
:1009C00010BD00000024014000100240000801405A
:1009D0000028014070B50446E06B05682068066891
:1009E00094F84010042088402840002846D006F0A3
:1009F0000400002842D02068006800F0200028B9D8
:100A00002068006820F004002168086057492068C9
:100A1000884201D1042027E05449143120688842DB
:100A200001D1402020E0514928312068884201D17D
:100A3000001519E04D493C312068884202D14FF43D
:100A4000804011E0494950312068884202D14FF47A
:100A5000802009E0454964312068884202D14FF482
:100A6000800001E04FF08060404908394860E06A4A
:100A700000287AD02046E16A884776E094F8401052
:100A8000022088402840A0B306F0020088B3206806
:100A9000006800F0200040B92068006820F00A00DB
:100AA00021680860012084F82100304920688842CC
:100AB00001D1022028E02D4914312068884201D15B
:100AC000202021E0294928312068884201D14015A1
:100AD0001AE026493C312068884202D14FF4005088
:100AE00012E0224950312068884203D14FF400308F
:100AF0000AE017E01D4964312068884202D14FF4B2
:100B0000001001E04FF0007018490839486000BF3C
:100B1000002084F8200000BFA06A30B32046A16AFC
:100B2000884722E094F84010082088402840E0B12F
:100B300006F00800C8B12068006820F00E002168A7
:100B4000086094F8401001208840E16B4860012063
:100B5000A06384F8210000BF002084F8200000BFBB
:100B6000206B10B12046216B884770BD0800024001
:100B70000146002209B901207047164B0868C01AC7
:100B80001423B0FBF3F08000086412480838C863EF
:100B9000022081F821000868026843F6F070824361
:100BA000D1E901031843CB6818430B6918434B691B
:100BB00018438B691843CB691843024308680260E5
:100BC00000208863012081F82100002081F82000A6
:100BD00000BFD1E7080002407047000010B50024B4
:100BE0005C48C06800F0100020B95A48C06800F0A6
:100BF000040068B1584884684FF0FF305649886057
:100C0000FFF736FC204600F0A9F800205249087092
:100C10005048C06800F02000002828D000BF2020E5
:100C20004C49C86000BF4C48007800287ED04A4834
:100C30000078012827D148484068401E464948604E
:100C400008464068A0B1084684682046FFF7C4FF04
:100C50004148806800F580643F4884603D480069F1
:100C600020F002003B4908612046FFF7DDFB5DE014
:100C70004FF0FF3004463849886000200870204655
:100C8000FFF7AAFF52E03448007802280CD131481F
:100C9000006920F004002F4908610020FFF79CFF45
:100CA00000202D49087041E02B484068401E2A4929
:100CB000486008464068D8B108468068801C886053
:100CC0000846846808694969000C40EA0140090C3B
:100CD000214A106151611F48006920F001001D493F
:100CE00008611069526981B22046FFF7B1FB1DE02F
:100CF00019480078032804D117498868FFF76CFF6A
:100D00000EE015480078042805D113498968881E2B
:100D1000FFF762FF04E010498968881FFFF75CFF56
:100D20004FF0FF300C498860002008700A480078B6
:100D300078B90848006920F00700064908610846AC
:100D4000006920F4A050086100BF00200249087625
:100D500000BF10BD00200240F00200207047704725
:100D600010B5044604480068204020B102480460E1
:100D70002046FFF7F4FF10BD140401402DE9F847A9
:100D80000346002294466EE14FF0010808FA02F48F
:100D9000D1F8008008EA0400A0427DD1DFF8DCA28F
:100DA000D1F80480A8EB0A09D0453AD014DCB8F198
:100DB000030F50D009DCB8F1000F31D0B8F1010FAA
:100DC0001CD0B8F1020F49D120E0B8F1110F18D0B2
:100DD000B8F1120F42D11EE0B9F5881F25D006DC0C
:100DE000B9F5803F20D0B9F5801F37D11AE0B9F5A9
:100DF000001F18D0B9F5041F30D117E0D1F80CC08E
:100E00002DE0D1F80C8008F1040C28E0D1F80C801A
:100E100008F1080C23E0D1F80C8008F10C0C1EE05E
:100E200000BF00BF00BF00BF00BF00BFD1F80880F7
:100E3000B8F1000F02D14FF0040C0BE0D1F808809C
:100E4000B8F1010F03D14FF0080C1C6102E04FF024
:100E5000080C5C6103E04FF0000C00E000BF00BF35
:100E6000FF2801D8984601E003F104084646FF2810
:100E700002D84FEA820803E0A2F108084FEA880886
:100E80004746D6F800804FF00F0909FA07F928EA1B
:100E900009080CFA07F900E088E048EA0908C6F8F2
:100EA0000080D1F8048008F08058B8F1805F7DD1CF
:100EB00000BFDFF8CC81D8F8188048F00108DFF8CF
:100EC000C091C9F81880C846D8F8188008F0010801
:100ED000CDF8008000BF00BF4FEAB9384FEA920951
:100EE00058F829504FEA82784FEA18794FF00F08E6
:100EF00008FA09F825EA0805DFF88881434502D198
:100F00004FF0000816E0DFF88081434502D14FF032
:100F100001080FE0DFF87481434502D14FF0020869
:100F200008E0DFF86C81434502D14FF0030801E08F
:100F30004FF004084FEA82794FEA197908FA09F864
:100F400048EA0505DFF84C814FEA920948F8295034
:100F5000D1F8048008F48038B8F5803F0AD1DFF872
:100F60003881D8F8008048EA0008DFF82C91C9F8E9
:100F7000008009E0DFF82081D8F8008028EA000826
:100F8000DFF81491C9F80080D1F8048008F4003823
:100F9000B8F5003F10D1DFF8008108F10408D8F857
:100FA000008048EA0008DFF8F09000E05AE009F11C
:100FB0000409C9F800800DE0DFF8DC8008F10408BE
:100FC000D8F8008028EA0008DFF8CC9009F104097D
:100FD000C9F80080D1F8048008F48018B8F5801FA3
:100FE0000ED1DFF8B48008F10808D8F8008048EA8C
:100FF0000008DFF8A49009F10809C9F800800DE0A5
:10100000DFF8948008F10808D8F8008028EA000882
:10101000DFF8849009F10809C9F80080D1F804804C
:1010200008F40018B8F5001F0ED1DFF86C8008F145
:101030000C08D8F8008048EA0008DFF85C9009F155
:101040000C09C9F800800DE0DFF84C8008F10C08AD
:10105000D8F8008028EA0008DFF83C9009F10C0974
:10106000C9F80080521CD1F8008028FA02F8B8F1C3
:10107000000F7FF489AEBDE8F88700000000111072
:101080000010024000080140000C01400010014027
:10109000001401400800014000040140024693682A
:1010A0000B400BB1012000E000207047C2680A40ED
:1010B0000AB1416100E0016170470AB1016101E0DC
:1010C0000B0403617047000001480068704700008E
:1010D000A00000200348006803490978084401493A
:1010E00008607047A0000020A800002010B5084844
:1010F000006840F0100006490860032000F0C4F8C2
:10110000022000F007F800F02BF8002010BD0000CE
:101110000020024070B504460E4800784FF47A7102
:10112000B1FBF0F00C490968B1FBF0F5284600F07E
:10113000D1FC08B1012070BD102C07D2002221463D
:10114000501E00F063F80548046001E00120F2E75A
:101150000020F0E7A8000020AC000020A400002040
:1011600008B500BF1F48806940F001001D49886133
:101170000846806900F00100009000BF00BF00BF7A
:101180000846C06940F08050C8610846C06900F058
:101190008050009000BF00BF042000F075F80022CE
:1011A0001146012000F032F8012000F01FF8002263
:1011B0001146042000F02AF8042000F017F800225D
:1011C0001146052000F022F8052000F00FF800BFBE
:1011D0000549486820F0E06040F00070486000BFBA
:1011E00008BD000000100240000001400146084612
:1011F000002809DB00F01F0301229A4043099B00ED
:1012000003F1E023C3F8002100BF70472DE9F05F30
:1012100080460D461646002701F086FF07463946F0
:101220002A46334601F00700C0F1070ABAF1040F5D
:1012300002D94FF0040A01E0C0F1070AD14600F1DB
:10124000040ABAF1070F02D24FF0000A01E0A0F140
:10125000030AD4464FF0010A0AFA09FAAAF1010A70
:101260000AEA020A0AFA0CFA4FF0010B0BFA0CFB1D
:10127000ABF1010B0BEA030B4AEA0B042146404693
:1012800001F05AFFBDE8F09F00BF00F00702064BD7
:1012900019684FF6FF031940044B0B4343EA022140
:1012A000014B196000BF70470CED00E00000FA052B
:1012B0007047000010B50648006800F4803028B17F
:1012C000FFF7F6FF4FF480300149086010BD0000C1
:1012D00014040140F8B5044600260025207800F0EB
:1012E000010000286BD000274348C06900F08050FF
:1012F00070B900BF4048C06940F080503E49C861A5
:101300000846C06900F08050009000BF00BF012770
:101310003A48006800F48070B0B93848006840F47A
:10132000807036490860FFF7CFFE064606E0FFF7FB
:10133000CBFE801B642801D90320F8BD2F4800682C
:1013400000F480700028F2D02B48006A00F4407549
:101350002DB3A08800F44070A84220D02648006A2F
:1013600020F44075012026490860002008602248CA
:10137000056205F0010090B1FFF7A6FE064608E001
:10138000FFF7A2FE801B41F28831884201D9032079
:10139000D3E71948006A00F002000028F0D0164890
:1013A000006A20F440706168084313490862012F05
:1013B00004D10846C06920F08050C86100BF207881
:1013C00000F00200022807D10B48406820F440409A
:1013D000A168084308494860207800F010001028F0
:1013E00007D10548406820F48000E16808430249BD
:1013F00048600020A1E7000000100240007000409B
:101400004004424270B504460D460CB9012070BD3F
:101410005A48006800F00700A8420ED257480068FA
:1014200020F007002843554908600846006800F08E
:101430000700A84201D00120E9E7207800F002006F
:1014400002281DD1207800F00400042805D14C4862
:10145000406840F4E0604A494860207800F00800A5
:10146000082805D14648406840F460504449486027
:101470004348406820F0F000A168084340494860B4
:10148000207800F0010078B36068012806D13C485C
:10149000006800F4003090B90120B8E760680228C5
:1014A00006D13748006800F0007040B90120AEE76F
:1014B0003348006800F0020008B90120A7E730486F
:1014C000406820F00300616808432D494860FFF739
:1014D000FBFD064609E0FFF7F7FD801B41F288316E
:1014E000884202D9032092E707E02548406800F0CF
:1014F0000C006168B0EB810FEDD12048006800F06E
:101500000700A8420ED91D48006820F007002843B4
:101510001A4908600846006800F00700A84201D098
:10152000012074E7207800F00400042807D1144853
:10153000406820F4E060E168084311494860207881
:1015400000F00800082808D10D48406820F46050D9
:10155000216940EAC1000A49486000F03FF80849A3
:101560004968C1F30311074A515CC8400649086045
:1015700006480068FFF7CEFD002048E70020024043
:10158000001002408C320008AC000020A4000020B3
:101590000148006870470000AC00002000B5FFF76C
:1015A000F7FF04494968C1F30221034A515CC8406E
:1015B00000BD0000001002409C32000800B5FFF79B
:1015C000E7FF04494968C1F3C221034A515CC8409E
:1015D00000BD0000001002409C320008F0B585B04C
:1015E0000FF26C0C9CE8E01001A8A0E8E0101CA52C
:1015F0002D68009500210022002300240020194DB1
:10160000696801F00C05F5B1042D02D0082D19D13F
:1016100001E0154819E001ADC1F38346AC5D01F46A
:10162000803555B10F4D6D68C5F340451DF8052057
:101630000D4D6543B5FBF2F302E00C4D04FB05F3E1
:10164000184602E000BF084800BF00BF05B0F0BD6B
:1016500002030405060708090A0B0C0D0E0F1010F3
:10166000010200000010024000127A0000093D0053
:10167000F8B504460CB90120F8BD207800F001004F
:10168000002878D0F848406800F00C0004280CD0FE
:10169000F548406800F00C00082811D1F248406875
:1016A00000F48030B0F5803F0AD1EF48006800F4C4
:1016B000003000285FD0606800285CD10120DBE7A3
:1016C00000BF6068B0F5803F06D1E748006840F48D
:1016D0008030E549086028E0606858B9E248006851
:1016E00020F48030E04908600846006820F480203B
:1016F00008601AE06068B0F5A02F0BD1DA480068E6
:1017000040F48020D84908600846006840F48030E2
:1017100008600AE0D448006820F48030D2490860AC
:101720000846006820F48020086000BF606888B127
:10173000FFF7CAFC054606E0FFF7C6FC401B64281D
:1017400001D9032098E7C848006800F40030002859
:10175000F2D010E0FFF7B8FC054606E0FFF7B4FC56
:10176000401B642801D9032086E7BF48006800F4C5
:1017700000300028F2D1207800F00200022857D172
:10178000B948406800F00C0050B1B748406800F01C
:101790000C00082818D1B448406800F4803098B98B
:1017A000B148006800F0020020B12069012801D092
:1017B000012061E7AC48006820F0F800616940EA68
:1017C000C100A949086033E02069E8B10120A749B8
:1017D0000860FFF779FC054606E0FFF775FC401B43
:1017E000022801D9032047E79F48006800F0020063
:1017F0000028F2D09C48006820F0F800616940EAB7
:10180000C1009949086013E0002098490860FFF77B
:101810005BFC054606E0FFF757FC401B022801D998
:10182000032029E79048006800F002000028F2D168
:10183000207800F0080008282DD1A069B8B1012057
:101840008B490860FFF740FC054606E0FFF73CFCCB
:10185000401B022801D903200EE78348406A00F0AC
:1018600002000028F2D0012000F082FF13E00020E7
:101870007F490860FFF728FC054606E0FFF724FCD7
:10188000401B022801D90320F6E67748406A00F0A1
:1018900002000028F2D1207800F00400042873D15F
:1018A00000277148C06900F0805070B900BF6E48D1
:1018B000C06940F080506C49C8610846C06900F0BA
:1018C0008050009000BF00BF01276A48006800F404
:1018D0008070B0B96748006840F48070654908605E
:1018E000FFF7F2FB054606E0FFF7EEFB401B64281E
:1018F00001D90320C0E65F48006800F4807000282A
:10190000F2D000BFE068012806D15748006A40F0D5
:1019100001005549086227E0E06858B95248006A5A
:1019200020F00100504908620846006A20F00400D7
:10193000086219E0E06805280BD14B48006A40F0C6
:101940000400494908620846006A40F00100086244
:101950000AE04548006A20F0010043490862084651
:10196000006A20F00400086200BFE068A0B1FFF741
:10197000ABFB054609E0FFF7A7FB401B41F28831AE
:10198000884202D9032077E622E03748006A00F057
:1019900002000028EFD012E0FFF796FB054608E0B2
:1019A000FFF792FB401B41F28831884201D90320A6
:1019B00062E62D48006A00F002000028F0D1012FF5
:1019C00005D12948C06920F080502749C86100BF6F
:1019D000E069C8B32448406800F00C00082860D0D3
:1019E000E069022848D1002020490866FFF76CFB17
:1019F000054606E0FFF768FB401B022801D90320DB
:101A00003AE61948006800F000700028F2D1206A18
:101A1000B0F5803F07D11448406820F40030A16839
:101A2000084311494860D4E9080108430E49496850
:101A300021F4741108430C49486001200B490866E1
:101A4000FFF742FB054607E03DE0FFF73DFB401B8B
:101A5000022801D903200FE60348006800F0007057
:101A60000028F2D02FE000000010024000004242A7
:101A70008004424200700040002014490866FFF7CD
:101A800023FB054606E0FFF71FFB401B022801D998
:101A90000320F1E50E48006800F000700028F2D144
:101AA00011E0E069012800D1E6E50948466806F43E
:101AB0008031206A814204D106F47011606A81424B
:101AC00001D00120D8E50020D6E500000000424208
:101AD0000010024070B504462546681EB0F1807FB4
:101AE00001D301200FE0681E4FF0E02148610F2173
:101AF0004FF0FF3001F020FB00204FF0E021886123
:101B000007200861002070BD7047704710B502467D
:101B100000BF92F83C00012801D1022010BD012035
:101B200082F83C0000BF022082F83D001068436844
:101B30001068846823F070030868034324F080046D
:101B4000486804431068436010688460012082F88C
:101B50003D0000BF002082F83C0000BF00BFDDE771
:101B600010B504460CB9012010BD94F83D0028B909
:101B7000002084F83C00204600F00CF8022084F895
:101B80003D00211D206800F079FF012084F83D0010
:101B90000020E9E710B586B00446002002900390CB
:101BA000049005902068B0F1804F38D100BF2A48DA
:101BB000C06940F001002849C8610846C06900F0CA
:101BC0000100019000BF00BF00BF0846806940F0DF
:101BD000040088610846806900F00400019000BF9D
:101BE00000BF4FF40040029000200390049002A92F
:101BF0001A48FFF7C3F800BF1949486820F440703D
:101C000040F0E06040F48070486000BF0022114660
:101C10001C20FFF7FBFA1C20FFF7E8FA19E0114936
:101C20002068884215D100BF0B48C06940F004000D
:101C30000949C8610846C06900F00400019000BF6E
:101C400000BF002201211E20FFF7E0FA1E20FFF74F
:101C5000CDFA06B010BD000000100240000801409F
:101C600000000140000800402DE9F04104460D4607
:101C700000BF94F83C00012802D10220BDE8F081A9
:101C8000012084F83C0000BF022084F83D00206859
:101C9000866826F0770626F47F46206886602868E6
:101CA000502833D00CDC202850D004DC00284BD046
:101CB000102851D149E0302849D040284CD139E092
:101CC00060282DD0702807D0B0F5805F03D0B0F524
:101CD000005F41D10DE040E0D5E902136A68206859
:101CE00000F006FF2068866846F077062068866068
:101CF00033E0D5E902136A68206800F0F9FE206835
:101D0000806840F480402168886026E0EA6869685D
:101D1000206800F0BDFF5021206800F0F4FE1CE0B8
:101D2000EA686968206800F0FBFF6021206800F025
:101D3000EAFE12E0EA686968206800F0A9FF402125
:101D4000206800F0E0FE08E000BF00BF00BF296887
:101D5000206800F0D8FE00E000BF00BF012084F83A
:101D60003D0000BF002084F83C0000BF00BF85E7B5
:101D700010B504462068B0F1804F04D1207F0128BF
:101D800001D100F019FD2068B0F1804F04D1207F0F
:101D9000022801D1FEF7AEFB10BD2DE9F04104464B
:101DA0000D46164600BF94F83C00012802D10220DF
:101DB000BDE8F081012084F83C0000BF022084F8D7
:101DC0003D0096B9EB68D5E90012206800F074FF79
:101DD0002068806920F00C00216888612068806993
:101DE000A9680843216888613DE0042E13D1EB689F
:101DF000D5E90012206800F0A7FF2068806920F470
:101E000040602168886120688069A96840EA0120F3
:101E10002168886127E0082E12D1EB68D5E900120D
:101E2000206800F0AEFF2068C06920F00C00216837
:101E3000C8612068C069A96808432168C86112E0C8
:101E4000EB68D5E90012206800F0B7FF2068C06990
:101E500020F440602168C8612068C069A96840EA30
:101E600001202168C861012084F83D0000BF0020E6
:101E700084F83C0000BF00BF9AE710B504460CB9D7
:101E8000012010BD94F83D0028B9002084F83C00E2
:101E9000204600F00CF8022084F83D00211D206847
:101EA00000F0ECFD012084F83D000020E9E77047D8
:101EB00010B5044620680069C0F34000D8B120681E
:101EC000C068C0F34000B0B16FF002002168086143
:101ED000012020772068806900F0030018B12046B7
:101EE000FFF746FF05E0204600F0E7F8204600F047
:101EF00000F90020207720680069C0F38000D8B185
:101F00002068C068C0F38000B0B16FF004002168A1
:101F10000861022020772068806900F4407018B1C1
:101F20002046FFF725FF05E0204600F0C6F82046D2
:101F300000F0DFF80020207720680069C0F3C000BF
:101F4000D8B12068C068C0F3C000B0B16FF008001D
:101F500021680861042020772068C06900F0030030
:101F600018B12046FFF704FF05E0204600F0A5F871
:101F7000204600F0BEF80020207720680069C0F3FA
:101F80000010D8B12068C068C0F30010B0B16FF085
:101F9000100021680861082020772068C06900F4DB
:101FA000407018B12046FFF7E3FE05E0204600F040
:101FB00084F8204600F09DF8002020772068006912
:101FC00000F0010058B12068C06800F0010030B195
:101FD0006FF0010021680861204600F08BF820684E
:101FE0000069C0F3C01058B12068C068C0F3C010C9
:101FF00030B16FF08000216808612046FFF784FD52
:1020000020680069C0F3801058B12068C068C0F330
:10201000801030B16FF0400021680861204600F068
:102020008EF820680069C0F3401058B12068C0687D
:10203000C0F3401030B16FF02000216808612046E5
:10204000FFF763FD10BD70B504460E46154600BF90
:1020500094F83C00012801D1022070BD012084F8D1
:102060003C0000BF022084F83D0035B1042D09D0AA
:10207000082D0CD00C2D14D10EE03146206800F054
:102080004BFD0FE03146206800F076FD0AE0314656
:10209000206800F0A5FD05E03146206800F0D4FD81
:1020A00000E000BF00BF012084F83D0000BF002019
:1020B00084F83C0000BF00BFCFE7704710B504466E
:1020C0000CB9012010BD94F83D0028B9002084F817
:1020D0003C00204600F00CF8022084F83D00211D51
:1020E000206800F0CBFC012084F83D000020E9E7E7
:1020F000704770470168B1F1804F04D10249896A85
:10210000491C014A916270473800002002460020B5
:1021100031B1042907D0082908D00C290CD108E0D6
:102120001368586B09E01368986B06E01368D86B66
:1021300003E01368186C00E000BF00BF70477047F1
:1021400010B504460CB9012010BDA06900B100E033
:1021500000BF94F8390028B9002084F838002046E0
:1021600000F028F8242084F839002068C06820F4A2
:1021700000502168C860204600F004FF2068006914
:1021800020F49040216808612068406920F02A000E
:10219000216848612068C06840F400502168C86028
:1021A0000020E063202084F8390084F83A00002001
:1021B000CAE7000010B586B00446002002900390E4
:1021C0000490059026492068884247D100BF2548E1
:1021D000C06940F480202349C8610846C06900F402
:1021E0008020019000BF00BF00BF0846806940F01A
:1021F000080088610846806900F00800019000BF6F
:1022000000BF08150290022003900320059002A948
:102210001548FEF7B3FD4FF40060029000200390D4
:10222000049002A91048FEF7A9FD10481049086063
:102230000020486000210E4881608021C16000219B
:10224000016141618161C161FEF792FC08B1FEF755
:10225000E5F800BF06486063446200BF06B010BDE9
:102260000048004000100240000C014030000240D5
:10227000D001002000BFFEE710B5002000F0F6FA04
:10228000002000F005FB002000F0DEFA002000F046
:1022900011FB002000F0C6FA002000F0A9FA10BDE2
:1022A0000EB500200090019002901248124908607B
:1022B000002111488160017301754FF46021C161F3
:1022C00000200D49486001210B480161FEF76CFABE
:1022D00008B1FEF7A3F8042000900120019000202F
:1022E000029069460448FEF71DF908B1FEF796F81A
:1022F0000EBD000000240140B00000200EB50020FB
:102300000090019002901248124908600021114883
:102310008160017301754FF46021C16100200D4996
:10232000486001210B480161FEF73EFA08B1FEF753
:1023300075F803200090012001900020029069466A
:102340000448FEF7EFF808B1FEF768F80EBD00008C
:1023500000280140E000002008B500BF0A4840699D
:1023600040F00100084948610846406900F001005A
:10237000009000BF00BF002211460D20FEF746FF6F
:102380000D20FEF733FF08BD0010024000B585B0F8
:102390000020019002900390049000BF664880697D
:1023A00040F01000644988610846806900F0100020
:1023B000009000BF00BF00BF0846806940F02000C9
:1023C00088610846806900F02000009000BF00BFCF
:1023D00000BF0846806940F00400886108468069B3
:1023E00000F00400009000BF00BF00BF08468069F5
:1023F00040F0080088610846806900F008000090FD
:1024000000BF00BF00224FF400514C48FEF755FEBC
:102410000022C7214A48FEF750FE00224FF2FF116A
:102420004848FEF74AFE4FF4005001900120029008
:10243000002003900320049001A94048FEF79EFC71
:102440004FF44040019000200290039001A93B48C6
:10245000FEF794FC47200190012002900020039099
:102460000320049001A93648FEF788FC80200190E3
:1024700011200290002003900220049001A930480E
:10248000FEF77CFC032001900120029000200390C5
:102490000320049001A92B48FEF770FC4FF2FC00CA
:1024A000019001200290002003900220049001A9D5
:1024B0002448FEF763FC4FF48070019002200290E4
:1024C000049001A91E48FEF759FC4FF4905001906A
:1024D000022002900320049001A91948FEF74EFC47
:1024E0004FF44060019000200290039001A914482D
:1024F000FEF744FC4FF48070019011200290002000
:1025000003900220049001A90E48FEF737FC4FF417
:10251000007001900C4802900020039001A9094826
:10252000FEF72CFC002211461720FEF76FFE172045
:10253000FEF75CFE05B000BD001002400010014037
:1025400000080140000C01400000111000B58BB0E4
:1025500000200790089009900A900590069001903D
:102560000290039004904FF0804025490860372086
:1025700048600021224881604FF6FF71C160002150
:1025800001618161FFF7ECFA08B1FDF747FF4FF4F5
:102590008050079007A91A48FFF766FB08B1FDF7BE
:1025A0003DFF1748FFF769FC08B1FDF737FF002032
:1025B0000590069005A91248FFF7A8FA08B1FDF7A3
:1025C0002DFF0020019001200290002003900320A5
:1025D0000490002201A90A48FFF7DFFB08B1FDF7CC
:1025E0001DFF02200190029000200490042201A906
:1025F0000348FFF7D2FB08B1FDF710FF0BB000BD99
:102600001001002000B58DB0002009900A900B90B9
:102610000C90079008901C216846FDF78CFD2D4812
:102620002D4908603720486000212B4881604FF613
:10263000FF71C160002101618161FFF791FA08B16A
:10264000FDF7ECFE4FF48050099009A92248FFF7EE
:102650000BFB08B1FDF7E2FE1F48FFF72FFD08B1A5
:10266000FDF7DCFE00200790089007A91A48FFF745
:102670004DFA08B1FDF7D2FE102000900020019025
:102680000220029000200490002269461248FFF7C1
:10269000DAFC08B1FDF7C2FE042269460E48FFF7D6
:1026A000D2FC08B1FDF7BAFE00200090029008228B
:1026B00069460948FFF7C7FC08B1FDF7AFFE0C22D9
:1026C00069460548FFF7BFFC08B1FDF7A7FE0DB04E
:1026D00000BD0000000800405001002010B50B486C
:1026E0000B4908604FF4E1304860002108488160E0
:1026F000C16001610C21416100218161C161FFF76D
:102700001FFD08B1FDF78AFE10BD00000048004023
:102710009001002000BFFEE7704710B5FEF7CAFD2C
:1027200010BD7047F8B506460F4614461D46FEF725
:10273000CBFC009014F8350038B90098304404EB15
:10274000C5014860012004F8350004EBC50040686D
:102750000099884203D8002004F83500B847F8BD36
:102760000146502901DD962070470A20FCE7000051
:1027700008B508490968C9084FF47A72B1FBF2F14B
:102780004143009100BF00BF00994A1E00920029FA
:10279000F9D108BDAC0000207047000010B54FF41F
:1027A00080410448FEF77AFC08B9012010BD0020E2
:1027B000FCE70000000C014010B500210948FFF7BC
:1027C000A5FC094948610846806A0865002005495A
:1027D00009684862044988620846806D401C886523
:1027E00010BD0000100100203800002070470000DC
:1027F00010B50446012C05D1002241030448FEF720
:102800005CFC04E0012251030148FEF756FC10BDB8
:10281000000C014010B540210148FEF747FC10BDF7
:102820000008014010B50446012C05D100228103A7
:102830000448FEF742FC04E0012291030148FEF740
:102840003CFC10BD000C014010B50446012C05D124
:10285000002241030448FEF730FC04E0012251034A
:102860000148FEF72AFC10BD000C014010B50446DB
:10287000012C05D1002241030448FEF71EFC04E0B0
:10288000012251030148FEF718FC10BD0010014061
:1028900010B50446012C05D1002201030448FEF7BF
:1028A0000CFC04E0012211030148FEF706FC10BDF8
:1028B000000C014010B50446012C05D10022810313
:1028C0000448FEF7FAFB04E0012291030148FEF7F9
:1028D000F4FB10BD000C014010B5FFF79BFF23482F
:1028E0004169006D01EB004020494861084640699C
:1028F0001F49884234D81D48406941F274418842DA
:102900002ED31A4840691B49B1FBF0F01749888063
:10291000084680884880084680884988401A00B266
:102920001249C880084640888988B0EB410F08DA10
:102930000E4840880D498988C0EB41000B49088149
:1029400002E0002009490881084800890749888079
:1029500008468169406D01EB00400449886101E04F
:1029600002484069FFF756FF10BD00003800002004
:102970002FFC0B002F82AE0410B5FEF7ABFB10BD91
:1029800000B593B0282109A8FDF7D5FB142104A8B0
:10299000FDF7D1FB002000900190029003900120F0
:1029A000099000040A9000200B9001200D90022055
:1029B0001090C10311914FF4E011129109A8FEF794
:1029C00057FE08B1FDF72AFD0F2004900220059064
:1029D000002006904FF480600790002008900221AC
:1029E00004A8FEF70FFD08B1FDF718FD02200090C6
:1029F000800302906846FEF76DFC08B1FDF70EFDFE
:102A000013B000BD1148006840F001000F49086094
:102A1000084640680E4908400C494860084600686E
:102A20000C490840094908600846006820F48020E5
:102A300008600846406820F4FE0048604FF41F001C
:102A40008860C80304490860704700000010024015
:102A50000000FFF8FFFFF6FE08ED00E010B50248A9
:102A6000FFF726FA10BD00001001002010B5024843
:102A7000FFF71EFA10BD00005001002010B50268DB
:102A8000184B984208D0B0F1804F05D0164B9842B1
:102A900002D0164B984203D122F070024B681A43C1
:102AA000104B984208D0B0F1804F05D00E4B9842A1
:102AB00002D00E4B984203D122F44072CB681A43E5
:102AC00022F080034C6943EA040202608B68C3620F
:102AD0000B688362034B984201D10B6903630123A6
:102AE000436110BD002C014000040040000800407C
:102AF00030B50C46816821F47F4142EA0325254325
:102B00002943816030BD0A46816821F0700142F09E
:102B1000070319438160704730B5056A25F0010548
:102B20000562026A4368846924F0700424F0030497
:102B30000D682C4322F002028D682A430D4DA842F5
:102B400006D100BF22F00802CD682A4322F0040219
:102B5000084DA84207D123F4807323F400734D6914
:102B60002B438D692B43436084614D68456302624A
:102B700030BD0000002C014030B5056A25F010057D
:102B80000562026A4368846924F4E04424F44074D2
:102B90000D6844EA052422F020028D6842EA0512FD
:102BA0000E4DA84207D100BF22F08002CD6842EA54
:102BB000051222F04002094DA84209D123F4806396
:102BC00023F400634D6943EA85038D6943EA850375
:102BD000436084614D688563026230BD002C014012
:102BE00030B5056A25F480750562026A4368C469D8
:102BF00024F0700424F003040D682C4322F40072C6
:102C00008D6842EA05220F4DA84207D100BF22F489
:102C10000062CD6842EA052222F48062094DA84292
:102C200009D123F4805323F400534D6943EA05137B
:102C30008D6943EA05134360C4614D68C563026250
:102C400030BD0000002C014030B5056A25F48055E8
:102C50000562036A4468C26922F4E04222F44072C9
:102C60000D6842EA052223F400538D6843EA0533D8
:102C7000064DA84204D124F480444D6944EA8514E9
:102C80004460C2614D680564036230BD002C0140A0
:102C900030B50B461446026A056A25F00105056247
:102CA000816921F0F00141EA041122F00A021A437D
:102CB0008161026230BD000070B50C461546066A9F
:102CC00026F0010606628169026A124EB04208D0FF
:102CD000B0F1804F05D0104EB04202D00F4EB0423E
:102CE00001D1012600E000261EB121F00301294395
:102CF00001E041F0010121F0F001F02606EA03169F
:102D0000314322F00A0204F00A0632438161026272
:102D100070BD0000002C014000040040000800408D
:102D200030B50B461446056A25F010050562816929
:102D3000026A21F4704141EA043122F0A00242EA21
:102D400003128161026230BD70B50C461546066AF9
:102D500026F0100606628169026A21F4407141EA98
:102D6000052121F470414FF4704606EA03363143E1
:102D700022F0A002A02606EA041632438161026214
:102D800070BD70B50C461546066A26F4807606625C
:102D9000C169026A21F00301294321F0F001F02604
:102DA00006EA0316314322F400724FF4007606EA75
:102DB00004263243C161026270BD70B50C461546EF
:102DC000066A26F480560662C169026A21F44071DF
:102DD00041EA052121F470414FF4704606EA0336BA
:102DE000314322F400524FF4005606EA04363243CF
:102DF000C161026270BD000010B5354890F8250031
:102E0000334991F82610401A40B2314981F8240024
:102E1000084690F924001E280EDD0120FFF738FD3A
:102E20002B4991F8240000F0CEF9294981F82F00B0
:102E300001202849087010E0254890F9240010F17D
:102E40001E0F0ADA224991F8240000F0B9F920494E
:102E500081F82F000120204908704FF47A721F4931
:102E60001C48007800F048F848B100201949087063
:102E7000FFF70EFD6420164981F82F000DE0C822EF
:102E800017491548007800F037F830B10020124992
:102E9000087064200E4981F82F000D4890F8250035
:102EA00014280ADA0A48808840F6C411884204DDF2
:102EB0000020074981F82D0003E00120044981F832
:102EC0002D00034890F82500014981F8260010BD27
:102ED0003800002005000020060000201C00002013
:102EE0002000002010B5FFF787FFFDF777F9FDF709
:102EF000ABF910BD704770472DE9F04105460C460F
:102F000016460027012D0CD1206818B9FEF7DCF811
:102F100030442060FEF7D8F82168884203D30127A7
:102F200001E0002020603846BDE8F08170B505461C
:102F300000241FE004EB440055F82000C0B1FEF768
:102F4000C3F804EB440155F82110884210D3002047
:102F500004EB440145F82100012004EB440105EB9A
:102F60008101087104EB440105EB81018868804709
:102F7000601CC4B2102CDDDB70BD10B50020FFF763
:102F800037FC10BD70B504462168096921F4405131
:102F9000E2681143226811612269A16811436269E4
:102FA00041EA02052168C96841F20C629143294354
:102FB0002268D1602168496921F44071A2691143F6
:102FC00022685161564A2168914254D1FEF7F6FABF
:102FD00000EBC00101EB001162689200B1FBF2F15D
:102FE00000EBC00202EB001263689B00B2FBF3F23D
:102FF0006423B2FBF3F202EBC20303EB0212A1EB78
:103000008201322202EB01116422B1FBF2F101F0E4
:10301000F00100EBC00202EB001263689B00B2FB00
:10302000F3F26423B2FBF3F201EB021200EBC001F6
:1030300001EB001163689B00B1FBF3F100EBC003EF
:1030400003EB00136668B600B3FBF6F36426B3FB2C
:10305000F6F303EBC30606EB0313A1EB8301322364
:1030600003EB01116423B1FBF3F101F00F011144F3
:103070002268916053E0FEF791FA00EBC00101EB8A
:10308000001162689200B1FBF2F100EBC00202EBAA
:10309000001263689B00B2FBF3F26423B2FBF3F20D
:1030A00002EBC20303EB0212A1EB8201322202EB1C
:1030B00001116422B1FBF2F101F0F00100EBC0025A
:1030C00002EB001263689B00B2FBF3F26423B2FBD5
:1030D000F3F201EB021200EBC00101EB0011636897
:1030E0009B00B1FBF3F100EBC00303EB0013666838
:1030F000B600B3FBF6F36426B3FBF6F303EBC306AB
:1031000006EB0313A1EB8301322303EB01116423CC
:10311000B1FBF3F101F00F0111442268916070BD21
:103120000038014000BFFEE702480068C0F30220FB
:10313000704700000CED00E010B5002804DB0A0722
:10314000130E054A135406E00A07140E034A00F052
:103150000F031B1FD45410BD00E400E018ED00E085
:1031600002E008C8121F08C1002AFAD17047704750
:10317000002001E001C1121F002AFBD170470000AE
:1031800010B50146002001EB41020C4B03EB82021B
:103190001279012A10D1002201EB4103074C04EB04
:1031A00083031A7101EB410344F8232001EB41032F
:1031B00004EB83039A60012010BD00002C02002064
:1031C000014650207047014678207047FDF78EFF7A
:1031D000FFF7D6FBFFF7DAF8FFF7BEF8FFF7B6F90F
:1031E000FFF710FAFFF75CF8FFF788F8FFF776FAB9
:1031F000FFF742F820E0114890F84F00012805D170
:10320000FFF76AFB00200D4981F84F0000230C4AAC
:103210000C491420FFF786FA0123094A0A49642061
:10322000FFF780FA0223064A08494FF47A70FFF745
:1032300079FA0748FFF77AFEDDE700003800002042
:1032400014020020E52E0008F52E0008F72E0008D5
:103250002C02002070B504460D461646FDF734FFDB
:10326000284404EB4401084A42F8210004EB4400DE
:10327000114601EB80008660002004EB440102EB64
:103280008101087170BD00002C02002000000000C8
:103290000000000001020304060708090000000006
:1032A00001020304C432000800000020B000000046
:1032B0006031000874330008B00000206006000090
:1032C0007031000800000000000000000000000055
:1032D00000000000000000000000000000000000EE
:1032E00000000000000000000000000000000000DE
:1032F00000000000000000000000000000000000CE
:1033000000000000000000000000000000000000BD
:1033100000000000000000000000000000000000AD
:10332000000000000000000000000000646464640D
:10333000646464A38400640034010000AA050000F2
:1033400000000000000000000A0A00000000000069
:10335000000000000000000000000000000000006D
:10336000000000000000000010000000010000004C
:043370000024F40041
:04000005080000ED02
:00000001FF
