:020000040800F2
:10000000A80A0020050100081D3F0008013600086D
:10001000193F000881030008E14B000800000000C0
:100020000000000000000000000000007540000813
:10003000F503000800000000693F0008694100085E
:100040001F010008613F00081F0100081F01000890
:10005000E3060008DD3F00081F0100081F0100083B
:100060001F0100081F0100081F0100089903000874
:10007000A9030008B90300081F0100081F010008B8
:100080001F0100081F010008910100081F0100085E
:100090001F0100081F0100081F010008F7030008E6
:1000A0001F0100081F0100081F0100081F010008B0
:1000B000514200081F010008614200081F010008AA
:1000C0001F0100081F0100081F0100081F01000890
:1000D0001F0100081F0100081F010008D14B000884
:1000E0001F0100081F0100081F010008DFF810D0E1
:1000F00000F03CF800480047294E0008AFF30080AC
:10010000A80A00200648804706480047FEE7FEE7A9
:10011000FEE7FEE7FEE7FEE7FEE7FEE7FEE7FEE7B7
:10012000F9410008ED000008202A04DB203A21FAFA
:1001300002F00021704721FA02F3D040C2F1200200
:100140009140084319467047D2B201E000F8012BF4
:10015000491EFBD270470022F6E710B513460A4647
:1001600004461946FFF7F0FF204610BD064C074D28
:1001700006E0E06840F0010394E807009847103477
:10018000AC42F6D3FFF7B6FF645200088452000871
:1001900010B5024800F0AFFD10BD0000B80400200B
:1001A00070B5044600252068806800F0010018B38F
:1001B0002068806820F001002168886001F018FD47
:1001C000054613E001F014FD401B02280ED92068FB
:1001D000806800F0010048B1A06A40F01000A06201
:1001E000E06A40F00100E062012070BD2068806894
:1001F00000F001000028E5D10020F6E770B50546C3
:100200006C6AA06A00F05000E0B9A06A40F4007087
:10021000A0622068806800F46020B0F5602F0DD1E6
:10022000207B58B9A06A20F48070A062A06A00F414
:10023000805018B9A06A40F00100A062204600F08A
:1002400057FD03E0206A016B2846884770BD70B5F2
:1002500005466C6AA06A40F04000A062E06A40F087
:100260000400E062204600F045FD70BD70B5044614
:10027000656A284600F03DFD70BD000038B50446B3
:100280000025002000902068806800F0010078BB05
:100290002068806840F00100216888601948006883
:1002A0001949B0FBF1F0009002E00098401E009068
:1002B00000980028F9D101F09BFC054619E001F0F7
:1002C00097FC401B022814D92068806800F00100C8
:1002D00078B9A06A40F01000A062E06A40F0010026
:1002E000E06200BF002084F8240000BF012038BD78
:1002F00005E02068806800F001000028DFD00020C1
:10030000F5E70000DC00002040420F001048C088E4
:100310000F498988401A00B20D4948810846B0F952
:100320000A00962802DD002048700CE00848B0F969
:100330000A0010F1960F03DA01200549487002E027
:100340000220034948700248C088014988807047EC
:100350005C00002010B5094A9189D089502200F034
:100360008DFA0649C8810846C089C0F1B40005214C
:1003700090FBF1F019300149087410BDC60100204E
:1003800000BFFEE70248808A024909688863704717
:10039000380000207405002010B5024800F084FFEA
:1003A00010BD0000E804002010B5024800F07CFFFA
:1003B00010BD00004406002010B5024800F074FF94
:1003C00010BD00000006002030B590F84050012418
:1003D000AC40C56B6C60046863604468102C04D149
:1003E0000468A2600468E16003E00468A160046836
:1003F000E26030BD704710B54FF4007001F042FA72
:1004000010BD000010B57E48007808287BD2DFE8D8
:1004100000F0042D3C467B9DBFDE03F0FDFD28B9B6
:10042000012003F047FE0120764908704FF4FA627C
:1004300075497448007804F0D9F9B0B100207149C9
:100440000870012003F01CFE40F2E93003F082F94D
:100450005A2003F0A8FD04466C4B224600216C484C
:1004600004F09EFD012066490870C6E0002168483E
:1004700004F053FC40B100206149C880012003F022
:100480003DFE02205E490870B7E05D48007A28B161
:10049000012060490870032059490870ADE05848B0
:1004A000C08840F24C41884215DD01205A4908704D
:1004B00040F6B83259495848007804F097F908B323
:1004C0000020554908705549086003F017FE0520C3
:1004D0004B49087016E04A484078012807D04FF48D
:1004E000FA624F494B48007804F080F950B100207F
:1004F000484908704A49086001204A4908700420A8
:100500003F49087079E077E03D48C088B0F5967FB4
:1005100007DB40F2DC5244494248007804F066F9B7
:1005200098B100203F4908703F490860344890F86E
:100530005000401C324981F850000020C880012042
:1005400003F0DCFD02202E49087056E02C48C088DC
:10055000B0F5E16F03DD0620294908700BE028485B
:10056000C08840F24C41884205DC042024490870D0
:1005700001202C4908702248007A40B90020204907
:10058000C880012003F0BAFD02201D49087034E044
:100590001B48C08842F6EC41884203DD0720184919
:1005A000087007E01648C088B0F5E16F02DC05204E
:1005B000134908701248007A40B900201049C880D9
:1005C000012003F09BFD02200D49087015E00C4846
:1005D000C088B0F52F5F02DC062009490870084882
:1005E000007A40B900200649C880012003F086FD4A
:1005F00002200349087000E000BF00BF10BD0000EA
:100600005C00002000000020080000206F48000867
:10061000F800002002000020030000201400002049
:1006200010000020040000201800002010B503F086
:1006300039FD21484169C06D01EB00401E49486108
:10064000084640691D49884233D81B48406941F239
:10065000744188422DD3184840691949B1FBF0F024
:100660001549C8800846C08888800846C08889889F
:10067000401A00B21049488108468088C988B0EB0A
:10068000410F08DA0C4880880B49C988C0EB41004B
:100690000949888102E0002007498881064880894D
:1006A0000549C88008468169006E01EB0040024997
:1006B000886103F0F7FC10BD5C0000202FFC0B00EC
:1006C0002F82AE040548808C9621484340F6FF7186
:1006D00090FBF1F0014981F828007047C601002025
:1006E000704710B500F090FF10BD00000021074AD0
:1006F000D1610749096941F00401054A11611146B8
:10070000096941F04001116170470000880600202E
:10071000002002400021074AD1610749096941F0E0
:100720000201054A116111464861096941F0400121
:100730001161704788060020002002400022054B0E
:10074000DA61054A126942F00102034B1A61018025
:1007500070470000880600200020024000201E494B
:10076000C96801F0100139B11C49C96941F00201A1
:100770001A4AD16140F010001749C96801F004011C
:1007800039B11649C96941F00101144AD16140F0FB
:1007900004001149C96901F0010169B10F49C96932
:1007A00041F004010D4AD16100BF0B49C96921F034
:1007B0000101094AD16100BF00BF40F20111884226
:1007C00006D10549C96921F00101034AD16101E05F
:1007D0000149C86000BF7047002002408806002021
:1007E00070B5044601F004FA054609E0601C38B112
:1007F00024B101F0FDF9401BA04201D9032070BDD6
:100800001248C06800F001000028EFD10F48C0680E
:1008100000F0200020B100BF20200C49C86000BFBC
:100820000A48C06800F0100048B90848C06900F0E4
:10083000010020B90548C06800F0040018B1FFF7B6
:100840008DFF0120DBE70020D9E7000000200240F7
:1008500010B50421074802F077FC07498861084673
:10086000C06C08660846406E022802D3012081F859
:100870002C0010BD2C0500205C00002030B5034684
:100880005C1A02FB04F0FF2590FBF5F04418A0B2BF
:1008900030BD09E002680A600A68521C12B90022E1
:1008A0000A6002E0001D091DF4E700BF7047000068
:1008B0002DE9F84F04468846154600262F4600F0DD
:1008C000C7FF204600F04AF9814604EB870A5046EC
:1008D00000F044F983460020154908600846C0F836
:1008E0000890ABEB0900012101EB90201049C86092
:1008F00069460F4800F028FE18B100F07FFEBDE801
:10090000F88F0EE058F826C06246002321460220E8
:1009100000F046FF10B9241D761C02E000F06EFEC8
:10092000EDE7BE42EEDB00F02FFF0020E7E700001E
:10093000F001002010B587480078022806D1002079
:1009400002F008FF00208349086401E18148007833
:10095000032865D18048807D462806DD002002F00E
:10096000F9FE00207B490864F2E07B4991F82800F9
:1009700004F02AFA7849097F01EB81014900754AA0
:1009800092F836205143734A92F835205143484338
:10099000714991F8221001F2111101EB4102C2EBF1
:1009A000411190FBF1F06B4908630846006BC98860
:1009B000484340F6B831B0FBF1F066490863084699
:1009C00090F8370091F82E1048436249096B42F2C3
:1009D00010725143B1FBF0F05E4988640846806CA8
:1009E000C8630846C06B40F27711B0FBF1F059497B
:1009F00048640846406C4FF4487148434FF47A719C
:100A0000B0FBF1F053490864086C4FF4487103F0EF
:100A100032FB50490864096C88B202F09BFE97E0F3
:100A20004C480078032890DD04F0FAF803F01EFE2D
:100A300003F07EFA474AD188474A107F04F0C1F993
:100A4000444981F834000A46D188434A107F04F0B3
:100A5000B5F9404981F82D003F4A917A3D4A92F814
:100A60002D0002F07DFE3C48007F4FF47A71484330
:100A7000384991F836104843364991F834104843C4
:100A8000354991F8221001F2111101EB4102C2EB3C
:100A9000411190FBF1F02F4908630846006BC988AB
:100AA000484340F6B831B0FBF1F02A4908630846E4
:100AB00090F8370091F82D1048432649096B42F20F
:100AC00010725143B1FBF0F022498864084690F857
:100AD0006A0091F8691048431E4991F86D10484327
:100AE0001C4991F8681048431A4991F86B10484323
:100AF0004FF47A7190FBF1F01649A1F86E000846A8
:100B0000806CB1F86E1048434FF47A71B0FBF1F08D
:100B10001049C8630846C06B40F27711B0FBF1F092
:100B20000C4948640846406C4FF4487148434FF400
:100B30007A71B0FBF1F007490864086C4FF4487112
:100B400003F099FA03490864096C88B202F002FEC6
:100B500010BD00005C000020C601002002460021FC
:100B60000FE0481C800200F10060904208D9880222
:100B700000F10060904203D8880200F100607047E5
:100B8000491C8029EDDB4FF0FF30F8E7704700008B
:100B900038B5024600230020009000BF92F82400E0
:100BA000012801D1022038BD012082F8240000BFB5
:100BB0004868072812D21068406B0C79641E04EB59
:100BC00084051F24AC40A0430D796D1E05EB8505FF
:100BD0000C68AC4020431468606327E048680D2827
:100BE00012D21068006B0C79E41F04EB84051F24FB
:100BF000AC40A0430D79ED1F05EB85050C68AC40BA
:100C000020431468206311E01068C06A0C790D3C21
:100C100004EB84051F24AC40A0430D790D3D05EB8A
:100C200085050C68AC4020431468E06208680A2817
:100C300012D31068C0680C780A3C04EB4405072402
:100C4000AC40A0430D780A3D05EB45058C68AC40EF
:100C500020431468E0600FE0106800690C7804EB32
:100C600044050724AC40A0430D7805EB45058C688E
:100C7000AC402043146820610868102802D008683E
:100C8000112827D1174C1068A0421ED11068806827
:100C900000F40000F0B91068806840F400001468A7
:100CA000A0600868102815D10F4800680F4CB0FBF1
:100CB000F4F000EB80004000009002E00098401E3D
:100CC000009000980028F9D104E0906A40F02000DC
:100CD0009062012300BF002082F8240000BF184664
:100CE00061E7000000240140DC00002040420F00CA
:100CF00070477047704710B504462068406800F0A0
:100D0000200020282FD12068006800F0020002286F
:100D100029D1A06A00F0100018B9A06A40F4007050
:100D2000A0622068806800F46020B0F5602F13D1C5
:100D3000207B88B92068406820F020002168486046
:100D4000A06A20F48070A062A06A00F4805018B9F4
:100D5000A06A40F00100A0622046FFF7C9FF6FF0D3
:100D60001200216808602068406800F08000802838
:100D70003BD12068006800F00400042835D1A06A47
:100D800000F0100018B9A06A40F40050A06220687A
:100D9000806800F4E040B0F5E04F0DD02068406876
:100DA00000F48060D0B92068806800F46020B0F55D
:100DB000602F13D1207B88B92068406820F0800024
:100DC00021684860A06A20F48050A062A06A00F404
:100DD000807018B9A06A40F00100A0622046FFF7B9
:100DE000D5FE6FF00C00216808602068406800F0B4
:100DF000400040280FD12068006800F0010050B189
:100E0000A06A40F48030A062204600F0A7F86FF09E
:100E100001002168086010BD2DE9F041044600275B
:100E200000250026A84614B90120BDE8F081A0687D
:100E300010B1207D00B100BFA06A30B90020E0628F
:100E400084F82400204600F08BF82046FFF7A8F92C
:100E50000746A06A00F01000002873D1002F71D15E
:100E6000A06A20F4885040F00200A062E169606846
:100E70000843217B40EA41000643A068B0F5807F2B
:100E800002D0A068012802D14FF4807000E0002059
:100E90000543207D012811D1207B38B9A069401E6F
:100EA0004FF4006141EA4030054307E0A06A40F09A
:100EB0002000A062E06A40F00100E0622068406823
:100EC00020F46940284321684860206880682149EF
:100ED0000840304321688860A068B0F5807F02D068
:100EE000A068012802D14FF4807000E00020B0F526
:100EF000807F03D1208A401E4FEA00582068C06AD4
:100F000020F4700040EA08002168C8622068806808
:100F100011490840B04208D10020E062A06A20F0E8
:100F2000020040F00100A06211E0A06A20F002007F
:100F300040F01000A062E06A40F00100E06201278A
:100F400005E0FFE7A06A40F01000A06201273846E4
:100F50006BE70000FDF7E1FFFE0E1FFF704700008A
:100F600010B586B0044600200290039004900590CE
:100F700026492068884246D100BF2548806940F450
:100F80000070234988610846806900F40070019070
:100F900000BF00BF00BF0846806940F004008861C0
:100FA0000846806900F00400019000BF00BF3F20A8
:100FB00002900320039002A9164800F071FC164825
:100FC0001649086000204860002114488160802193
:100FD000C1604900016189004161202181610021D6
:100FE000C16100F02FFA08B1FFF77AFB00BF0B4890
:100FF0002062446200BF00221146122000F09AFED7
:10100000122000F087FE06B010BD00000024014051
:10101000001002400008014008000240E8040020DF
:101020002DE9F04104460D46164600275749206831
:10103000884203D056492068884205D15348001D94
:10104000006800F4702000E0002000287ED100BF7E
:1010500094F82400012802D10220BDE8F08101208B
:1010600084F8240000BF2046FFF708F90746002F48
:101070006DD1A06A40F60161884340F48070A0629F
:1010800043492068884209D14048001D006800F4A7
:10109000702008B9012002E0002000E0012078B1B2
:1010A000A06A20F48010A0622068406800F480608C
:1010B00000B3A06A20F4005040F48050A06219E010
:1010C000A06A40F48010A06230492068884203D0B2
:1010D0002F492068884205D12C48001D006800F483
:1010E000806000E0002028B1A06A20F4005040F4A5
:1010F0008050A062A06A00F4805020B1E06A20F025
:101100000600E06201E00020E06200BF002084F8F9
:10111000240000BF1F48216A88621F48216AC862F4
:101120001E48216A08636FF0020021680860206889
:10113000806840F4807021688860226802F14C0168
:1011400033462A46206A00F0B1F901E01AE014E0C3
:101150002068806800F46020B0F5602F06D1206818
:10116000806840F4A000216888600CE020688068F6
:1011700040F480102168886005E000BF002084F8FA
:10118000240000E00127384667E700000024014002
:1011900000280140FD0100086D0200084F02000810
:1011A0000146002291F82100022808D0042088631B
:1011B00000BF002081F8200000BF012070470868B0
:1011C000006820F00E000B6818600868006820F0C6
:1011D00001000B68186091F8403001209840CB6BFB
:1011E0005860012081F8210000BF002081F8200014
:1011F00000BF1046E2E7000070B50446002594F8F1
:101200002100022803D00420A063012548E02068C3
:10121000006820F00E00216808602068006820F057
:101220000100216808601F492068884201D101201F
:1012300026E01C4914312068884201D110201FE0AB
:10124000184928312068884201D1801518E01549D5
:101250003C312068884201D1801411E0114950319D
:101260002068884202D14FF4803009E00D49643192
:101270002068884202D14FF4801001E04FF0807066
:10128000084908394860012084F8210000BF002087
:1012900084F8200000BF606B10B12046616B884766
:1012A000284670BD0800024070B50446E06B056832
:1012B0002068066894F840100420884028400028E0
:1012C00046D006F00400002842D02068006800F0F4
:1012D000200028B92068006820F004002168086018
:1012E00057492068884201D1042027E0544914312D
:1012F0002068884201D1402020E0514928312068EF
:10130000884201D1001519E04D493C3120688842DE
:1013100002D14FF4804011E04949503120688842A1
:1013200002D14FF4802009E04549643120688842A9
:1013300002D14FF4800001E04FF08060404908394D
:101340004860E06A00287AD02046E16A884776E063
:1013500094F84010022088402840A0B306F0020014
:1013600088B32068006800F0200040B92068006859
:1013700020F00A0021680860012084F8210030492B
:101380002068884201D1022028E02D4914312068CC
:10139000884201D1202021E0294928312068884253
:1013A00001D140151AE026493C312068884202D11B
:1013B0004FF4005012E0224950312068884203D196
:1013C0004FF400300AE017E01D496431206888427C
:1013D00002D14FF4001001E04FF0007018490839B5
:1013E000486000BF002084F8200000BFA06A30B32E
:1013F0002046A16A884722E094F8401008208840DF
:101400002840E0B106F00800C8B12068006820F06C
:101410000E002168086094F8401001208840E16BBC
:1014200048600120A06384F8210000BF002084F8F8
:10143000200000BF206B10B12046216B884770BD93
:10144000080002400146002209B901207047164BEE
:101450000868C01A1423B0FBF3F080000864124837
:101460000838C863022081F821000868026843F642
:10147000F0708243D1E901031843CB6818430B692C
:1014800018434B6918438B691843CB6918430243CF
:101490000868026000208863012081F82100002094
:1014A00081F8200000BFD1E7080002402DE9F0419B
:1014B00004460D4616461F464FF0000800BF94F83C
:1014C0002000012802D10220BDE8F081012084F82B
:1014D000200000BF94F8210001282CD1022084F8BC
:1014E00021000020A0632068006820F0010021682E
:1014F00008603B46324629462046FEF765FFE06A13
:1015000030B12068006840F00E00216808600BE0F0
:101510002068006820F004002168086020680068E6
:1015200040F00A00216808602068006840F001006F
:101530002168086006E000BF002084F8200000BF9A
:101540004FF002084046BFE72DE9F04104460E4641
:101550000127002500BF2648007E012802D1022075
:10156000BDE8F08101202249087600BF20680228EA
:1015700013D14CF25030FFF733F990BB0120FFF745
:10158000B5F84CF25030FFF72BF9074619480069BF
:1015900020F004001749086123E04CF25030FFF7B7
:1015A0001FF9F0B94FF0FF303060A56812E028460F
:1015B000FFF7B0F84CF25030FFF712F907460D482C
:1015C000006920F002000B4908610FB1356007E0A7
:1015D00005F58065D4E9021001EB8020A842E6D829
:1015E00000BF00BF00200249087600BF3846B7E7B9
:1015F0008806002000200240704700000148C069B2
:10160000704700008806002010B500245C48C068C0
:1016100000F0100020B95A48C06800F0040068B11A
:10162000584884684FF0FF3056498860FFF796F8B5
:10163000204600F0B3F80020524908705048C068B6
:1016400000F02000002828D000BF20204C49C860AE
:1016500000BF4C48007800287ED04A480078012816
:1016600027D148484068401E4649486008464068BF
:10167000A0B1084684682046FFF7BEFF4148806855
:1016800000F580643F4884603D48006920F0020016
:101690003B4908612046FFF73DF85DE04FF0FF3021
:1016A000044638498860002008702046FFF7A4FFF0
:1016B00052E03448007802280CD13148006920F00B
:1016C00004002F4908610020FFF796FF00202D49F4
:1016D000087041E02B484068401E2A49486008468F
:1016E0004068D8B108468068801C886008468468D5
:1016F00008694969000C40EA0140090C214A10615F
:1017000051611F48006920F001001D4908611069FE
:10171000526981B22046FFF711F81DE019480078A0
:10172000032804D117498868FFF766FF0EE01548C3
:101730000078042805D113498968881EFFF75CFFEB
:1017400004E010498968881FFFF756FF4FF0FF300B
:101750000C498860002008700A48007878B9084869
:10176000006920F00700064908610846006920F476
:10177000A050086100BF00200249087600BF10BDDC
:1017800000200240880600200348006940F08000E5
:1017900001490861002070470020024070470000A6
:1017A0002DE9FE4F05468B46174698460126002434
:1017B0000020029000BF2448007E012802D10220B0
:1017C000BDE8FE8F01202049087600BF4CF2503062
:1017D000FFF706F8064686BB012D02D101200290D4
:1017E00006E0022D02D10220029001E004200290C6
:1017F00000241EE02201B946C24648465146FEF783
:1018000093FC80B20190022000FB04B0009001998B
:10181000FEF794FF4CF25030FEF7E2FF06460B480D
:10182000006920F001000949086106B104E0601C6C
:10183000C4B202988442DDDB00BF00BF0020024931
:10184000087600BF3046BBE7880600200020024033
:1018500000200849096901F0800151B10649054A93
:101860005160064951601146096901F0800101B1DA
:10187000012070470020024023016745AB89EFCD6E
:101880007047000010B5044604480068204020B1AD
:10189000024804602046FFF7F3FF10BD1404014026
:1018A0002DE9F8470346002294466EE14FF0010807
:1018B00008FA02F4D1F8008008EA0400A0427DD1C1
:1018C000DFF8DCA2D1F80480A8EB0A09D0453AD0B1
:1018D00014DCB8F1030F50D009DCB8F1000F31D09F
:1018E000B8F1010F1CD0B8F1020F49D120E0B8F1D6
:1018F000110F18D0B8F1120F42D11EE0B9F5881FB0
:1019000025D006DCB9F5803F20D0B9F5801F37D14E
:101910001AE0B9F5001F18D0B9F5041F30D117E04F
:10192000D1F80CC02DE0D1F80C8008F1040C28E0AF
:10193000D1F80C8008F1080C23E0D1F80C8008F1F4
:101940000C0C1EE000BF00BF00BF00BF00BF00BF07
:10195000D1F80880B8F1000F02D14FF0040C0BE071
:10196000D1F80880B8F1010F03D14FF0080C1C61C9
:1019700002E04FF0080C5C6103E04FF0000C00E067
:1019800000BF00BFFF2801D8984601E003F104081A
:101990004646FF2802D84FEA820803E0A2F1080871
:1019A0004FEA88084746D6F800804FF00F0909FA39
:1019B00007F928EA09080CFA07F900E088E048EA84
:1019C0000908C6F80080D1F8048008F08058B8F102
:1019D000805F7DD100BFDFF8CC81D8F8188048F057
:1019E0000108DFF8C091C9F81880C846D8F81880F7
:1019F00008F00108CDF8008000BF00BF4FEAB938F9
:101A00004FEA920958F829504FEA82784FEA18793C
:101A10004FF00F0808FA09F825EA0805DFF8888171
:101A2000434502D14FF0000816E0DFF880814345BE
:101A300002D14FF001080FE0DFF87481434502D175
:101A40004FF0020808E0DFF86C81434502D14FF007
:101A5000030801E04FF004084FEA82794FEA197950
:101A600008FA09F848EA0505DFF84C814FEA9209BF
:101A700048F82950D1F8048008F48038B8F5803F40
:101A80000AD1DFF83881D8F8008048EA0008DFF88A
:101A90002C91C9F8008009E0DFF82081D8F8008097
:101AA00028EA0008DFF81491C9F80080D1F8048012
:101AB00008F40038B8F5003F10D1DFF8008108F1D4
:101AC0000408D8F8008048EA0008DFF8F09000E049
:101AD0005AE009F10409C9F800800DE0DFF8DC8064
:101AE00008F10408D8F8008028EA0008DFF8CC9054
:101AF00009F10409C9F80080D1F8048008F48018BD
:101B0000B8F5801F0ED1DFF8B48008F10808D8F8C6
:101B1000008048EA0008DFF8A49009F10809C9F834
:101B200000800DE0DFF8948008F10808D8F8008004
:101B300028EA0008DFF8849009F10809C9F8008054
:101B4000D1F8048008F40018B8F5001F0ED1DFF8B2
:101B50006C8008F10C08D8F8008048EA0008DFF82B
:101B60005C9009F10C09C9F800800DE0DFF84C80A9
:101B700008F10C08D8F8008028EA0008DFF83C904B
:101B800009F10C09C9F80080521CD1F8008028FA2C
:101B900002F8B8F1000F7FF489AEBDE8F8870000C5
:101BA000000011100010024000080140000C01402C
:101BB00000100140001401400800014000040140F1
:101BC000024693680B400BB1012000E000207047F3
:101BD00010B5C26821EA020302EA010443EA0443A1
:101BE000036110BD0AB1016101E00B04036170479C
:101BF0000148006870470000D000002003480068DA
:101C0000034909780844014908607047D000002062
:101C1000D800002010B50848006840F010000649C0
:101C20000860032000F0C4F8022000F007F800F07C
:101C30002BF8002010BD00000020024070B50446C3
:101C40000E4800784FF47A71B1FBF0F00C49096846
:101C5000B1FBF0F5284600F0D1FC08B1012070BDC1
:101C6000102C07D200222146501E00F063F80548D0
:101C7000046001E00120F2E70020F0E7D800002036
:101C8000DC000020D400002008B500BF1F48806998
:101C900040F001001D4988610846806900F001009C
:101CA000009000BF00BF00BF0846C06940F08050F0
:101CB000C8610846C06900F08050009000BF00BFB6
:101CC000042000F075F800221146012000F032F8DF
:101CD000012000F01FF800221146042000F02AF82D
:101CE000042000F017F800221146052000F022F829
:101CF000052000F00FF800BF0549486820F0E060BB
:101D000040F00070486000BF08BD000000100240B5
:101D10000000014001460846002809DB00F01F03CF
:101D200001229A4043099B0003F1E023C3F80021FC
:101D300000BF70472DE9F05F80460D46164600272C
:101D400002F090FF074639462A46334601F0070065
:101D5000C0F1070ABAF1040F02D94FF0040A01E0FA
:101D6000C0F1070AD14600F1040ABAF1070F02D206
:101D70004FF0000A01E0A0F1030AD4464FF0010A37
:101D80000AFA09FAAAF1010A0AEA020A0AFA0CFA9C
:101D90004FF0010B0BFA0CFBABF1010B0BEA030B41
:101DA0004AEA0B042146404602F064FFBDE8F09F7A
:101DB00000BF00F00702064B19684FF6FF031940F9
:101DC000044B0B4343EA0221014B196000BF7047EB
:101DD0000CED00E00000FA057047000010B5064861
:101DE000006800F4803028B1FFF7F6FF4FF4803030
:101DF0000149086010BD000014040140F8B5044614
:101E000000260025207800F0010000286BD0002774
:101E10004348C06900F0805070B900BF4048C069B5
:101E200040F080503E49C8610846C06900F08050CB
:101E3000009000BF00BF01273A48006800F480709E
:101E4000B0B93848006840F4807036490860FFF740
:101E5000CFFE064606E0FFF7CBFE801B642801D9C3
:101E60000320F8BD2F48006800F480700028F2D0ED
:101E70002B48006A00F440752DB3A08800F4407030
:101E8000A84220D02648006A20F440750120264947
:101E90000860002008602248056205F0010090B14A
:101EA000FFF7A6FE064608E0FFF7A2FE801B41F200
:101EB0008831884201D90320D3E71948006A00F02D
:101EC00002000028F0D01648006A20F440706168D3
:101ED000084313490862012F04D10846C06920F065
:101EE0008050C86100BF207800F00200022807D1AE
:101EF0000B48406820F44040A16808430849486006
:101F0000207800F01000102807D10548406820F420
:101F10008000E1680843024948600020A1E7000012
:101F200000100240007000404004424270B5044678
:101F30000D460CB9012070BD5A48006800F007003A
:101F4000A8420ED25748006820F0070028435549A0
:101F500008600846006800F00700A84201D0012090
:101F6000E9E7207800F0020002281DD1207800F077
:101F70000400042805D14C48406840F4E0604A4918
:101F80004860207800F00800082805D146484068DD
:101F900040F46050444948604348406820F0F000F5
:101FA000A168084340494860207800F0010078B3F8
:101FB0006068012806D13C48006800F4003090B900
:101FC0000120B8E76068022806D13748006800F0B1
:101FD000007040B90120AEE73348006800F002000D
:101FE00008B90120A7E73048406820F00300616885
:101FF00008432D494860FFF7FBFD064609E0FFF75F
:10200000F7FD801B41F28831884202D9032092E714
:1020100007E02548406800F00C006168B0EB810FD4
:10202000EDD12048006800F00700A8420ED91D48F5
:10203000006820F0070028431A4908600846006835
:1020400000F00700A84201D0012074E7207800F0DA
:102050000400042807D11448406820F4E060E168D7
:10206000084311494860207800F00800082808D18A
:102070000D48406820F46050216940EAC1000A49D7
:10208000486000F03FF808494968C1F30311074A66
:10209000515CC8400649086006480068FFF7CEFD5D
:1020A000002048E700200240001002404C52000887
:1020B000DC000020D40000200148006870470000C8
:1020C000DC00002000B5FFF7F7FF04494968C1F3C1
:1020D0000221034A515CC84000BD000000100240CC
:1020E0005C52000800B5FFF7E7FF04494968C1F3F7
:1020F000C221034A515CC84000BD000000100240EC
:102100005C520008F0B585B00FF26C0C9CE8E01052
:1021100001A8A0E8E0101CA52D6800950021002270
:10212000002300240020194D696801F00C05F5B169
:10213000042D02D0082D19D101E0154819E001AD98
:10214000C1F38346AC5D01F4803555B10F4D6D6828
:10215000C5F340451DF805200D4D6543B5FBF2F371
:1021600002E00C4D04FB05F3184602E000BF0848EE
:1021700000BF00BF05B0F0BD020304050607080953
:102180000A0B0C0D0E0F101001020000001002408F
:1021900000127A0000093D00F8B504460CB9012090
:1021A000F8BD207800F00100002878D0F848406899
:1021B00000F00C0004280CD0F548406800F00C003A
:1021C000082811D1F248406800F48030B0F5803F13
:1021D0000AD1EF48006800F4003000285FD0606842
:1021E00000285CD10120DBE700BF6068B0F5803FCC
:1021F00006D1E748006840F48030E549086028E0EF
:10220000606858B9E248006820F48030E04908600E
:102210000846006820F4802008601AE06068B0F585
:10222000A02F0BD1DA48006840F48020D84908601C
:102230000846006840F4803008600AE0D44800682E
:1022400020F48030D24908600846006820F48020DD
:10225000086000BF606888B1FFF7CAFC054606E069
:10226000FFF7C6FC401B642801D9032098E7C84843
:10227000006800F400300028F2D010E0FFF7B8FC4E
:10228000054606E0FFF7B4FC401B642801D9032093
:1022900086E7BF48006800F400300028F2D12078BB
:1022A00000F00200022857D1B948406800F00C0045
:1022B00050B1B748406800F00C00082818D1B44865
:1022C000406800F4803098B9B148006800F002001E
:1022D00020B12069012801D0012061E7AC480068E5
:1022E00020F0F800616940EAC100A949086033E0C4
:1022F0002069E8B10120A7490860FFF779FC05468D
:1023000006E0FFF775FC401B022801D9032047E7D0
:102310009F48006800F002000028F2D09C48006846
:1023200020F0F800616940EAC1009949086013E0B3
:10233000002098490860FFF75BFC054606E0FFF7C0
:1023400057FC401B022801D9032029E79048006868
:1023500000F002000028F2D1207800F008000828E0
:102360002DD1A069B8B101208B490860FFF740FC6E
:10237000054606E0FFF73CFC401B022801D903207C
:102380000EE78348406A00F002000028F2D00120E6
:1023900001F010FE13E000207F490860FFF728FCE1
:1023A000054606E0FFF724FC401B022801D9032064
:1023B000F6E67748406A00F002000028F2D1207863
:1023C00000F00400042873D100277148C06900F0B0
:1023D000805070B900BF6E48C06940F080506C49B1
:1023E000C8610846C06900F08050009000BF00BF7F
:1023F00001276A48006800F48070B0B96748006837
:1024000040F4807065490860FFF7F2FB054606E07E
:10241000FFF7EEFB401B642801D90320C0E65F48AC
:10242000006800F480700028F2D000BFE068012846
:1024300006D15748006A40F001005549086227E07C
:10244000E06858B95248006A20F00100504908621B
:102450000846006A20F00400086219E0E0680528D8
:102460000BD14B48006A40F0040049490862084615
:10247000006A40F0010008620AE04548006A20F066
:102480000100434908620846006A20F0040008621F
:1024900000BFE068A0B1FFF7ABFB054609E0FFF71E
:1024A000A7FB401B41F28831884202D9032077E61E
:1024B00022E03748006A00F002000028EFD012E066
:1024C000FFF796FB054608E0FFF792FB401B41F241
:1024D0008831884201D9032062E62D48006A00F065
:1024E00002000028F0D1012F05D12948C06920F051
:1024F00080502749C86100BFE069C8B324484068DC
:1025000000F00C00082860D0E069022848D10020C3
:1025100020490866FFF76CFB054606E0FFF768FBFD
:10252000401B022801D903203AE61948006800F050
:1025300000700028F2D1206AB0F5803F07D114481E
:10254000406820F40030A168084311494860D4E98C
:10255000080108430E49496821F4741108430C49E5
:10256000486001200B490866FFF742FB054607E07B
:102570003DE0FFF73DFB401B022801D903200FE699
:102580000348006800F000700028F2D02FE000003F
:1025900000100240000042428004424200700040AD
:1025A000002014490866FFF723FB054606E0FFF705
:1025B0001FFB401B022801D90320F1E50E480068EB
:1025C00000F000700028F2D111E0E069012800D18C
:1025D000E6E50948466806F48031206A814204D164
:1025E00006F47011606A814201D00120D8E5002014
:1025F000D6E50000000042420010024070B50446DB
:102600002546681EB0F1807F01D301200FE0681ECF
:102610004FF0E02148610F214FF0FF3002F02AFB1C
:1026200000204FF0E021886107200861002070BD84
:102630007047704730B502460B4600BF92F83C0029
:10264000012801D1022030BD012082F83C0000BFEA
:10265000022082F83D00106844681068816824F008
:1026600070041868044310684460104D1068A84254
:102670000BD01068B0F1804F07D00D4D1068A84204
:1026800003D00C4D1068A84205D121F08001586894
:10269000014310688160012082F83D0000BF0020E6
:1026A00082F83C0000BF00BFCDE70000002C0140D5
:1026B000000400400008004010B504460CB9012099
:1026C00010BD94F83D0028B9002084F83C00204655
:1026D00000F026F8022084F83D00211D206801F05A
:1026E000C7FD012084F8460000BF84F83E000121A8
:1026F0003F200155402001554120015500BF00BF3A
:10270000012084F842004320015544200155452012
:10271000015500BF012084F83D000020D0E70000F3
:1027200010B586B0044600200290039004900590F6
:102730002068B0F1804F39D100BF2A48C06940F00D
:1027400001002849C8610846C06900F001000190F5
:1027500000BF00BF00BF0846806940F004008861E8
:102760000846806900F00400019000BF00BF4FF4EC
:1027700000400290002003900120049002A91A4812
:10278000FFF78EF800BF1949486820F4407040F008
:10279000E06040F48070486000BF002211461C20B9
:1027A000FFF7C8FA1C20FFF7B5FA19E010492068B6
:1027B000884215D100BF0B48C06940F004000949A8
:1027C000C8610846C06900F00400019000BF00BF66
:1027D000002201211E20FFF7ADFA1E20FFF79AFA12
:1027E00006B010BD0010024000080140000001408A
:1027F00000080040014691F83D00012801D0012069
:102800007047022081F83D000868C06840F0010070
:102810000B68D860124B086898420BD00868B0F17A
:10282000804F07D00F4B0868984203D00E4B0868C2
:1028300098420CD10868806800F00702062A0CD084
:102840000868006840F001000B68186005E008683F
:10285000006840F001000B6818600020D0E700001D
:10286000002C014000040040000800402DE9F04128
:1028700004460D4600BF94F83C00012802D1022016
:10288000BDE8F081012084F83C0000BF022084F8FC
:102890003D002068866826F0770626F47F4620688B
:1028A00086602868502833D00CDC202850D004DC07
:1028B00000284BD0102851D149E0302849D0402879
:1028C0004CD139E060282DD0702807D0B0F5805F5A
:1028D00003D0B0F5005F41D10DE040E0D5E902132F
:1028E0006A68206801F00FFD2068866846F0770668
:1028F0002068866033E0D5E902136A68206801F039
:1029000002FD2068806840F480402168886026E0ED
:10291000EA686968206801F0C7FD5021206801F06D
:10292000FDFC1CE0EA686968206801F005FE602192
:10293000206801F0F3FC12E0EA686968206801F0A1
:10294000B3FD4021206801F0E9FC08E000BF00BFB2
:1029500000BF2968206801F0E1FC00E000BF00BF73
:10296000012084F83D0000BF002084F83C0000BF37
:1029700000BF85E710B504462068B0F1804F04D150
:10298000207F012801D101F055FB2068B0F1804F74
:1029900004D1207F022801D1FDF75AFF10BD2DE997
:1029A000F04104460D46164600BF94F83C0001284D
:1029B00002D10220BDE8F081012084F83C0000BF74
:1029C00096B9EB68D5E90012206801F081FD206816
:1029D000806920F00C002168886120688069A968FE
:1029E0000843216888613DE0042E13D1EB68D5E9E6
:1029F0000012206801F0B4FD2068806920F4406076
:102A00002168886120688069A96840EA01202168FE
:102A1000886127E0082E12D1EB68D5E90012206802
:102A200001F0BBFD2068C06920F00C002168C8617E
:102A30002068C069A96808432168C86112E0EB6892
:102A4000D5E90012206801F0C4FD2068C06920F4B7
:102A500040602168C8612068C069A96840EA012017
:102A60002168C86100BF002084F83C0000BF00BF9F
:102A7000A0E710B504460CB9012010BD94F83D0044
:102A800028B9002084F83C00204600F025F80220F8
:102A900084F83D00211D206801F0EAFB012084F844
:102AA000460000BF84F83E0001213F200155402030
:102AB00001554120015500BF00BF012084F84200AC
:102AC00043200155442001554520015500BF0120F8
:102AD00084F83D000020D0E7704700002DE9F04168
:102AE00004460D4615B994F83E000BE0042D02D1C2
:102AF0003F20005D06E0082D02D14020005D01E08E
:102B00004120005D074615B994F842000BE0042D02
:102B100002D14320005D06E0082D02D14420005D73
:102B200001E04520005D8046012F02D1B8F1010F80
:102B300002D00120BDE8F0811DB9022084F83E00DA
:102B40000EE0042D03D102213F20015508E0082D9D
:102B500003D102214020015502E00221412001550C
:102B60001DB9022084F842000EE0042D03D1022199
:102B70004320015508E0082D03D1022144200155CE
:102B800002E002214520015535B1042D0BD0082D5E
:102B900010D00C2D1CD114E02068C06840F0020059
:102BA0002168C86015E02068C06840F00400216812
:102BB000C8600EE02068C06840F008002168C86066
:102BC00007E02068C06840F010002168C86000E09D
:102BD00000BF00BF01222946206801F083FB124993
:102BE000206888420BD02068B0F1804F07D00F4991
:102BF0002068884203D00E49206888420CD12068A2
:102C0000806800F00706062E0CD02068006840F0AF
:102C100001002168086005E02068006840F00100BC
:102C200021680860002085E7002C01400004004076
:102C30000008004010B5044620680069C0F3400059
:102C4000D8B12068C068C0F34000B0B16FF0020096
:102C500021680861012020772068806900F0030066
:102C600018B12046FFF786FE05E0204600F00EF979
:102C7000204600F0F2F90020207720680069C0F3B8
:102C80008000D8B12068C068C0F38000B0B16FF098
:102C9000040021680861022020772068806900F420
:102CA000407018B12046FFF765FE05E0204600F0B1
:102CB000EDF8204600F0D1F9002020772068006967
:102CC000C0F3C000D8B12068C068C0F3C000B0B184
:102CD0006FF0080021680861042020772068C0692F
:102CE00000F0030018B12046FFF744FE05E020463F
:102CF00000F0CCF8204600F0B0F9002020772068E2
:102D00000069C0F30010D8B12068C068C0F300109B
:102D1000B0B16FF0100021680861082020772068AA
:102D2000C06900F4407018B12046FFF723FE05E0AB
:102D3000204600F0ABF8204600F08FF90020207705
:102D40002068006900F0010058B12068C06800F0F8
:102D5000010030B16FF0010021680861204600F0E9
:102D6000E7F920680069C0F3C01058B12068C06856
:102D7000C0F3C01030B16FF08000216808612046B8
:102D8000FFF756FC20680069C0F3801058B1206836
:102D9000C068C0F3801030B16FF040002168086156
:102DA000204600F0EAF920680069C0F3401058B1ED
:102DB0002068C068C0F3401030B16FF02000216877
:102DC00008612046FFF735FC10BD000010B586B045
:102DD0000446002002900390049005900E4920685C
:102DE000884216D100BF0D48806940F008000B49A9
:102DF00088610846806900F00800019000BF00BFAC
:102E0000C020029002200390059002A90448FEF71A
:102E100047FD06B010BD0000000800400010024051
:102E2000000C014070B504460E46154600BF94F8EC
:102E30003C00012801D1022070BD012084F83C0033
:102E400000BF35B1042D09D0082D0CD00C2D14D1A4
:102E50000EE03146206801F06BFA0FE03146206841
:102E600001F096FA0AE03146206801F0C5FA05E063
:102E70003146206801F0F4FA00E000BF00BF00BF57
:102E8000002084F83C0000BF00BFD5E7704710B5B4
:102E900004460CB9012010BD94F83D0028B900206B
:102EA00084F83C00204600F025F8022084F83D001C
:102EB000211D206801F0DCF9012084F8460000BFE4
:102EC00084F83E0001213F2001554020015541205A
:102ED000015500BF00BF012084F842004320015586
:102EE000442001554520015500BF012084F83D00D4
:102EF0000020D0E7704770B504460D46164600BF67
:102F000094F83C00012801D1022070BD012084F812
:102F10003C0000BF36B1042E1BD0082E31D00C2E41
:102F20005ED145E02946206801F002FA20688069F8
:102F300040F00800216888612068806920F0040062
:102F4000216888612068806929690843216888614F
:102F500047E02946206801F01BFA2068806940F4A8
:102F60000060216888612068806920F480602168A1
:102F7000886120688069296940EA012021688861A8
:102F80002FE02946206801F037FA2068C06940F038
:102F900008002168C8612068C06920F00400216829
:102FA000C8612068C069296908432168C86118E0C0
:102FB0002946206801F054FA2068C06940F4006096
:102FC0002168C8612068C06920F480602168C861F8
:102FD0002068C069296940EA01202168C86100E0D1
:102FE00000BF00BF00BF002084F83C0000BF00BF4E
:102FF0008BE710B504460CB9012010BD94F83D00D4
:1030000028B9002084F83C00204600F025F8022072
:1030100084F83D00211D206801F02AF9012084F880
:10302000460000BF84F83E0001213F2001554020AA
:1030300001554120015500BF00BF012084F8420026
:1030400043200155442001554520015500BF012072
:1030500084F83D000020D0E77047704770B5044603
:103060000D4615B994F83E000BE0042D02D13F2027
:10307000005D06E0082D02D14020005D01E0412006
:10308000005D012801D0012070BD1DB9022084F827
:103090003E000EE0042D03D102213F20015508E03F
:1030A000082D03D102214020015502E002214120D8
:1030B000015501222946206801F014F919492068B8
:1030C000884201D1012000E0002028B12068406C36
:1030D00040F40040216848641249206888420BD0BF
:1030E0002068B0F1804F07D00F492068884203D094
:1030F0000E49206888420CD12068806800F00706DD
:10310000062E0CD02068006840F00100216808609D
:1031100005E02068006840F0010021680860002098
:10312000B2E70000002C014000040040000800400D
:103130000168B1F1804F04D10249C96C491C014AB0
:10314000D16470475C0000200246002031B10429A0
:1031500007D0082908D00C290CD108E01368586B57
:1031600009E01368986B06E01368D86B03E01368F6
:10317000186C00E000BF00BF704770477047000048
:1031800003490978491C49B2014A1170704700008F
:10319000CF0000202DE9F84F04462068056820681C
:1031A000C668206847694FF00009CA4605F00F0954
:1031B000B9F1000F0AD105F0200038B106F0200067
:1031C00020B1204601F0E4FBBDE8F88FB9F1000F13
:1031D00071D007F0010018B906F4907000286AD089
:1031E00005F0010030B106F4807018B1206C40F099
:1031F0000100206405F0040030B107F0010018B1AF
:10320000206C40F00200206405F0020030B107F0AD
:10321000010018B1206C40F00400206405F00800A3
:1032200048B106F0200010B907F0010018B1206C79
:1032300040F008002064206C68B305F0200028B13D
:1032400006F0200010B1204601F0A2FB2068406982
:10325000C0F3801A206C00F0080010B9BAF1000F1A
:1032600022D0204601F05FFB2068406900F040005A
:10327000B0B12068406920F0400021684861A06B2F
:1032800050B15648A16B4863A06BFDF7B5FF10B174
:10329000A06B416B88470CE02046FFF771FF08E008
:1032A0002046FFF76DFF04E02046FFF769FF00208E
:1032B000206489E7FFE7206B012878D105F0100032
:1032C000002874D006F01000002870D000BF002045
:1032D000009020680068009020684068009000BF5F
:1032E00000BF2068406900F04000C0B3A06B0068D8
:1032F00040681FFA80F8B8F1000F2FD0A08D40452C
:103300002CDDA4F82E80A06B806920281FD02068B7
:10331000C06820F480702168C8602068406920F08F
:103320000100216848612068406920F04000216860
:103330004861202084F83E00002020632068C06897
:1033400020F010002168C860A06BFDF729FFA08D58
:10335000E28D801A81B22046FFF710FF34E7FFE7C5
:10336000A08DE18D401A1FFA80F8E08DE8B1B8F128
:10337000000F1AD02068C06820F490702168C860DF
:103380002068406920F0010021684861202084F80D
:103390003E00002020632068C06820F010002168F3
:1033A000C86041462046FFF7E9FE0DE7FFE705F05C
:1033B000800030B106F0800018B1204601F0D8FB43
:1033C00002E705F0400030B106F0400018B1204699
:1033D00001F0C4FAF8E600BFF6E600007F480008F6
:1033E00010B504460CB9012010BDA06900B100E081
:1033F00000BF94F83D0028B9002084F83C00204626
:1034000000F028F8242084F83D002068C06820F4EB
:1034100000502168C860204601F02CFB206800693C
:1034200020F49040216808612068406920F02A005B
:10343000216848612068C06840F400502168C86075
:1034400000202064202084F83D0084F83E00002005
:10345000CAE7000010B586B0044600200290039031
:103460000490059037492068884269D100BF3648EA
:10347000C06940F480203449C8610846C06900F43E
:103480008020019000BF00BF00BF0846806940F067
:10349000080088610846806900F00800019000BFBC
:1034A00000BF08150290022003900320059002A996
:1034B0002648FEF7F5F94FF40060029000200390D3
:1034C000049002A92148FEF7EBF921482149086040
:1034D0000020486000211F4881608021C1600021D8
:1034E000016141618161C161FDF7ACFF08B1FDF788
:1034F000F7F800BF1748A063446200BF14481438AF
:10350000154908601020486000211348816080211F
:10351000C1600021016141618161C161FDF792FFDC
:1035200008B1FDF7DDF800BF0B486063446200BFDF
:10353000002211462720FEF7FDFB2720FEF7EAFBBD
:1035400006B010BD0048004000100240000C0140D1
:1035500030000240000600204406002070470000B2
:10356000F7B50446154694F83D0020283DD1019852
:1035700000B10DB90120FEBD00BF94F83C00012848
:1035800001D10220F7E7012084F83C0000BF019838
:103590002062A584E58400202064212084F83D0079
:1035A0001348616B88621348616BC8621248616B93
:1035B00008630020616B486301AE23681A1D3168FF
:1035C0002B46606BFDF772FF6FF0400021680860CA
:1035D00000BF002084F83C0000BF2068406940F034
:1035E0008000216848610020C5E70220C3E7000091
:1035F000E3480008194900089348000870477047DD
:1036000000BFFEE710B5002000F078FD002000F0BC
:1036100087FD002000F060FD002000F093FD0020F9
:1036200000F048FD002000F02BFD002000F092F893
:1036300010BD000000B50023224991F8280001F0D8
:10364000B3FB2149C988431A2048836100690028D7
:1036500009DB1E480069B0F52F6F04D81B4840688D
:1036600018441A494860194800891849C9894843CB
:10367000584316498989154A52895143134A526859
:1036800001FB020111484089104AD289504391FB45
:10369000F0F00E49086108460069002808DB08467A
:1036A0000069B0F52F6F03D808460069888202E0F0
:1036B0000020064988820548808A05490968886390
:1036C00000BD0000C60100205C0000203800002082
:1036D0007405002000B51748807D1E2829DA164899
:1036E0000078082823D2DFE800F0040508090A1052
:1036F0001B1C00BF00F038F900BF00BF00BFFCF783
:1037000041FE01200D49087012E00C48007820B1FC
:1037100000200A49087001F0EBFBFFF78BFF07E080
:1037200000BF00F0FDFB01200449087000E000BF6D
:1037300000BF00BDC60100205C0000205400002036
:103740000248B0F842000249088770470002002092
:103750005C00002001490968486370477405002037
:10376000444A92782AB1444A127812B9434A1278EC
:1037700002B17047424A927A462A04DD00223D4B4C
:1037800083F82B200CE03E4A927A1E2A04DA0122AA
:10379000384B83F82B2003E00222364B83F82B2092
:1037A000642804D1334A92F82B20022A04D16422DF
:1037B000304B83F86D20DCE72E4A92F82B20314BFA
:1037C0001B789A4203D064222A4B83F86D20294A41
:1037D00092F82B2012B1012A42D120E0254A92F81A
:1037E0006D205A2A13DC234A92F859203AB90A224A
:1037F000204B83F85920642283F86D200EE01D4A87
:1038000092F85920521E1B4B83F8592006E0194AA2
:1038100092F86D20521E174B83F86D2021E0154A57
:1038200092F86D206E2A13DB124A92F858203AB9AA
:103830000A22104B83F85820642283F86D200EE092
:103840000C4A92F85820521E0A4B83F8582006E082
:10385000084A92F86D20521C064B83F86D2000E058
:1038600000BF00BF034A92F82B20064B1A7000BF1E
:103870007FE700005C00002005000020060000201B
:10388000C6010020550000200948C0886421484333
:10389000552190FBF1F0064988720846C0886421E2
:1038A000484340F6FF7190FBF1F001498872704780
:1038B000C60100202848408A2849C98C88420FDA6E
:1038C0002548408A2549C8840846C08CB0F5167F33
:1038D00006D2084690F82A0040F0020081F82A003B
:1038E0001D48408A1D49098D88420FDD1A48408ACB
:1038F0001A4908850846008DB0F5FA6F06D90846C2
:1039000090F82A0040F0040081F82A00134890F84B
:103910002A00C0F3400012490870104890F82A00AD
:10392000C0F380000F4908700D48007858B1084670
:10393000007840B1094890F82A0040F0010007499A
:1039400081F82A0007E0054890F82A0000F0FE0000
:10395000024981F82A007047C60100205C0000205F
:1039600034000020350000200020024909688863E7
:1039700070470000740500202DE9F04107460C4611
:1039800016463B4607220021204601F096F90546DF
:10399000681CA8B136F8100036F81510401A615DA1
:1039A000791A4843691C615C625D891A90FBF1F0E9
:1039B00036F8151008441FFA80F84046BDE8F0813B
:1039C0002078B84201DD3088F8E7E079B84201DAC2
:1039D000F089F3E7FF20F1E72DE9F04107460C46B7
:1039E00016463B4607220021204601F066F90546AF
:1039F000681C98B1305C715D401A615D791A48436A
:103A0000691C615C625D891A90FBF1F0715D08448C
:103A10001FFA80F808F0FF00BDE8F0812078B84276
:103A200001DD3078F8E7E079B84201DAF079F3E7C0
:103A3000FF20F1E70548008B6421484340F6FF7101
:103A400090FBF1F00149087770470000C6010020A3
:103A50000EB500200090019002903448344908606F
:103A600081153348816001210173002101754FF4F4
:103A70006021C16100202E49486007212C48016166
:103A8000FDF7CAF908B1FCF72BFE002000900120D9
:103A900001900720029069462548FDF779F808B1A2
:103AA000FCF71EFE0120009002200190694620488C
:103AB000FDF76EF808B1FCF713FE0220009003201A
:103AC000019069461A48FDF763F808B1FCF708FE53
:103AD000032000900420019069461548FDF758F82E
:103AE00008B1FCF7FDFD0420009005200190694617
:103AF0000F48FDF74DF808B1FCF7F2FD05200090E6
:103B00000620019069460A48FDF742F808B1FCF723
:103B1000E7FD102000900720019069460448FDF75A
:103B200037F808B1FCF7DCFD0EBD000000240140B1
:103B3000B804002008B500BF1248406940F00100F9
:103B4000104948610846406900F00100009000BF3C
:103B500000BF002211460B20FEF7ECF80B20FEF709
:103B6000D9F8002211460C20FEF7E4F80C20FEF7ED
:103B7000D1F8002211460D20FEF7DCF80D20FEF7EB
:103B8000C9F808BD0010024000B585B000200190C2
:103B900002900390049000BF6648806940F01000D6
:103BA000644988610846806900F01000009000BFF9
:103BB00000BF00BF0846806940F0200088610846C9
:103BC000806900F02000009000BF00BF00BF0846E1
:103BD000806940F0040088610846806900F00400B4
:103BE000009000BF00BF00BF0846806940F0080099
:103BF00088610846806900F00800009000BF00BF9F
:103C000000224FF400514C48FDF7ECFF0022C02188
:103C10004A48FDF7E7FF00224FF23F114848FDF701
:103C2000E1FF4FF40050019001200290002003902A
:103C30000320049001A94048FDF732FE4FF44040B4
:103C4000019000200290039001A93B48FDF728FE57
:103C50004020019001200290002003900320049056
:103C600001A93648FDF71CFE80200190112002902A
:103C7000002003900220049001A93048FDF710FEB7
:103C80000320019001200290002003900320049063
:103C900001A92B48FDF704FE4FF23C0001900120E2
:103CA0000290002003900220049001A92448FDF70F
:103CB000F7FD4FF48070019002200290049001A95A
:103CC0001E48FDF7EDFD4FF4905001900220029048
:103CD0000320049001A91948FDF7E2FD4FF440606C
:103CE000019000200290039001A91448FDF7D8FD2F
:103CF0004FF4807001901120029000200390022068
:103D0000049001A90E48FDF7CBFD4FF4007001901F
:103D10000C4802900020039001A90948FDF7C0FD5E
:103D2000002211461720FEF705F81720FDF7F2FFD5
:103D300005B000BD00100240001001400008014025
:103D4000000C01400000111000B58BB0002007905E
:103D5000089009900A9005900690019002900390B7
:103D600004904FF0804023490860372048600021CC
:103D7000204881604FF6FF71C160002101618161BF
:103D8000FEF79AFC08B1FCF7ABFC4FF480500790AB
:103D900007A91848FEF76AFD08B1FCF7A1FC154811
:103DA000FEF767FE08B1FCF79BFC0020059006902B
:103DB00005A91048FEF73EFC08B1FCF791FC002075
:103DC000019001200290002003900490002201A99C
:103DD0000848FEF7E4FD08B1FCF782FC02200290DF
:103DE000042201A90348FEF7DAFD08B1FCF778FCCC
:103DF0000BB000BD2C05002000B58DB0002009904F
:103E00000A900B900C90079008901C216846FCF7D4
:103E1000A2F9314831490860B420486000212F4898
:103E200081604FF47A71C160002101618161FEF708
:103E300043FC08B1FCF754FC4FF48050099009A9E9
:103E40002648FEF713FD08B1FCF74AFC2348FFF7AC
:103E5000D0F808B1FCF744FC2048FFF718F808B187
:103E6000FCF73EFC00200790089007A91B48FEF7CE
:103E7000E1FB08B1FCF734FC6020009000200190C9
:103E800002900490002269461448FFF734F808B104
:103E9000FCF726FC02200290042269460F48FFF737
:103EA0002AF808B1FCF71CFC0020009002900822C0
:103EB00069460A48FEF7B6FF08B1FCF711FC0C2270
:103EC00069460648FEF7AEFF08B1FCF709FC034857
:103ED000FEF77CFF0DB000BD000800407405002017
:103EE00010B50B480B4908604FF41650486000218C
:103EF00008488160C16001610C214161002181613C
:103F0000C161FFF76DFA08B1FCF7EAFB10BD0000D4
:103F100000480040BC05002000BFFEE770470000DD
:103F200040F6150001490968886370477405002050
:103F300010B50A480078072804D00120074981F805
:103F40006B0009E00020054981F86B00FFF702FCD7
:103F500000200249086410BD00BFFCE75C0000209F
:103F600010B5FDF73BFF10BD7047F8B506460F468C
:103F700014461D46FDF73CFE009014F8350038B994
:103F80000098304404EBC5014860012004F8350076
:103F900004EBC50040680099884203D8002004F86B
:103FA0003500B847F8BD0146502901DD962000E0F4
:103FB0000A20704708B508490968C9084FF47A72A1
:103FC000B1FBF2F14143009100BF00BF00994A1ECE
:103FD00000920029F9D108BDDC00002070470000E4
:103FE0000B4800880B49488209484088C883084824
:103FF000808808830648C08888840548008908802E
:1040000003484089C8800248808988817047000041
:10401000B8010020C601002010B54FF480410448CB
:10402000FDF7CEFD08B9012010BD0020FCE700001F
:10403000000C014010B500210C48FFF785F80C4931
:1040400048610846C06CC865002008490968486294
:104050000749C8640846406E401C48660846406EE2
:10406000022802D3012081F82C0010BD2C0500206D
:104070005C0000207047884200D908467047000065
:1040800010B50446012C05D1002241030448FDF778
:10409000A9FD04E0012251030148FDF7A3FD10BD75
:1040A000000C014010B540210148FDF791FD10BD05
:1040B0000008014010B50446012C05D100228103FF
:1040C0000448FDF78FFD04E0012291030148FDF74C
:1040D00089FD10BD000C014010B50446012C05D12E
:1040E000002241030448FDF77DFD04E00122510355
:1040F0000148FDF777FD10BD000C014010B50446E6
:10410000012C05D1002241030448FDF76BFD04E0BA
:10411000012251030148FDF765FD10BD001001406B
:1041200010B50446012C05D1002201030448FDF717
:1041300059FD04E0012211030148FDF753FD10BDB4
:10414000000C014010B50446012C05D1002281036A
:104150000448FDF747FD04E0012291030148FDF703
:1041600041FD10BD000C014010B5FDF747FD10BD2D
:1041700000B593B0282109A8FBF7EDFF142104A88E
:10418000FBF7E9FF002000900190029003900120CE
:10419000099000040A9000200B9001200D9002204D
:1041A0001090C10311914FF4E011129109A8FDF78D
:1041B000F3FF08B1FCF794FA0F2004900220059059
:1041C000002006904FF4E060079000200890022144
:1041D00004A8FDF7ABFE08B1FCF782FA02200090BC
:1041E0004FF4404002906846FDF708FE08B1FCF726
:1041F00077FA13B000BD00001148006840F00100DC
:104200000F490860084640680E4908400C4948605C
:10421000084600680C4908400949086008460068DB
:1042200020F4802008600846406820F4FE004860C2
:104230004FF41F008860C8030449086070470000FD
:10424000001002400000FFF8FFFFF6FE08ED00E05E
:1042500010B50248FEF7EEFC10BD00002C05002052
:1042600010B50248FEF7E6FC10BD00007405002002
:1042700010B50268184B984208D0B0F1804F05D0B5
:10428000164B984202D0164B984203D122F070028E
:104290004B681A43104B984208D0B0F1804F05D0BC
:1042A0000E4B984202D00E4B984203D122F440723A
:1042B000CB681A4322F080034C6943EA040202608F
:1042C0008B68C3620B688362034B984201D10B6910
:1042D00003630123436110BD002C01400004004032
:1042E0000008004030B501F01F05012404FA05F371
:1042F000046A9C430462046A01F01F0502FA05F592
:104300002C43046230BD30B50C46816821F47F41F6
:1043100042EA032525432943816030BD0A4681686E
:1043200021F0700142F007031943816070470000DB
:1043300030B5056A25F001050562026A43688469A3
:1043400024F0700424F003040D682C4322F00202D0
:104350008D682A430D4DA84206D100BF22F0080205
:10436000CD682A4322F00402084DA84207D123F465
:10437000807323F400734D692B438D692B43436095
:1043800084614D684563026230BD0000002C01402D
:1043900030B5056A25F010050562026A4368846934
:1043A00024F4E04424F440740D6844EA052422F027
:1043B00020028D6842EA05120E4DA84207D100BFC7
:1043C00022F08002CD6842EA051222F04002094D37
:1043D000A84209D123F4806323F400634D6943EAC2
:1043E00085038D6943EA8503436084614D68856375
:1043F000026230BD002C014030B5056A25F480759D
:104400000562026A4368C46924F0700424F003045E
:104410000D682C4322F400728D6842EA05220F4D8C
:10442000A84207D100BF22F40062CD6842EA05220B
:1044300022F48062094DA84209D123F4805323F469
:1044400000534D6943EA05138D6943EA0513436040
:10445000C4614D68C563026230BD0000002C01409C
:1044600030B5056A25F480550562036A4468C2695F
:1044700022F4E04222F440720D6842EA052223F45D
:1044800000538D6843EA0533064DA84204D124F455
:1044900080444D6944EA85144460C2614D680564F6
:1044A000036230BD002C014030B50B461446026A51
:1044B000056A25F001050562816921F0F00141EAF4
:1044C000041122F00A021A438161026230BD000029
:1044D00070B50C461546066A26F00106066281692B
:1044E000026A124EB04208D0B0F1804F05D0104E93
:1044F000B04202D00F4EB04201D1012600E00026AA
:104500001EB121F00301294301E041F0010121F036
:10451000F001F02606EA0316314322F00A0204F005
:104520000A0632438161026270BD0000002C014026
:10453000000400400008004030B50B461446056AF0
:1045400025F0100505628169026A21F4704141EA93
:10455000043122F0A00242EA03128161026230BDFE
:1045600070B50C461546066A26F01006066281698B
:10457000026A21F4407141EA052121F470414FF4AF
:10458000704606EA0336314322F0A002A02606EA6E
:10459000041632438161026270BD70B50C46154647
:1045A000066A26F480760662C169026A21F0030178
:1045B000294321F0F001F02606EA0316314322F4E4
:1045C00000724FF4007606EA04263243C1610262AB
:1045D00070BD70B50C461546066A26F48056066214
:1045E000C169026A21F4407141EA052121F4704158
:1045F0004FF4704606EA0336314322F400524FF47A
:10460000005606EA04363243C161026270BD000002
:104610001448408A134988821348C08CB0F5167F2D
:1046200004D31148008DB0F5FA6F10D90D48408AB7
:104630000D49C98C401A642148430B49098D0A4A27
:10464000D28C891A90FBF1F00649887509E005487B
:10465000808A6421484340F6FF7190FBF1F00149E4
:1046600088757047C60100205C00002010B53B48EB
:10467000807D3B4991F82510401A40B2384981F8B5
:104680002400084690F924001E280EDD0120FFF7C3
:1046900023FD334991F8240000F0A7FB304981F84D
:1046A000690001202F49087013E02D4890F924007B
:1046B00010F11E0F0DDA0120FFF732FD284991F9A4
:1046C000240000F08FFB264981F86900012026496B
:1046D00008704FF47A7225492248007800F086F875
:1046E00048B100201F490870FFF7F6FC64201C4900
:1046F00081F8690010E04FF47A721D491A48007879
:1047000000F074F840B1002017490870FFF708FD69
:104710006420134981F869001049897D052901DA6F
:10472000012100E0002108464FF47A72114900F09F
:104730005DF848B10A48C088B0F5E16F04DD00209B
:10474000074981F8680003E00120054981F8680005
:104750000248807D024981F8250010BDC601002075
:104760005C00002005000020060000201C00002046
:1047700020000020240000200548C08B96214843DB
:1047800040F6FF7190FBF1F0014981F8220070477B
:10479000C601002010B5FFF723FCFFF739FFFFF734
:1047A00049F9FFF771F8FBF78DFFFFF7E5FFFBF71E
:1047B000ADFDFEF7C5FFFBF725FEFCF7BBF810BD0E
:1047C00010B5FEF787FF00F09DFB0348007808B1A5
:1047D00000F04AFC10BD0000CC00002010B5FFF72F
:1047E00069F8FBF7B7FD00F0FDF910BD2DE9F041C8
:1047F00005460C4616460027012D0CD1206818B935
:10480000FDF7F6F930442060FDF7F2F9216888429F
:1048100003D3012701E0002020603846BDE8F08185
:1048200070B5054600241FE004EB440055F8200055
:10483000C0B1FDF7DDF904EB440155F821108842C1
:1048400010D3002004EB440145F82100012004EBC3
:10485000440105EB8101087104EB440105EB810182
:1048600088688047601CC4B2102CDDDB70BD10B5B9
:104870000020FFF705FC0020FEF76CFF10BD70B5AF
:1048800005466C6A0020E085E0842046FEF778FC4F
:1048900070BD70B506460025746A20684069C0F393
:1048A000C01594F83D00212805D125B10020E084F1
:1048B000204600F063F820684069C0F3801594F842
:1048C0003E00222805D125B10020E085204600F0D9
:1048D0002AF8206C40F0100020642046FEF750FCBF
:1048E00070BD70B505466C6A2868006800F020004D
:1048F00070B90020E0842068406920F080002168C1
:1049000048612068C06840F040002168C86002E04B
:104910002046FEF773FE70BD70B50446656A2846F2
:10492000FEF76DFE70BD0168C96821F490710268E0
:10493000D1600168496921F0010102685161016B90
:10494000012905D10168C96821F010010268D16010
:10495000202180F83E1000210163704710B5044605
:104960002068C06820F040002168C860202084F8DA
:104970003D002046FEF742FE002010BD0168C968D8
:1049800021F0C0010268D160202180F83D107047FD
:10499000F8B5044694F83E00222869D1A068B0F525
:1049A000805F0CD1206950B90025A66A2068406854
:1049B000C0F308003080A06A801CA06215E0A56AE0
:1049C0000026A068B0F5805F03D0A06828B92069F0
:1049D00018B920684068287004E02068406800F03A
:1049E0007F002870A06A401CA062E08D401E80B24B
:1049F000E085A8BB2068C06820F020002168C8605E
:104A00002068C06820F480702168C8602068406910
:104A100020F0010021684861202084F83E00206BCE
:104A200001281ED1002020632068C06820F01000FB
:104A30002168C8602068006800F0100010280AD1C2
:104A400000BF002000902068006800902068406847
:104A5000009000BF00BFA18D2046FEF78FFB03E052
:104A600004E02046FEF77AFD0020F8BD0020FCE7B8
:104A70000220FAE770B504462168096921F4405123
:104A8000E2681143226811612269A16811436269D9
:104A900041EA02052168C96841F20C629143294349
:104AA0002268D1602168496921F44071A2691143EB
:104AB000226851612D4A2168914202D1FDF712FB13
:104AC00001E0FDF7FFFA00EBC00101EB00116268A5
:104AD0009200B1FBF2F100EBC00202EB001263683E
:104AE0009B00B2FBF3F26423B2FBF3F202EBC203CE
:104AF00003EB0212A1EB8201322202EB01116422CC
:104B0000B1FBF2F101F0F00100EBC00202EB001288
:104B100063689B00B2FBF3F26423B2FBF3F201EB98
:104B2000021200EBC00101EB001163689B00B1FBB6
:104B3000F3F100EBC00303EB00136668B600B3FBB0
:104B4000F6F36426B3FBF6F303EBC30606EB03139D
:104B5000A1EB8301322303EB01116423B1FBF3F1D9
:104B600001F00F0111442268916070BD00380140CE
:104B7000014691F83D00212828D18868B0F5805F72
:104B80000BD1086948B90A6A1088C0F308000B689D
:104B90005860086A801C086205E00B6A581C0862AD
:104BA00018780B685860C88C401E80B2C88458B909
:104BB0000868C06820F080000B68D8600868C0688A
:104BC00040F040000B68D860002070470220FCE7EE
:104BD00010B50248FEF7DEFA10BD0000BC0500204B
:104BE00000BFFEE710B50C4A118850886422FBF71D
:104BF00045FE094948800846408840F25B11484319
:104C000000EB8010C0EBC000044990FBF1F0001DE8
:104C10000149087110BD0000C6010020187C3E004B
:104C200010B50D4991F8280000F0ACF80B49088048
:104C30000B48406D0988884208D2074991F828003E
:104C400000F0D6F8064981F86A0003E064200449C0
:104C500081F86A0010BD0000C60100205800002045
:104C60005C00002002480068C0F30220704700008A
:104C70000CED00E010B5002804DB0A07130E054A0E
:104C8000135406E00A07140E034A00F00F031B1F1B
:104C9000D45410BD00E400E018ED00E002E008C8C4
:104CA000121F08C1002AFAD170477047002001E0A6
:104CB00001C1121F002AFBD1704770B504460D4692
:104CC000605D984203DD29464FF0FF3070BDA05C67
:104CD000984203DA11464FF0FF30F7E7501EC2B298
:104CE00016E0501B00EBD07605EB6606F1B2605C77
:104CF000984205DC481C205C984201DD48B2E5E79B
:104D0000605C984202DA481CC5B201E0481EC2B29B
:104D10009542E6DD6FF00100D8E710B502460020AD
:104D200001EB410302EB83031B79012B0FD100231D
:104D300001EB410402EB8404237101EB410442F8CE
:104D4000243001EB410402EB8404A360012010BD78
:104D500010B502490248FBF79CFD10BD000200207F
:104D600000FC0108002005E0044A411C515C044A93
:104D70001154401CE228F7D370470000C8030020FC
:104D80000002002010B50446054AA2F12001204689
:104D9000FEF7F2FD034908800846008810BD0000B8
:104DA0003202002056000020014640F21450024A10
:104DB00010801046008870473800002002466420AA
:104DC000704702466420704770B50446044AA2F159
:104DD000C8012046FEF700FE0546284670BD0000CB
:104DE000DA020020014650207047014678207047C3
:104DF00070B50446044AA2F140012046FEF7ECFDDE
:104E00000546284670BD000052020020002004E044
:104E10000349095C034A1154401CE228F8D3704747
:104E20006851000800020020FCF7F4FE00F0D8F8FA
:104E3000FFF79EF9FEF7A8FEFEF77CFEFEF784FF63
:104E4000FEF7DAFFFEF704FEFFF74AF800211E48DE
:104E5000FDF744FE04211C48FDF740FE1A48FDF70B
:104E6000C9FCFEF7CFFB072218491948FCF7D8F810
:104E700000211848FEF7F2F804211648FEF7EEF874
:104E800020E0154890F82C00012805D1FBF7CEFB57
:104E90000020114981F82C000023104A10491420E9
:104EA000FFF763F801230D4A0E496420FFF75DF810
:104EB00002230A4A0C494FF47A70FFF756F80B4860
:104EC000FFF7AEFCDDE700002C050020B801002054
:104ED000B8040020740500205C000020E0000020E1
:104EE00095470008C1470008DD470008F80000208A
:104EF000002003494860086188828861704700008B
:104F0000380000202DE9F0411C480078002833D1FA
:104F1000E425002404E01A48005D3044C6B2641C55
:104F2000681EA042F7D81649085C801B21D10846AC
:104F30000778472F12D004DC022F07D0032F16D199
:104F400008E0692F0DD07E2F11D10DE001200D4911
:104F500008700DE000200B49087009E000F014F81B
:104F600006E000F053F803E0FFF7FCFE00E000BFAE
:104F700000BF012001490870BDE8F081CE0000208B
:104F8000C8030020CC00002010B538220249034895
:104F9000FBF78EFC10BD00000002002000FC0108A1
:104FA0002DE9F04104460D4616461F46FCF720FE4B
:104FB000304405EB450144F8210005EB450004EBC6
:104FC00080008760002005EB450104EB810108713A
:104FD000012002490870BDE8F0810000CC000020EB
:104FE00010B5FFF7B5FE0648008818B9FFF70EFFA9
:104FF000FFF7CAFF0120034908700349087010BD7C
:1050000000020020CD000020CE00002070B5124824
:10501000007801281FD1E4267E2010490870084638
:105020000578012409E0601E0D49085C0B4908550C
:105030000846005D2844C5B2641CB01EA042F2D8E8
:10504000701E06490D54002003490870E4220349EC
:105050000448FEF785FA70BDCD000020E402002070
:1050600000020020BC0500202DE9F84F3A48C68810
:10507000077A42F20F7086426CD8B7F57A7F69D210
:105080004FF47A70B6FBF0F0303000F0FF084FF4C8
:105090007A70B6FBF0F100FB11646420B4FBF0F011
:1050A000303000F0FF096420B4FBF0F100FB114444
:1050B0000A20B4FBF0F0303000F0FF0A0A20B4FB05
:1050C000F0F100FB114000F1300B52202349087031
:1050D000084680F8018080F8029080F803A080F8EC
:1050E00004B0412048716420B7FBF0F0303000F08C
:1050F000FF096420B7FBF0F100FB11740A20B4FB38
:10510000F0F0303000F0FF0A0A20B4FBF0F100FBB1
:10511000114000F1300B114880F8069080F807A08C
:1051200080F808B0002506E00C48415D009808446E
:10513000C0B200906D1C082DF6D308490098487243
:105140000A2088720020064908700B22034905488E
:10515000FEF706FABDE8F88F5C000020AC040020E2
:10516000CD000020BC050020401FB004D007B80BC4
:10517000AC0D941188137017581B0A1E2D32506401
:105180007896404040404040404040404040404091
:105190004040C8AAA0968C786932F401E803DC0587
:1051A000C409A00F983AA86160EA32003C004600AA
:1051B0005A0064009600FA002C0191877D73826486
:1051C000455A32646464646464642D646464646431
:1051D000646428646464646464641E646464646411
:1051E000646419646464646464641464646464641A
:1051F00064640F6464646464646405646464646423
:1052000064645A5A5A5A5A5A5A5A646464646464AE
:10521000646464646464646464646464646464644E
:10522000646464646464646464646464646464643E
:10523000646464646464646464646464646464642E
:1052400064640A141E28323C46500000000000002E
:105250000000000001020304060708090000000026
:10526000010203048452000800000020E000000056
:105270009C4C000864530008E0000020C8090000AE
:10528000AC4C00080000000000000000000000001E
:10529000000000000000000000000000000000000E
:1052A00000000000000000000000000000000000FE
:1052B00000000000000000000000000014050000D5
:1052C000000000005802E8031400E803000000009A
:1052D00000000000000000000000000000000000CE
:1052E00000020100000000000000000000000000BB
:1052F00000000000000000000000000000000000AE
:10530000000000000000580200000000016464007A
:1053100000000000642887843200000000000000C4
:10532000000000000000000000000000000000007D
:1053300000000000000000000A0A00000000000059
:105340000000000000000000016464646464640004
:10535000000000000000000010000000010000003C
:045360000024F40031
:04000005080000ED02
:00000001FF
