:020000040800F2
:100000005007002005010008B12B00080526000854
:10001000AD2B000851030008153500080000000052
:10002000000000000000000000000000D92C0008C3
:10003000B503000800000000CD2B0008652E000865
:100040001F010008C52B00081F0100081F01000840
:100050009B050008412C00081F0100081F01000833
:100060001F0100081F0100081F01000869030008A4
:100070001F010008790300081F0100081F01000884
:100080001F0100081F010008710100081F0100087E
:100090001F0100081F0100081F010008B703000826
:1000A0001F0100081F0100081F0100081F010008B0
:1000B0004D2F00081F0100085D2F00081F010008D8
:1000C0001F0100081F0100081F0100081F01000890
:1000D0001F0100081F0100081F0100081F01000880
:1000E0001F0100081F0100081F010008DFF810D0E1
:1000F00000F02CF8004800472D360008AFF30080D0
:10010000500700200648804706480047FEE7FEE704
:10011000FEE7FEE7FEE7FEE7FEE7FEE7FEE7FEE7B7
:10012000F52E0008ED000008D2B201E000F8012B26
:10013000491EFBD270470022F6E710B513460A4667
:1001400004461946FFF7F0FF204610BD064C074D48
:1001500006E0E06840F0010394E807009847103497
:10016000AC42F6D3FFF7C6FF243700084437000837
:1001700010B5024800F00DFC10BD0000DC000020AE
:1001800070B5044600252068806800F00100F0B1D9
:100190002068806820F001002168886001F014FA6E
:1001A00005460EE001F010FA401B022809D9A06AAA
:1001B00040F01000A062E06A40F00100E06201201F
:1001C00070BD2068806800F001000028EAD100209E
:1001D000F6E770B505466C6AA06A00F05000E0B919
:1001E000A06A40F40070A0622068806800F460207B
:1001F000B0F5602F0DD1207B58B9A06A20F4807033
:10020000A062A06A00F4805018B9A06A40F0010012
:10021000A062204600F0BAFB03E0206A016B28468A
:10022000884770BD70B505466C6AA06A40F0400012
:10023000A062E06A40F00400E062204600F0A8FB03
:1002400070BD70B50446656A284600F0A0FB70BD1D
:1002500038B504460025002000902068806800F032
:10026000010080BB2068806840F001002168886040
:10027000164800681649B0FBF1F0009002E00098C3
:10028000401E009000980028F9D101F09DF9054624
:1002900013E001F099F9401B02280ED9A06A40F042
:1002A0001000A062E06A40F00100E06200BF0020A0
:1002B00084F8240000BF012038BD2068806800F069
:1002C00001000028E5D00020F6E70000D80000205B
:1002D00040420F00104880880F494988401A00B2F8
:1002E0000D49C8800846B0F90600962802DD0020B6
:1002F00048700CE00848B0F9060010F1960F03DAD8
:1003000001200549487002E0022003494870024874
:1003100080880149488070473800002000B50B49AB
:1003200091F85F00B42103F053F9084981F86100A6
:10033000084690F86100C0F1B400052190FBF1F08F
:100340001930024981F8600000BD0000380000202B
:1003500000BFFEE70248808A024909684863704787
:100360009C0000209001002010B5024800F064FDC0
:1003700010BD00000C01002010B5024800F05CFD2B
:1003800010BD00001002002030B590F8405001244C
:10039000AC40C56B6C60046863604468102C04D189
:1003A0000468A2600468E16003E00468A160046876
:1003B000E26030BD704710B54FF4007000F050FFA0
:1003C00010BD000010B569480078082877D2DFE832
:1003D00000F0042836407797ADC002F055FC28B9EC
:1003E000012002F095FC0120614908704FF4FA6287
:1003F00060495F48007802F077FF88B100205C49CF
:100400000870012002F06AFC5A2002F0FEFB04464C
:10041000594A2146002003F05DF901205349087034
:10042000A2E0002003F0B4F840B100204F498880DA
:10043000012002F091FC02204C49087094E04F48E2
:10044000007828B101204E49087003204749087000
:100450008AE04648808840F24C41884213DD012002
:100460004849087040F6B83247494648007802F0DB
:100470003BFF18B300204349087002F06DFC0520D3
:100480003A4908701AE039484078012805D13748C0
:10049000808840F24C41884207DD4FF4FA623B49C4
:1004A0003748007802F020FF40B10020344908703E
:1004B00001203749087004202C49087054E052E0AC
:1004C0002A488088B0F5967F07DB40F2DC5231493C
:1004D0002F48007802F008FF88B100202C490870EE
:1004E000224890F82C00401C204981F82C00002064
:1004F0008880012002F030FC02201C49087033E0A3
:100500001A488088B0F5E16F03DD062017490870AE
:100510000BE01648808840F24C41884205DC0420FC
:100520001249087001201A4908701DE00F488088A0
:1005300041F65831884203DD07200C49087007E076
:100540000A488088B0F5E16F02DC05200749087091
:100550000AE00648808841F62C21884202DC062009
:100560000249087000E000BF00BF10BD3800002045
:1005700000000020080000206B3300083400002039
:1005800002000020030000201400002010000020C2
:100590000400002018000020704710B500F09EFDF8
:1005A00010BD00000021074AD1610749096941F0E7
:1005B0000201054A116111464861096941F0400193
:1005C0001161704730030020002002400022054BDB
:1005D000DA61054A126942F00102034B1A61018097
:1005E00070470000300300200020024000201E4918
:1005F000C96801F0100139B11C49C96941F0020113
:100600001A4AD16140F010001749C96801F004018D
:1006100039B11649C96941F00101144AD16140F06C
:1006200004001149C96901F0010169B10F49C969A3
:1006300041F004010D4AD16100BF0B49C96921F0A5
:100640000101094AD16100BF00BF40F20111884297
:1006500006D10549C96921F00101034AD16101E0D0
:100660000149C86000BF70470020024030030020ED
:1006700010B50421074801F011FF074988610846B9
:10068000806A48650846806D022802D3012081F8FF
:100690004F0010BD500100203800002000B5604818
:1006A0000078052803D05E480078062829D15C49E7
:1006B00091F82E0002F09CFF5949896C884208D9B4
:1006C000574991F82E0002F0ADFF554981F83000EE
:1006D00003E06420524981F83000514A92F8341006
:1006E0009288D0B202F095FF4D4981F835000A4654
:1006F00092F834109288D0B202F088FF484981F80D
:10070000380047480078072804D00120444981F880
:10071000310003E00020424981F831004048007870
:10072000032827D13E4890F82500462803DD002005
:100730003B49086472E03A4890F83700642190FB26
:10074000F1F03749498F4843354991F83410344A1C
:1007500092F83620514391FBF0F00022304991F895
:100760002E0002F05FFF642190FBF1F042432C4821
:10077000426453E02A48007803283DDD284890F879
:100780003500642190FBF1F0254991F8341048437D
:10079000234991F836104843214991F830106422DA
:1007A00091FBF2F148431E4991F82F1091FBF2F1B1
:1007B00048431B4991F831104843194991F82D10CD
:1007C0004843174991F8331091FBF2F14143144823
:1007D00090F8370090FBF2F0114A92F83820642329
:1007E00092FBF3F250430E4A528F504391FBF0F0CC
:1007F00000200B49486411E009480078032803DA17
:1008000000200749086409E00548406C0549484351
:100810000349898FB0FBF1F00149086400BD000075
:10082000380000200046C3237047000038B5024658
:1008300000230020009000BF92F82400012801D17D
:10084000022038BD012082F8240000BF4868072834
:1008500012D21068406B0C79641E04EB84051F24CF
:10086000AC40A0430D796D1E05EB85050C68AC40CE
:1008700020431468606327E048680D2812D210688E
:10088000006B0C79E41F04EB84051F24AC40A043EB
:100890000D79ED1F05EB85050C68AC40204314680D
:1008A000206311E01068C06A0C790D3C04EB8405EC
:1008B0001F24AC40A0430D790D3D05EB85050C6868
:1008C000AC4020431468E06208680A2812D310681C
:1008D000C0680C780A3C04EB44050724AC40A043F4
:1008E0000D780A3D05EB45058C68AC402043146843
:1008F000E0600FE0106800690C7804EB4405072401
:10090000AC40A0430D7805EB45058C68AC40204316
:10091000146820610868102802D00868112827D1BF
:10092000174C1068A0421ED11068806800F40000C7
:10093000F0B91068806840F400001468A06008688E
:10094000102815D10F4800680F4CB0FBF4F000EBF5
:1009500080004000009002E00098401E0090009847
:100960000028F9D104E0906A40F020009062012351
:1009700000BF002082F8240000BF184661E7000095
:1009800000240140D800002040420F00704770470B
:10099000704710B504462068406800F02000202809
:1009A0002FD12068006800F00200022829D1A06A37
:1009B00000F0100018B9A06A40F40070A06220682E
:1009C000806800F46020B0F5602F13D1207B88B9D7
:1009D0002068406820F0200021684860A06A20F468
:1009E0008070A062A06A00F4805018B9A06A40F03C
:1009F0000100A0622046FFF7C9FF6FF012002168D6
:100A000008602068406800F0800080283BD12068A2
:100A1000006800F00400042835D1A06A00F010003E
:100A200018B9A06A40F40050A0622068806800F401
:100A3000E040B0F5E04F0DD02068406800F48060E1
:100A4000D0B92068806800F46020B0F5602F13D121
:100A5000207B88B92068406820F0800021684860C9
:100A6000A06A20F48050A062A06A00F4807018B9D7
:100A7000A06A40F00100A0622046FFF7D5FE6FF0AB
:100A80000C00216808602068406800F040004028A1
:100A90000FD12068006800F0010050B1A06A40F456
:100AA0008030A062204600F0A7F86FF001002168B6
:100AB000086010BD2DE9F0410446002700250026FE
:100AC000A84614B90120BDE8F081A06810B1207DCE
:100AD00000B100BFA06A30B90020E06284F82400B1
:100AE000204600F08BF82046FFF74AFB0746A06A35
:100AF00000F01000002873D1002F71D1A06A20F4FB
:100B0000885040F00200A062E16960680843217BE0
:100B100040EA41000643A068B0F5807F02D0A0689B
:100B2000012802D14FF4807000E000200543207DB1
:100B3000012811D1207B38B9A069401E4FF4006113
:100B400041EA4030054307E0A06A40F02000A0627F
:100B5000E06A40F00100E0622068406820F46940EB
:100B60002843216848602068806821490840304354
:100B700021688860A068B0F5807F02D0A068012855
:100B800002D14FF4807000E00020B0F5807F03D1E7
:100B9000208A401E4FEA00582068C06A20F4700086
:100BA00040EA08002168C86220688068114908404E
:100BB000B04208D10020E062A06A20F0020040F0BC
:100BC0000100A06211E0A06A20F0020040F01000D5
:100BD000A062E06A40F00100E062012705E0FFE763
:100BE000A06A40F01000A062012738466BE70000C1
:100BF000FDF7E1FFFE0E1FFF7047000010B586B045
:100C00000446002002900390049005902549206836
:100C1000884245D100BF2448806940F400702249D1
:100C200088610846806900F40070019000BF00BF31
:100C300000BF0846806940F004008861084680696A
:100C400000F00400019000BF00BF3F20029003208D
:100C5000039002A9154800F011FB154815490860DA
:100C6000002048600021134881608021C16000217C
:100C700001614161202181610021C16100F0AAF977
:100C800008B1FFF789FC00BF0A482062446200BF38
:100C900000221146122000F039FD122000F026FD3E
:100CA00006B010BD002401400010024000080140C1
:100CB000080002400C0100202DE9F04104460D46D9
:100CC0001646002757492068884203D056492068B5
:100CD000884205D15348001D006800F4702000E0F0
:100CE000002000287ED100BF94F82400012802D102
:100CF0000220BDE8F081012084F8240000BF2046D6
:100D0000FFF7A6FA0746002F6DD1A06A40F60161F1
:100D1000884340F48070A06243492068884209D12A
:100D20004048001D006800F4702008B9012002E06E
:100D3000002000E0012078B1A06A20F48010A062B9
:100D40002068406800F4806000B3A06A20F400507E
:100D500040F48050A06219E0A06A40F48010A062C4
:100D600030492068884203D02F492068884205D145
:100D70002C48001D006800F4806000E0002028B1CD
:100D8000A06A20F4005040F48050A062A06A00F4F1
:100D9000805020B1E06A20F00600E06201E000200F
:100DA000E06200BF002084F8240000BF1F48216AD1
:100DB00088621F48216AC8621E48216A08636FF072
:100DC0000200216808602068806840F48070216813
:100DD0008860226802F14C0133462A46206A00F0FE
:100DE0002DF901E01AE014E02068806800F460202A
:100DF000B0F5602F06D12068806840F4A00021681B
:100E000088600CE02068806840F480102168886069
:100E100005E000BF002084F8240000E001273846E8
:100E200067E700000024014000280140D3010008CA
:100E3000430200082502000870B50446E06B05680F
:100E40002068066894F84010042088402840002854
:100E500046D006F00400002842D02068006800F068
:100E6000200028B92068006820F00400216808608C
:100E700057492068884201D1042027E054491431A1
:100E80002068884201D1402020E051492831206863
:100E9000884201D1001519E04D493C312068884253
:100EA00002D14FF4804011E0494950312068884216
:100EB00002D14FF4802009E045496431206888421E
:100EC00002D14FF4800001E04FF0806040490839C2
:100ED0004860E06A00287AD02046E16A884776E0D8
:100EE00094F84010022088402840A0B306F0020089
:100EF00088B32068006800F0200040B920680068CE
:100F000020F00A0021680860012084F8210030499F
:100F10002068884201D1022028E02D491431206840
:100F2000884201D1202021E02949283120688842C7
:100F300001D140151AE026493C312068884202D18F
:100F40004FF4005012E0224950312068884203D10A
:100F50004FF400300AE017E01D49643120688842F0
:100F600002D14FF4001001E04FF000701849083929
:100F7000486000BF002084F8200000BFA06A30B3A2
:100F80002046A16A884722E094F840100820884053
:100F90002840E0B106F00800C8B12068006820F0E1
:100FA0000E002168086094F8401001208840E16B31
:100FB00048600120A06384F8210000BF002084F86D
:100FC000200000BF206B10B12046216B884770BD08
:100FD000080002400146002209B901207047164B63
:100FE0000868C01A1423B0FBF3F0800008641248AC
:100FF0000838C863022081F821000868026843F6B7
:10100000F0708243D1E901031843CB6818430B69A0
:1010100018434B6918438B691843CB691843024343
:101020000868026000208863012081F82100002008
:1010300081F8200000BFD1E7080002402DE9F0410F
:1010400004460D4616461F464FF0000800BF94F8B0
:101050002000012802D10220BDE8F081012084F89F
:10106000200000BF94F8210001282CD1022084F830
:1010700021000020A0632068006820F001002168A2
:1010800008603B46324629462046FFF77DF9E06A74
:1010900030B12068006840F00E00216808600BE065
:1010A0002068006820F0040021680860206800685B
:1010B00040F00A00216808602068006840F00100E4
:1010C0002168086006E000BF002084F8200000BF0F
:1010D0004FF002084046BFE77047000010B50024FB
:1010E0005C48C06800F0100020B95A48C06800F0A1
:1010F000040068B1584884684FF0FF305649886052
:10110000FFF774FA204600F0A9F800205249087051
:101110005048C06800F02000002828D000BF2020E0
:101120004C49C86000BF4C48007800287ED04A482F
:101130000078012827D148484068401E4649486049
:1011400008464068A0B1084684682046FFF7C4FFFF
:101150004148806800F580643F4884603D480069EC
:1011600020F002003B4908612046FFF71BFA5DE0D2
:101170004FF0FF3004463849886000200870204650
:10118000FFF7AAFF52E03448007802280CD131481A
:10119000006920F004002F4908610020FFF79CFF40
:1011A00000202D49087041E02B484068401E2A4924
:1011B000486008464068D8B108468068801C88604E
:1011C0000846846808694969000C40EA0140090C36
:1011D000214A106151611F48006920F001001D493A
:1011E00008611069526981B22046FFF7EFF91DE0EE
:1011F00019480078032804D117498868FFF76CFF65
:101200000EE015480078042805D113498968881E26
:10121000FFF762FF04E010498968881FFFF75CFF51
:101220004FF0FF300C498860002008700A480078B1
:1012300078B90848006920F00700064908610846A7
:10124000006920F4A050086100BF00200249087620
:1012500000BF10BD002002403003002070477047DF
:1012600010B5044604480068204020B102480460DC
:101270002046FFF7F4FF10BD140401402DE9F847A4
:101280000346002294466EE14FF0010808FA02F48A
:10129000D1F8008008EA0400A0427DD1DFF8DCA28A
:1012A000D1F80480A8EB0A09D0453AD014DCB8F193
:1012B000030F50D009DCB8F1000F31D0B8F1010FA5
:1012C0001CD0B8F1020F49D120E0B8F1110F18D0AD
:1012D000B8F1120F42D11EE0B9F5881F25D006DC07
:1012E000B9F5803F20D0B9F5801F37D11AE0B9F5A4
:1012F000001F18D0B9F5041F30D117E0D1F80CC089
:101300002DE0D1F80C8008F1040C28E0D1F80C8015
:1013100008F1080C23E0D1F80C8008F10C0C1EE059
:1013200000BF00BF00BF00BF00BF00BFD1F80880F2
:10133000B8F1000F02D14FF0040C0BE0D1F8088097
:10134000B8F1010F03D14FF0080C1C6102E04FF01F
:10135000080C5C6103E04FF0000C00E000BF00BF30
:10136000FF2801D8984601E003F104084646FF280B
:1013700002D84FEA820803E0A2F108084FEA880881
:101380004746D6F800804FF00F0909FA07F928EA16
:1013900009080CFA07F900E088E048EA0908C6F8ED
:1013A0000080D1F8048008F08058B8F1805F7DD1CA
:1013B00000BFDFF8CC81D8F8188048F00108DFF8CA
:1013C000C091C9F81880C846D8F8188008F00108FC
:1013D000CDF8008000BF00BF4FEAB9384FEA92094C
:1013E00058F829504FEA82784FEA18794FF00F08E1
:1013F00008FA09F825EA0805DFF88881434502D193
:101400004FF0000816E0DFF88081434502D14FF02D
:1014100001080FE0DFF87481434502D14FF0020864
:1014200008E0DFF86C81434502D14FF0030801E08A
:101430004FF004084FEA82794FEA197908FA09F85F
:1014400048EA0505DFF84C814FEA920948F829502F
:10145000D1F8048008F48038B8F5803F0AD1DFF86D
:101460003881D8F8008048EA0008DFF82C91C9F8E4
:10147000008009E0DFF82081D8F8008028EA000821
:10148000DFF81491C9F80080D1F8048008F400381E
:10149000B8F5003F10D1DFF8008108F10408D8F852
:1014A000008048EA0008DFF8F09000E05AE009F117
:1014B0000409C9F800800DE0DFF8DC8008F10408B9
:1014C000D8F8008028EA0008DFF8CC9009F1040978
:1014D000C9F80080D1F8048008F48018B8F5801F9E
:1014E0000ED1DFF8B48008F10808D8F8008048EA87
:1014F0000008DFF8A49009F10809C9F800800DE0A0
:10150000DFF8948008F10808D8F8008028EA00087D
:10151000DFF8849009F10809C9F80080D1F8048047
:1015200008F40018B8F5001F0ED1DFF86C8008F140
:101530000C08D8F8008048EA0008DFF85C9009F150
:101540000C09C9F800800DE0DFF84C8008F10C08A8
:10155000D8F8008028EA0008DFF83C9009F10C096F
:10156000C9F80080521CD1F8008028FA02F8B8F1BE
:10157000000F7FF489AEBDE8F8870000000011106D
:101580000010024000080140000C01400010014022
:101590000014014008000140000401400246936825
:1015A0000B400BB1012000E000207047C2680A40E8
:1015B0000AB1416100E0016170470AB1016101E0D7
:1015C0000B04036170470000014800687047000089
:1015D000CC00002003480068034909780844014909
:1015E00008607047CC000020D400002010B50848E7
:1015F000006840F0100006490860032000F0C4F8BD
:10160000022000F007F800F02BF8002010BD0000C9
:101610000020024070B504460E4800784FF47A71FD
:10162000B1FBF0F00C490968B1FBF0F5284600F079
:10163000D1FC08B1012070BD102C07D20022214638
:10164000501E00F063F80548046001E00120F2E755
:101650000020F0E7D4000020D8000020D0000020B7
:1016600008B500BF1F48806940F001001D4988612E
:101670000846806900F00100009000BF00BF00BF75
:101680000846C06940F08050C8610846C06900F053
:101690008050009000BF00BF042000F075F80022C9
:1016A0001146012000F032F8012000F01FF800225E
:1016B0001146042000F02AF8042000F017F8002258
:1016C0001146052000F022F8052000F00FF800BFB9
:1016D0000549486820F0E06040F00070486000BFB5
:1016E00008BD00000010024000000140014608460D
:1016F000002809DB00F01F0301229A4043099B00E8
:1017000003F1E023C3F8002100BF70472DE9F05F2B
:1017100080460D461646002701F00EFF0746394663
:101720002A46334601F00700C0F1070ABAF1040F58
:1017300002D94FF0040A01E0C0F1070AD14600F1D6
:10174000040ABAF1070F02D24FF0000A01E0A0F13B
:10175000030AD4464FF0010A0AFA09FAAAF1010A6B
:101760000AEA020A0AFA0CFA4FF0010B0BFA0CFB18
:10177000ABF1010B0BEA030B4AEA0B04214640468E
:1017800001F0E2FEBDE8F09F00BF00F00702064B4B
:1017900019684FF6FF031940044B0B4343EA02213B
:1017A000014B196000BF70470CED00E00000FA0526
:1017B0007047000010B50648006800F4803028B17A
:1017C000FFF7F6FF4FF480300149086010BD0000BC
:1017D00014040140F8B5044600260025207800F0E6
:1017E000010000286BD000274348C06900F08050FA
:1017F00070B900BF4048C06940F080503E49C861A0
:101800000846C06900F08050009000BF00BF01276B
:101810003A48006800F48070B0B93848006840F475
:10182000807036490860FFF7CFFE064606E0FFF7F6
:10183000CBFE801B642801D90320F8BD2F48006827
:1018400000F480700028F2D02B48006A00F4407544
:101850002DB3A08800F44070A84220D02648006A2A
:1018600020F44075012026490860002008602248C5
:10187000056205F0010090B1FFF7A6FE064608E0FC
:10188000FFF7A2FE801B41F28831884201D9032074
:10189000D3E71948006A00F002000028F0D016488B
:1018A000006A20F440706168084313490862012F00
:1018B00004D10846C06920F08050C86100BF20787C
:1018C00000F00200022807D10B48406820F4404095
:1018D000A168084308494860207800F010001028EB
:1018E00007D10548406820F48000E16808430249B8
:1018F00048600020A1E70000001002400070004096
:101900004004424270B504460D460CB9012070BD3A
:101910005A48006800F00700A8420ED257480068F5
:1019200020F007002843554908600846006800F089
:101930000700A84201D00120E9E7207800F002006A
:1019400002281DD1207800F00400042805D14C485D
:10195000406840F4E0604A494860207800F00800A0
:10196000082805D14648406840F460504449486022
:101970004348406820F0F000A168084340494860AF
:10198000207800F0010078B36068012806D13C4857
:10199000006800F4003090B90120B8E760680228C0
:1019A00006D13748006800F0007040B90120AEE76A
:1019B0003348006800F0020008B90120A7E730486A
:1019C000406820F00300616808432D494860FFF734
:1019D000FBFD064609E0FFF7F7FD801B41F2883169
:1019E000884202D9032092E707E02548406800F0CA
:1019F0000C006168B0EB810FEDD12048006800F069
:101A00000700A8420ED91D48006820F007002843AF
:101A10001A4908600846006800F00700A84201D093
:101A2000012074E7207800F00400042807D114484E
:101A3000406820F4E060E16808431149486020787C
:101A400000F00800082808D10D48406820F46050D4
:101A5000216940EAC1000A49486000F03FF808499E
:101A60004968C1F30311074A515CC8400649086040
:101A700006480068FFF7CEFD002048E7002002403E
:101A8000001002400C370008D8000020D0000020D1
:101A90000148006870470000D800002000B5FFF73B
:101AA000F7FF04494968C1F30221034A515CC84069
:101AB00000BD0000001002401C37000800B5FFF711
:101AC000E7FF04494968C1F3C221034A515CC84099
:101AD00000BD0000001002401C370008F0B585B0C2
:101AE0000FF26C0C9CE8E01001A8A0E8E0101CA527
:101AF0002D68009500210022002300240020194DAC
:101B0000696801F00C05F5B1042D02D0082D19D13A
:101B100001E0154819E001ADC1F38346AC5D01F465
:101B2000803555B10F4D6D68C5F340451DF8052052
:101B30000D4D6543B5FBF2F302E00C4D04FB05F3DC
:101B4000184602E000BF084800BF00BF05B0F0BD66
:101B500002030405060708090A0B0C0D0E0F1010EE
:101B6000010200000010024000127A0000093D004E
:101B7000F8B504460CB90120F8BD207800F001004A
:101B8000002878D0F848406800F00C0004280CD0F9
:101B9000F548406800F00C00082811D1F248406870
:101BA00000F48030B0F5803F0AD1EF48006800F4BF
:101BB000003000285FD0606800285CD10120DBE79E
:101BC00000BF6068B0F5803F06D1E748006840F488
:101BD0008030E549086028E0606858B9E24800684C
:101BE00020F48030E04908600846006820F4802036
:101BF00008601AE06068B0F5A02F0BD1DA480068E1
:101C000040F48020D84908600846006840F48030DD
:101C100008600AE0D448006820F48030D2490860A7
:101C20000846006820F48020086000BF606888B122
:101C3000FFF7CAFC054606E0FFF7C6FC401B642818
:101C400001D9032098E7C848006800F40030002854
:101C5000F2D010E0FFF7B8FC054606E0FFF7B4FC51
:101C6000401B642801D9032086E7BF48006800F4C0
:101C700000300028F2D1207800F00200022857D16D
:101C8000B948406800F00C0050B1B748406800F017
:101C90000C00082818D1B448406800F4803098B986
:101CA000B148006800F0020020B12069012801D08D
:101CB000012061E7AC48006820F0F800616940EA63
:101CC000C100A949086033E02069E8B10120A749B3
:101CD0000860FFF779FC054606E0FFF775FC401B3E
:101CE000022801D9032047E79F48006800F002005E
:101CF0000028F2D09C48006820F0F800616940EAB2
:101D0000C1009949086013E0002098490860FFF776
:101D10005BFC054606E0FFF757FC401B022801D993
:101D2000032029E79048006800F002000028F2D163
:101D3000207800F0080008282DD1A069B8B1012052
:101D40008B490860FFF740FC054606E0FFF73CFCC6
:101D5000401B022801D903200EE78348406A00F0A7
:101D600002000028F2D0012000F056FF13E000200E
:101D70007F490860FFF728FC054606E0FFF724FCD2
:101D8000401B022801D90320F6E67748406A00F09C
:101D900002000028F2D1207800F00400042873D15A
:101DA00000277148C06900F0805070B900BF6E48CC
:101DB000C06940F080506C49C8610846C06900F0B5
:101DC0008050009000BF00BF01276A48006800F4FF
:101DD0008070B0B96748006840F480706549086059
:101DE000FFF7F2FB054606E0FFF7EEFB401B642819
:101DF00001D90320C0E65F48006800F48070002825
:101E0000F2D000BFE068012806D15748006A40F0D0
:101E100001005549086227E0E06858B95248006A55
:101E200020F00100504908620846006A20F00400D2
:101E3000086219E0E06805280BD14B48006A40F0C1
:101E40000400494908620846006A40F0010008623F
:101E50000AE04548006A20F001004349086208464C
:101E6000006A20F00400086200BFE068A0B1FFF73C
:101E7000ABFB054609E0FFF7A7FB401B41F28831A9
:101E8000884202D9032077E622E03748006A00F052
:101E900002000028EFD012E0FFF796FB054608E0AD
:101EA000FFF792FB401B41F28831884201D90320A1
:101EB00062E62D48006A00F002000028F0D1012FF0
:101EC00005D12948C06920F080502749C86100BF6A
:101ED000E069C8B32448406800F00C00082860D0CE
:101EE000E069022848D1002020490866FFF76CFB12
:101EF000054606E0FFF768FB401B022801D90320D6
:101F00003AE61948006800F000700028F2D1206A13
:101F1000B0F5803F07D11448406820F40030A16834
:101F2000084311494860D4E9080108430E4949684B
:101F300021F4741108430C49486001200B490866DC
:101F4000FFF742FB054607E03DE0FFF73DFB401B86
:101F5000022801D903200FE60348006800F0007052
:101F60000028F2D02FE000000010024000004242A2
:101F70008004424200700040002014490866FFF7C8
:101F800023FB054606E0FFF71FFB401B022801D993
:101F90000320F1E50E48006800F000700028F2D13F
:101FA00011E0E069012800D1E6E50948466806F439
:101FB0008031206A814204D106F47011606A814246
:101FC00001D00120D8E50020D6E500000000424203
:101FD0000010024070B504462546681EB0F1807FAF
:101FE00001D301200FE0681E4FF0E02148610F216E
:101FF0004FF0FF3001F0A8FA00204FF0E021886197
:1020000007200861002070BD7047704710B5024678
:1020100000BF92F83C00012801D1022010BD012030
:1020200082F83C0000BF022082F83D00106843683F
:102030001068846823F070030868034324F0800468
:10204000486804431068436010688460012082F887
:102050003D0000BF002082F83C0000BF00BFDDE76C
:1020600010B504460CB9012010BD94F83D0028B904
:10207000002084F83C00204600F00CF8022084F890
:102080003D00211D206800F071FF012084F83D0013
:102090000020E9E738B504462068B0F1804F16D13A
:1020A00000BF1848C06940F001001649C8610846E1
:1020B000C06900F00100009000BF00BF002211467F
:1020C0001C20FFF723FB1C20FFF710FB19E00E4933
:1020D0002068884215D100BF0A48C06940F004005A
:1020E0000849C8610846C06900F00400009000BFBC
:1020F00000BF002201211E20FFF708FB1E20FFF772
:10210000F5FA38BD00100240000800402DE9F0410A
:1021100004460D4600BF94F83C00012802D102207D
:10212000BDE8F081012084F83C0000BF022084F863
:102130003D002068866826F0770626F47F462068F2
:1021400086602868502833D00CDC202850D004DC6E
:1021500000284BD0102851D149E0302849D04028E0
:102160004CD139E060282DD0702807D0B0F5805FC1
:1021700003D0B0F5005F41D10DE040E0D5E9021396
:102180006A68206800F02CFF2068866846F07706B1
:102190002068866033E0D5E902136A68206800F0A1
:1021A0001FFF2068806840F480402168886026E036
:1021B000EA686968206800F0E3FF5021206800F0B9
:1021C0001AFF1CE0EA686968206800F0ECFF6021F3
:1021D000206800F010FF12E0EA686968206800F0EB
:1021E000CFFF4021206800F006FF08E000BF00BFDD
:1021F00000BF2968206800F0FEFE00E000BF00BFBD
:10220000012084F83D0000BF002084F83C0000BF9E
:1022100000BF85E710B504462068B0F1804F04D1B7
:10222000207F012801D100F03DFD2068B0F1804FF2
:1022300004D1207F022801D1FEF71AFA10BD10B593
:10224000044620680069C0F34000D8B12068C06827
:10225000C0F34000B0B16FF00200216808610120B6
:1022600020772068806900F0030018B12046FFF74E
:10227000D1FF05E0204600F0E7F8204600F000F925
:102280000020207720680069C0F38000D8B1206862
:10229000C068C0F38000B0B16FF00400216808612D
:1022A000022020772068806900F4407018B1204631
:1022B000FFF7B0FF05E0204600F0C6F8204600F02A
:1022C000DFF80020207720680069C0F3C000D8B193
:1022D0002068C068C0F3C000B0B16FF0080021688A
:1022E0000861042020772068C06900F0030018B15D
:1022F0002046FFF78FFF05E0204600F0A5F82046B6
:1023000000F0BEF80020207720680069C0F30010BC
:10231000D8B12068C068C0F30010B0B16FF01000F1
:1023200021680861082020772068C06900F44070A7
:1023300018B12046FFF76EFF05E0204600F084F854
:10234000204600F09DF8002020772068006900F00A
:10235000010058B12068C06800F0010030B16FF092
:10236000010021680861204600F08CF820680069AF
:10237000C0F3C01058B12068C068C0F3C01030B1BD
:102380006FF08000216808612046FFF73DFE20685D
:102390000069C0F3801058B12068C068C0F3801095
:1023A00030B16FF0400021680861204600F08FF8DE
:1023B00020680069C0F3401058B12068C068C0F3BD
:1023C000401030B16FF02000216808612046FFF70F
:1023D0001CFE10BD70B504460E46154600BF94F8AD
:1023E0003C00012801D1022070BD012084F83C008E
:1023F00000BF022084F83D0035B1042D09D0082D1E
:102400000CD00C2D14D10EE03146206800F0FCFDFC
:102410000FE03146206800F027FE0AE031462068D0
:1024200000F056FE05E03146206800F085FE00E031
:1024300000BF00BF012084F83D0000BF002084F8E9
:102440003C0000BF00BFCFE7704710B504460CB991
:10245000012010BD94F83D0028B9002084F83C000C
:10246000204600F00CF8022084F83D00211D206871
:1024700000F07CFD012084F83D000020E9E7704772
:10248000704700000168B1F1804F04D10249896AA8
:10249000491C014A91627047380000200246002022
:1024A00031B1042907D0082908D00C290CD108E043
:1024B0001368586B09E01368986B06E01368D86BD3
:1024C00003E01368186C00E000BF00BF704770475E
:1024D00010B504460CB9012010BDA06900B100E0A0
:1024E00000BF94F8390028B9002084F8380020464D
:1024F00000F028F8242084F839002068C06820F40F
:1025000000502168C860204600F034FF2068006950
:1025100020F49040216808612068406920F02A007A
:10252000216848612068C06840F400502168C86094
:102530000020E063202084F8390084F83A0000206D
:10254000CAE7000010B586B0044600200290039050
:102550000490059026492068884247D100BF25484D
:10256000C06940F480202349C8610846C06900F46E
:102570008020019000BF00BF00BF0846806940F086
:10258000080088610846806900F00800019000BFDB
:1025900000BF08150290022003900320059002A9B5
:1025A0001548FEF76BFE4FF4006002900020039088
:1025B000049002A91048FEF761FE10481049086017
:1025C0000020486000210E4881608021C160002108
:1025D000016141618161C161FEF7FCFC08B1FDF759
:1025E000DBFF00BF06486063446200BF06B010BD59
:1025F0000048004000100240000C01403000024042
:102600001002002000BFFEE710B5002000F0A4FB80
:10261000002000F0B3FB002000F08CFB002000F055
:10262000BFFB002000F074FB002000F057FB10BD42
:1026300000B50023224991F82E0000F0DDFF20496B
:102640008988431A1F4883610069002809DB1D48F7
:102650000069B0F52F6F04D81A484068184419492A
:102660004860184800891749C989484358431549A3
:102670008989144A52895143124A526801FB020166
:10268000104840890F4AD289504391FBF0F00D4920
:10269000086108460069002808DB08460069B0F5B3
:1026A0002F6F03D808460069888202E000200549A0
:1026B00088820448808A04490968486300BD000094
:1026C000380000209C0000209001002000B5184830
:1026D00090F825001E2829DA15480078082823D20A
:1026E000DFE800F0040508090A101B1C00BF00F019
:1026F00023F800BF00BF00BFFDF72CFE01200D49ED
:10270000087012E00B48007820B1002009490870D9
:1027100000F0D6FFFFF78CFF07E000BF00F04AFA99
:1027200001200449087000E000BF00BF00BD0000A8
:1027300038000020BF0000200020024909684863DB
:1027400070470000900100200EB50020009001901D
:102750000290344834490860811533488160012172
:102760000173002101754FF46021C16100202E49E1
:10277000486007212C480161FEF79CF908B1FDF77C
:102780000BFF002000900120019007200290694675
:102790002548FEF74BF808B1FDF7FEFE012000903A
:1027A0000220019069462048FEF740F808B1FDF785
:1027B000F3FE022000900320019069461A48FEF7BC
:1027C00035F808B1FDF7E8FE0320009004200190E1
:1027D00069461548FEF72AF808B1FDF7DDFE04202A
:1027E00000900520019069460F48FEF71FF808B1D8
:1027F000FDF7D2FE052000900620019069460A48A8
:10280000FEF714F808B1FDF7C7FE1020009007206E
:10281000019069460448FEF709F808B1FDF7BCFECF
:102820000EBD000000240140DC00002008B500BF00
:102830000E48406940F001000C4948610846406973
:1028400000F00100009000BF00BF002211460B20E5
:10285000FEF75CFF0B20FEF749FF002211460D201A
:10286000FEF754FF0D20FEF741FF08BD00100240A7
:1028700000B585B00020019002900390049000BF45
:102880006648806940F010006449886108468069A4
:1028900000F01000009000BF00BF00BF0846806934
:1028A00040F0200088610846806900F02000009018
:1028B00000BF00BF00BF0846806940F00400886187
:1028C0000846806900F00400009000BF00BF00BF10
:1028D0000846806940F0080088610846806900F079
:1028E0000800009000BF00BF00224FF400514C4888
:1028F000FEF763FE0022C0214A48FEF75EFE00227A
:102900004FF2FF114848FEF758FE4FF40050019077
:1029100001200290002003900320049001A9404868
:10292000FEF7ACFC4FF44040019000200290039071
:1029300001A93B48FEF7A2FC402001900120029033
:10294000002003900320049001A93648FEF796FC6E
:10295000802001901120029000200390022004901A
:1029600001A93048FEF78AFC032001900120029063
:10297000002003900320049001A92B48FEF77EFC61
:102980004FF2FC00019001200290002003900220F1
:10299000049001A92448FEF771FC4FF48070019067
:1029A00002200290049001A91E48FEF767FC4FF434
:1029B00090500190022002900320049001A9194830
:1029C000FEF75CFC4FF44060019000200290039001
:1029D00001A91448FEF752FC4FF4807001901120B9
:1029E0000290002003900220049001A90E48FEF7F7
:1029F00045FC4FF4007001900C48029000200390B9
:102A000001A90948FEF73AFC002211461720FEF7FB
:102A10007DFE1720FEF76AFE05B000BD00100240E3
:102A20000010014000080140000C0140000011109E
:102A300000B587B0002003900490059006900190A7
:102A400002904FF080401449086037204860002110
:102A5000114881604FF6FF71C16000210161816101
:102A6000FFF7FEFA08B1FDF797FD4FF48050039091
:102A700003A90948FFF74AFB08B1FDF78DFD0020C7
:102A80000190029001A90448FFF7C0FA08B1FDF7D0
:102A900083FD07B000BD00005001002000B58DB0DF
:102AA000002009900A900B900C90079008901C2130
:102AB0006846FDF740FB2D482D49086037204860E7
:102AC00000212B4881604FF6FF71C1600021016138
:102AD0008161FFF7C5FA08B1FDF75EFD4FF4805044
:102AE000099009A92248FFF711FB08B1FDF754FD31
:102AF0001F48FFF7AAFC08B1FDF74EFD0020079024
:102B0000089007A91A48FFF781FA08B1FDF744FDBC
:102B100010200090002001900220029000200490DC
:102B2000002269461248FFF755FC08B1FDF734FD55
:102B3000042269460E48FFF74DFC08B1FDF72CFD55
:102B4000002000900290082269460948FFF742FCE5
:102B500008B1FDF721FD0C2269460548FFF73AFC54
:102B600008B1FDF719FD0DB000BD000000080040E0
:102B70009001002010B50B480B4908604FF4E1307C
:102B80004860002108488160C16001610C214161F9
:102B900000218161C161FFF79BFC08B1FDF7FCFCDE
:102BA00010BD000000480040D001002000BFFEE73B
:102BB0007047000040F615000149096848637047F6
:102BC0009001002010B5FEF7F5FD10BD7047F8B577
:102BD00006460F4614461D46FEF7F6FC009014F814
:102BE000350038B90098304404EBC5014860012035
:102BF00004F8350004EBC50040680099884203D80A
:102C0000002004F83500B847F8BD0146502901DD21
:102C1000962000E00A20704708B508490968C908ED
:102C20004FF47A72B1FBF2F14143009100BF00BF53
:102C300000994A1E00920029F9D108BDD800002051
:102C4000704700000E4800780E4981F825000C48B6
:102C5000407848870A48807881F834000848C0786E
:102C600081F82E000648007981F85D00044840791B
:102C700081F85E000248807981F85F0070470000AB
:102C8000B80000203800002010B54FF480410448FF
:102C9000FEF784FC08B9012010BD0020FCE700000D
:102CA000000C014010B500210948FFF7F7FB094966
:102CB00048610846806A086500200549096848623D
:102CC000044988620846806D401C886510BD00007C
:102CD00050010020380000207047000010B5044665
:102CE000012C05D1002241030448FEF766FC04E0F4
:102CF000012251030148FEF760FC10BD000C0140A9
:102D000010B540210148FEF751FC10BD00080140FC
:102D100010B50446012C05D1002281030448FEF7BA
:102D20004CFC04E0012291030148FEF746FC10BD73
:102D3000000C014010B50446012C05D100224103CE
:102D40000448FEF73AFC04E0012251030148FEF773
:102D500034FC10BD000C014010B50446012C05D117
:102D6000002241030448FEF728FC04E0012251033D
:102D70000148FEF722FC10BD0010014010B50446CA
:102D8000012C05D1002201030448FEF716FC04E0E3
:102D9000012211030148FEF710FC10BD000C014098
:102DA00010B50446012C05D1002281030448FEF72A
:102DB00004FC04E0012291030148FEF7FEFB10BD74
:102DC000000C014010B5FFF79BFF23484169006DDF
:102DD00001EB004020494861084640691F4988428C
:102DE00034D81D48406941F2744188422ED31A48B4
:102DF00040691B49B1FBF0F017498880084680887C
:102E00004880084680884988401A00B21249C88024
:102E1000084640888988B0EB410F08DA0E484088A0
:102E20000D498988C0EB41000B49088102E0002070
:102E3000094908810848008907498880084681694E
:102E4000406D01EB00400449886101E0024840699F
:102E5000FFF756FF10BD0000380000202FFC0B00CC
:102E60002F82AE0410B5FEF7B5FB10BD00B593B0D0
:102E7000282109A8FDF75FF9142104A8FDF75BF9E3
:102E8000002000900190029003900120099000041E
:102E90000A9000200B9001200D9002201090C10399
:102EA00011914FF4E011129109A8FEF761FE08B1EB
:102EB000FDF772FB0F200490022005900020069081
:102EC0004FF48060079000200890022104A8FEF7CC
:102ED00019FD08B1FDF760FB022000904FF440405F
:102EE00002906846FEF776FC08B1FDF755FB13B07B
:102EF00000BD00001148006840F001000F49086063
:102F0000084640680E4908400C4948600846006879
:102F10000C490840094908600846006820F48020F0
:102F200008600846406820F4FE0048604FF41F0027
:102F30008860C80304490860704700000010024020
:102F40000000FFF8FFFFF6FE08ED00E010B50248B4
:102F5000FFF775F910BD00005001002010B50248C0
:102F6000FFF76DF910BD00009001002010B5026858
:102F7000184B984208D0B0F1804F05D0164B9842BC
:102F800002D0164B984203D122F070024B681A43CC
:102F9000104B984208D0B0F1804F05D00E4B9842AC
:102FA00002D00E4B984203D122F44072CB681A43F0
:102FB00022F080034C6943EA040202608B68C3621A
:102FC0000B688362034B984201D10B6903630123B1
:102FD000436110BD002C0140000400400008004087
:102FE00030B50C46816821F47F4142EA0325254330
:102FF0002943816030BD0A46816821F0700142F0AA
:10300000070319438160704730B5056A25F0010553
:103010000562026A4368846924F0700424F00304A2
:103020000D682C4322F002028D682A430D4DA84200
:1030300006D100BF22F00802CD682A4322F0040224
:10304000084DA84207D123F4807323F400734D691F
:103050002B438D692B43436084614D684563026255
:1030600030BD0000002C014030B5056A25F0100588
:103070000562026A4368846924F4E04424F44074DD
:103080000D6844EA052422F020028D6842EA051208
:103090000E4DA84207D100BF22F08002CD6842EA5F
:1030A000051222F04002094DA84209D123F48063A1
:1030B00023F400634D6943EA85038D6943EA850380
:1030C000436084614D688563026230BD002C01401D
:1030D00030B5056A25F480750562026A4368C469E3
:1030E00024F0700424F003040D682C4322F40072D1
:1030F0008D6842EA05220F4DA84207D100BF22F495
:103100000062CD6842EA052222F48062094DA8429D
:1031100009D123F4805323F400534D6943EA051386
:103120008D6943EA05134360C4614D68C56302625B
:1031300030BD0000002C014030B5056A25F48055F3
:103140000562036A4468C26922F4E04222F44072D4
:103150000D6842EA052223F400538D6843EA0533E3
:10316000064DA84204D124F480444D6944EA8514F4
:103170004460C2614D680564036230BD002C0140AB
:1031800030B50B461446026A056A25F00105056252
:10319000816921F0F00141EA041122F00A021A4388
:1031A0008161026230BD30B50B461446056A25F0D8
:1031B000100505628169026A21F4704141EA043117
:1031C00022F0A00242EA03128161026230BD0000D7
:1031D00010B5354890F82500334991F82610401A6B
:1031E00040B2314981F82400084690F924001E2895
:1031F0000EDD0120FFF7C2FD2B4991F8240000F0FD
:103200000EFA294981F82F0001202849087010E0A2
:10321000254890F9240010F11E0F0ADA224991F88E
:10322000240000F0F9F9204981F82F0001202049FD
:1032300008704FF47A721F491C48007800F054F867
:1032400048B1002019490870FFF798FD642016491D
:1032500081F82F000DE0C82217491548007800F0CA
:1032600043F830B100201249087064200E4981F8FB
:103270002F000D4890F8250014280ADA0A488088A3
:1032800040F6C411884204DD0020074981F82D0072
:1032900003E00120044981F82D00034890F825003F
:1032A000014981F8260010BD3800002005000020EB
:1032B000060000201C0000202000002010B5FFF7B1
:1032C000C1FCFFF785FFFDF705F8FDF77BF8FDF77B
:1032D000E5F910BD00B5FFF7F9F900BD00B5FDF740
:1032E0001DF800F019F900BD2DE9F04105460C4626
:1032F00016460027012D0CD1206818B9FEF764F995
:1033000030442060FEF760F92168884203D301272A
:1033100001E0002020603846BDE8F08170B5054628
:1033200000241FE004EB440055F82000C0B1FEF774
:103330004BF904EB440155F82110884210D30020CA
:1033400004EB440145F82100012004EB440105EBA6
:103350008101087104EB440105EB81018868804715
:10336000601CC4B2102CDDDB70BD10B50020FFF76F
:10337000B5FC10BD70B504462168096921F44051BF
:10338000E2681143226811612269A16811436269F0
:1033900041EA02052168C96841F20C629143294360
:1033A0002268D1602168496921F44071A269114302
:1033B00022685161564A2168914254D1FEF77EFB42
:1033C00000EBC00101EB001162689200B1FBF2F169
:1033D00000EBC00202EB001263689B00B2FBF3F249
:1033E0006423B2FBF3F202EBC20303EB0212A1EB84
:1033F0008201322202EB01116422B1FBF2F101F0F1
:10340000F00100EBC00202EB001263689B00B2FB0C
:10341000F3F26423B2FBF3F201EB021200EBC00102
:1034200001EB001163689B00B1FBF3F100EBC003FB
:1034300003EB00136668B600B3FBF6F36426B3FB38
:10344000F6F303EBC30606EB0313A1EB8301322370
:1034500003EB01116423B1FBF3F101F00F011144FF
:103460002268916053E0FEF719FB00EBC00101EB0D
:10347000001162689200B1FBF2F100EBC00202EBB6
:10348000001263689B00B2FBF3F26423B2FBF3F219
:1034900002EBC20303EB0212A1EB8201322202EB28
:1034A00001116422B1FBF2F101F0F00100EBC00266
:1034B00002EB001263689B00B2FBF3F26423B2FBE1
:1034C000F3F201EB021200EBC00101EB00116368A3
:1034D0009B00B1FBF3F100EBC00303EB0013666844
:1034E000B600B3FBF6F36426B3FBF6F303EBC306B7
:1034F00006EB0313A1EB8301322303EB01116423D9
:10350000B1FBF3F101F00F0111442268916070BD2D
:103510000038014000BFFEE7064890F85D00C0EBB0
:10352000401000EB8000FF2190FBF1F0014981F891
:103530005C0070473800002002480068C0F3022099
:10354000704700000CED00E010B5002804DB0A070E
:10355000130E054A135406E00A07140E034A00F03E
:103560000F031B1FD45410BD00E400E018ED00E071
:1035700002E008C8121F08C1002AFAD1704770473C
:10358000002001E001C1121F002AFBD1704700009A
:1035900010B50146002001EB41020C4B03EB820207
:1035A0001279012A10D1002201EB4103074C04EBF0
:1035B00083031A7101EB410344F8232001EB41031B
:1035C00004EB83039A60012010BD00006C02002010
:1035D00010B50246054B1B789B1A4B43FF24B3FBE7
:1035E000F4F31344D8B2014B1A7010BDC800002088
:1035F0000146642070470000014640F21450024A20
:1036000010801046008870479C000020024664200D
:1036100070470246642070470146502070470146BB
:10362000782070470146642070470000FDF7DEFFF8
:10363000FFF71CFCFFF71CF9FFF7F8F8FFF7F8F9A4
:10364000FFF72CFAFFF780F8FFF794FAFEF7DCFF9C
:10365000072213491348FDF72FFB20E0124890F88A
:103660004F00012805D1FFF7ADFB00200E4981F87E
:103670004F0000230D4A0E491420FFF7A8FA01233A
:103680000A4A0C496420FFF7A2FA0223074A0A49B2
:103690004FF47A70FFF79BFA0848FFF73FFEDDE72B
:1036A000B8000020DC000020380000205402002078
:1036B000BD320008D5320008DD3200086C0200205F
:1036C00000200349486008618882886170470000D3
:1036D0009C00002070B504460D461646FDF774FFA9
:1036E000284404EB4401084A42F8210004EB44005A
:1036F000114601EB80008660002004EB440102EBE0
:103700008101087170BD00006C0200200000000003
:103710000000000001020304060708090000000081
:10372000010203044437000800000020DC00000010
:103730007035000820380008DC0000207406000006
:1037400080350008000000000000000000000000BC
:103750000000000000000000000000000000000069
:103760000000000000000000000000000000000059
:103770000000000000000000000000000000000049
:103780000000000000000000000000000000000039
:103790000000000000000000000000000000000029
:1037A0000000000000000000000000006464646489
:1037B000646487846400640034010000AA0500008A
:1037C00000000000000000000A0A000000000000E5
:1037D00000000000000000000000000000000000E9
:1037E00014050000000000005802E8031400E8037C
:1037F00000000000000000000000000000000000C9
:1038000000000000000000000000000000000000B8
:103810000000000010000000010000000024F4007F
:04000005080000ED02
:00000001FF
